:020000040800F2
:1000000000000220252B0008212A0008232A0008CE
:10001000252A0008272A0008292A000800000000D5
:100020000000000000000000000000002B2A000873
:100030002D2A0008000000002F2A0008312A00089D
:10004000752B0008752B0008752B0008752B000810
:10005000752B0008392A0008752B0008752B00083D
:10006000752B0008752B0008752B0008752B0008F0
:10007000752B0008752B0008752B0008752B0008E0
:10008000752B0008752B0008752B0008752B0008D0
:10009000752B0008752B0008752B0008752B0008C0
:1000A000752B0008752B0008752B0008752B0008B0
:1000B000752B0008752B0008752B0008752B0008A0
:1000C000752B0008752B0008752B0008752B000890
:1000D000752B0008752B0008752B0008752B000880
:1000E000752B0008752B0008752B0008752B000870
:1000F000752B0008752B0008752B0008752B000860
:10010000752B0008752B0008752B0008752B00084F
:10011000752B0008752B0008752B0008752B00083F
:10012000752B00083D2A0008752B0008752B000868
:10013000752B00080000000000000000752B00086F
:10014000752B0008752B0008752B0008752B00080F
:10015000752B0008752B0008752B0008752B0008FF
:10016000752B0008752B0008752B0008752B0008EF
:10017000752B0008752B0008752B00080000000087
:1001800000000000752B00080000000000000000C7
:10019000752B00080000000000000000752B00080F
:1001A000000000000000000000000000752B0008A7
:1001B000752B0008752B0008752B0008752B00089F
:0401C000752B000893
:1001D00010B5054C237833B9044B13B10448AFF381
:1001E00000800123237010BD70000020000000007B
:1001F0006C3A000808B5034B1BB103490348AFF341
:10020000008008BD00000000740000206C3A000867
:1002100053B94AB9002908BF00281CBF4FF0FF316D
:100220004FF0FF3000F072B9ADF1080C6DE904CE6B
:1002300000F006F8DDF804E0DDE9022304B07047C1
:100240002DE9F047089E04468846002B4BD18A4290
:10025000154667D9B2FA82F24AB1C2F1200701FA13
:1002600002F320FA07F7954047EA030894404FEA63
:10027000154E230CB8FBFEF71FFA85FC0EFB178802
:1002800043EA084307FB0CF1994209D9EB1807F13F
:10029000FF3080F01B81994240F21881023F2B44CD
:1002A0005B1AA4B2B3FBFEF00EFB103344EA034426
:1002B00000FB0CFCA44509D92C1900F1FF3380F098
:1002C0000781A44540F2048102382C4440EA0740EB
:1002D000A4EB0C0400271EB1D4400023C6E9004360
:1002E0003946BDE8F0878B4209D9002E00F0EB803B
:1002F0000027C6E9000138463946BDE8F087B3FA61
:1003000083F7002F47D18B4202D3824200F2FA805A
:10031000841A61EB030301209846002EE0D0C6E961
:100320000048DDE702B9FFDEB2FA82F2002A40F0AF
:100330008F80491B4FEA154E1FFA85F80127B1FB44
:10034000FEFC230C0EFB1C1143EA014308FB0CF1DD
:10035000994207D9EB180CF1FF3002D2994200F212
:10036000CD808446591AA3B2B1FBFEF00EFB1014E7
:1003700043EA044408FB00F8A04507D92C1900F112
:10038000FF3302D2A04500F2B6801846A4EB080461
:1003900040EA0C409FE7C7F1200CBB4022FA0CFE5C
:1003A0004EEA030E01FA07F420FA0CF521FA0CF3D9
:1003B0004FEA1E482543B3FBF8F92C0C08FB193310
:1003C0001FFA8EFA44EA034309FB0AF49C4202FA3C
:1003D00007F200FA07F10BD91EEB030309F1FF3016
:1003E00080F087809C4240F28480A9F10209734426
:1003F0001B1BADB2B3FBF8F008FB103345EA034416
:1004000000FB0AFAA24508D91EEB040400F1FF33F1
:100410006BD2A24569D90238744440EA0940A0FB76
:100420000289A4EB0A044C45C2464B4654D351D032
:10043000002E69D0B1EB0A0564EB030404FA0CFC4E
:10044000FD40FC404CEA0505C6E90054002747E79B
:10045000C2F1200320FA03F7954001FA02F021FAD5
:1004600003F34FEA154E3843010CB3FBFEF71FFAB6
:1004700085F80EFB173341EA034107FB08F38B4273
:1004800004FA02F407D9691807F1FF3C2FD28B4216
:100490002DD9023F2944CB1A81B2B3FBFEF00EFBEB
:1004A000103341EA034100FB08F38B4207D9691876
:1004B00000F1FF3C17D28B4215D902382944C91AE2
:1004C00040EA07473BE73746304609E70746E7E695
:1004D0001846FBE64145ABD2B8EB020A69EB0E02C7
:1004E00001381346A4E76046E9E7184695E76746F2
:1004F000D1E781467CE702382C4447E7ACF1020C97
:100500002B442FE7384608E73746E9E6704700BF37
:1005100001F0FF01102A2BDB10F0070F08D010F8B4
:10052000013B013A8B422DD010F0070F42B3F6D1B8
:10053000F0B441EA012141EA014122F007047FF0D1
:1005400000070023F0E80256083C85EA010586EA28
:10055000010685FA47F5A3FA87F586FA47F6A5FA64
:1005600087F68EB9EED1F0BC01F0FF0102F0070270
:1005700032B110F8013B013A83EA010313B1F8D11B
:100580000020704701387047002D06BF35460338FC
:10059000073815F0010F07D1013015F4807F02BF35
:1005A000013015F4C03F0130F0BC0138704700BF86
:1005B00010B504460E4B18784FF47A73B3FBF0F382
:1005C0000C4A1068B0FBF3F000F0AAF868B90F2CE1
:1005D00001D901200AE0002221464FF0FF3000F04F
:1005E0005DF8034B5C60002000E0012010BD00BFFF
:1005F000000000200800002008B50B4B1A6842F4E8
:1006000000721A601A6842F480621A601A6842F432
:1006100080721A60032000F02FF80020FFF7C8FF57
:1006200002F07EF8002008BD003C0240034A116839
:10063000034B1B780B441360704700BF9C000020E5
:1006400000000020014B1868704700BF9C0000208C
:1006500038B50446FFF7F6FF0546B4F1FF3F02D078
:10066000044B1B781C44FFF7EDFF401BA042FAD35C
:1006700038BD00BF00000020074AD36823F4E063C0
:100680001B041B0C000200F4E060184340F0BF6044
:1006900040F40030D060704700ED00E030B4174BFC
:1006A000DB68C3F30223C3F10704042C28BF04242E
:1006B0001D1D062D18D9033B4FF0FF3505FA04F434
:1006C00021EA0401994005FA03F322EA03031943DE
:1006D00000280BDB0901C9B200F1604000F5614060
:1006E00080F8001330BC70470023E5E700F00F00EE
:1006F0000901C9B2024B1954F4E700BF00ED00E054
:1007000014ED00E0002807DB00F01F024009012380
:100710009340024A42F82030704700BF00E100E0F9
:100720000138B0F1807F0AD2064B5860064AF021AA
:1007300082F823100020986007221A607047012079
:10074000704700BF10E000E000ED00E0002844D05A
:1007500010B5044690F83530002B2ED0022384F8D3
:100760003530226811681E4B0B40136022681168F7
:10077000636860690343E068034320690343A0683A
:100780000343A0690343206A0343606A0343A06AEA
:100790000343E06A0343206B03430B431360636826
:1007A000102B0DD02268D36843F01E03D3600020C5
:1007B000E064012384F8353010BD01F0CDFFCDE7B2
:1007C000237F627F43EA0223A27F43EA0243E17F61
:1007D000226843EA01639361E4E70120704700BFA8
:1007E00007F0E0FF0268D3B2103B0B49A1FB0313F3
:1007F0001B090A49C95CC165032B06D822F47F7224
:1008000022F003028265806D704722F47F7222F02D
:10081000030204328265F6E7ABAAAAAA843A00086A
:10082000836A826992B9012B0AD01BB1022B01D0D5
:1008300000207047C36A13F0807F2CD100207047DE
:10084000C36AB3F1C07F28D000207047B2F5005FC3
:1008500005D0022B29D9032B15D000207047032B7C
:1008600003D8DFE803F01C041C0A00207047C36AA9
:1008700013F0807F15D100207047C36AB3F1C07FA9
:1008800011D000207047C36A13F0807F01D001208F
:1008900070470020704701207047012070470120F9
:1008A0007047012070470120704701207047000009
:1008B00070B50446FFF7C6FE002C5BD0054600234A
:1008C00084F83430022384F835302268136823F02A
:1008D0000103136023681A6812F0010F0AD0FFF7B2
:1008E000B1FE401B0528F5D920236365032084F859
:1008F000350070BD1A68204810406168A2680A433C
:10090000E1680A4321690A4361690A43A1690A430C
:10091000E1690A43216A0A430243616A04291ED03D
:100920001A602668756925F00705636A1D43042B64
:1009300007D1A36A1D43E36A1BB12046FFF770FF8E
:1009400090B975612046FFF74DFFE26D3F2393405C
:10095000836000206065012384F83530C9E7E16ACF
:10096000206B01430A43DBE740236365012084F8E1
:100970003500BEE70120BCE73F8010F0F0B583B042
:10098000044600230193724B1D68724BA3FB05358F
:10099000AD0A876D3E68C26D08239340334210D084
:1009A00003681A6812F0040F0BD01A6822F00402D0
:1009B0001A60C26D08239340BB60436D43F001038E
:1009C0004365E26D01239340334209D022685269A6
:1009D00012F0800F04D0BB60636D43F002036365C7
:1009E000E26D04239340334209D02268126812F06A
:1009F000020F04D0BB60636D43F004036365E26DD6
:100A000010239340334224D02268126812F0080F5A
:100A10001FD0BB6023681A6812F4802F0DD01B68AA
:100A200013F4002F04D1236C9BB12046984710E0AB
:100A3000A36C73B1204698470BE01A6812F4807FCC
:100A400003D11A6822F008021A60236C0BB1204609
:100A50009847E26D20239340334255D022681268B4
:100A600012F0100F50D0BB6094F83530DBB2052B7C
:100A70000ED023681A6812F4802F33D01B6813F449
:100A8000002F2AD1636C002B3ED0204698473BE0D4
:100A90002268136823F0160313602268536923F059
:100AA00080035361236CA3B12268136823F0080309
:100AB0001360E26D3F239340BB60002384F8343021
:100AC000012384F83530236D002B3FD02046984712
:100AD0003CE0A36C002BE7D1EBE7E36BA3B120462E
:100AE000984711E01A6812F4807F09D11A6822F041
:100AF00010021A60002384F83430012384F8353062
:100B0000E36B0BB120469847636DFBB1636D13F047
:100B1000010F17D0052384F835302268136823F0BD
:100B200001031360019B01330193AB4204D8236896
:100B30001B6813F0010FF5D1002384F83430012332
:100B400084F83530E36C0BB12046984703B0F0BD14
:100B500008000020B5814E1B00230F2B00F2D1802E
:100B6000F0B482B039E0062200E00022B2403A43FD
:100B70000234644E46F82420634A1468EA4302EAC9
:100B800004064F6817F4803F01D045EA04065E4C26
:100B90002660646802EA04064F6817F4003F01D03B
:100BA00045EA0406584C6660A46802EA04064F68E9
:100BB00017F4801F01D045EA0406534CA660E46890
:100BC00022404E6816F4001F01D045EA04024E4C44
:100BD000E26001330F2B00F2918001229A400C68F1
:100BE00004EA0205AA42F4D14C68022C01D0122C6E
:100BF00010D1DE08083650F826C003F00704A7001D
:100C00000F24BC402CEA040C0C69BC4044EA0C04E0
:100C100040F8264004685F000326BE40F64306EA1B
:100C2000040C4C6804F00304BC4044EA0C04046067
:100C30004C6804F1FF3CBCF1010F03D9112C01D029
:100C4000122C10D1846806EA040CCC68BC4044EA3B
:100C50000C048460446824EA02024C68C4F3001463
:100C60009C4014434460C26816408A68BA403243CC
:100C7000C2604A6812F0805FABD000220192234A22
:100C8000546C44F480445464526C02F480420192E7
:100C9000019A9C08A61C1B4A52F8267003F0030216
:100CA00096000F22B24027EA0207194A90423FF409
:100CB0005CAF02F58062904216D002F580629042ED
:100CC00014D002F58062904212D002F58062904208
:100CD00010D002F5806290420ED002F58062904200
:100CE0003FF441AF072241E701223FE702223DE7FF
:100CF00003223BE7042239E7052237E702B0F0BCC4
:100D00007047704700380140003C01400038024005
:100D10000000024012B90904816170478161704787
:100D200003685A6912F4806F11D06FF480625A61BF
:100D300000230363202280F83D2080F83E30026CBF
:100D400042F00402026480F83C3001207047002029
:100D50007047F8B506460C4617461D4622E0FFF7D9
:100D600071FC069BC01AA84200D8DDB9002333638A
:100D7000202286F83D2086F83E30326C42F0200278
:100D8000326486F83C3001201AE033685B6924EA5B
:100D900003039BB2B3FA83F35B099F420FD1B5F112
:100DA000FF3FDCD1C4F30743012BEED033689B69CE
:100DB00024EA03039BB2B3FA83F35B09EDE7002057
:100DC000F8BDF8B504460D4616461F463CE01A68C5
:100DD00042F400721A6023686FF480625A61002343
:100DE0002363202284F83D2084F83E30226C42F0B8
:100DF0000402226484F83C30012033E0FFF722FC37
:100E0000C01BB04200D8FEB900232363202284F81F
:100E10003D2084F83E30226C42F02002226484F8A7
:100E20003C3001201EE023685B6925EA03039BB286
:100E3000003318BF0123A3B123685A6912F4806FED
:100E4000C5D1B6F1FF3FD9D1C5F30743012BEAD095
:100E500023689B6925EA03039BB2003318BF012373
:100E6000E9E70020F8BD70B504460D461646236834
:100E70005B6913F0800F1CD12046FFF751FFD0B9FA
:100E8000B5F1FF3FF3D0FFF7DDFB801BA84201D88F
:100E9000002DECD100232363202284F83D2084F828
:100EA0003E30226C42F02002226484F83C30012063
:100EB00000E0002070BD0120FCE70000002800F0E9
:100EC000BE80F8B5044690F83D30002B6BD024234B
:100ED00084F83D302268136823F00103136000F0AA
:100EE00015FA6268584B9A4262D8584B98428CBFA8
:100EF00000230123002B40F0A480554BA3FB0023CB
:100F00009B0C21684A6822F03F021A434A60256818
:100F10002A6A22F03F0266684B498E424ED801335E
:100F200013432B622568E96921F44F4121F0FF0149
:100F30006368454A93424BD801385B00B0FBF3F33A
:100F40000133C3F30B03042B38BF04230B43EB61C2
:100F500021680B6823F0C003E269206A024313434F
:100F60000B6021688B6823F4034323F0FF0322699D
:100F7000E068024313438B602168CB6823F0FF03D2
:100F80006269A06902431343CB602268136843F08F
:100F90000103136000202064202384F83D30206387
:100FA00084F83E00F8BD80F83C3001F063FC8EE729
:100FB000284B98428CBF002301239BE74FF4967186
:100FC00001FB03F32449A1FB03139B090133A7E7AA
:100FD000A268BAB9461E03EB4307B6FBF7F6013623
:100FE000C6F30B06B6FA86F6760936BBC2B90138E7
:100FF00003EB4303B0FBF3F30133C3F30B0242F4FF
:101000000043A3E7461E03EB830707EB8707B6FB06
:10101000F7F60136C6F30B06B6FA86F67609E4E76C
:10102000013803EB830303EB8303B0FBF3F20132DC
:10103000C2F30B0242F4404388E7012386E7012014
:1010400070470120AEE700BFA08601007F841E002C
:1010500083DE1B43FF083D00D34D62102DE9F041B4
:1010600084B004460E46174698460B9D02681368E6
:1010700043F4806313600268136843F48073136061
:1010800000950A9B00224FF00111FFF762FE20B18C
:101090000123184604B0BDE8F081F6B2236806F0DB
:1010A000FE021A612B460A9A3C492046FFF789FE48
:1010B00090B90023039323685A6903929B690393B1
:1010C000039B2A460A992046FFF7CDFEA0B1236C68
:1010D000042B0AD00123DCE74FF6FF731D223049B1
:1010E000304801F081F80123D3E72268136843F404
:1010F000007313600123CCE7B8F1010F0DD1236811
:10110000FFB21F612A460A992046FFF7ACFE20B3C2
:10111000236C042B1AD00123BBE723683A0A1A6117
:101120002A460A992046FFF79EFE58B1236C042BED
:1011300001D00123ADE72268136843F40073136004
:101140000123A6E72368FFB21F61DBE7226813686B
:1011500043F40073136001239BE72268136843F490
:101160008073136000950A9B00224FF00111204606
:10117000FFF7EFFD08B101238BE7236846F0010676
:101180001E612B460A9A05492046FFF71AFE0346C0
:1011900000283FF47EAF01237BE700BF020001007F
:1011A000E83A0008A0000020002800F09D8070B5FB
:1011B00004464F4B1B6803F00F038B4209D2CBB29E
:1011C0004B4A1370136803F00F038B4201D00120C8
:1011D00070BD236813F0020F17D013F0040F04D072
:1011E000444A936843F4E0539360236813F0080F74
:1011F00004D0404A936843F4604393603D4A936847
:1012000023F0F003A068034393600D46236813F0B6
:10121000010F32D06368012B21D09A1E012A25D9F3
:10122000344A126812F0020F60D032498A6822F004
:10123000030213438B60FFF705FA06462D4B9B68AC
:1012400003F00C036268B3EB820F16D0FFF7FAF9D4
:10125000801B41F288339842F0D90320B8E7254A31
:10126000126812F4003FE0D10120B1E7214A126870
:1012700012F0007FD9D10120AAE71D4B1B6803F0B3
:101280000F03AB4209D9EAB2194B1A701B6803F07D
:101290000F03AB4201D001209AE7236813F0040F3B
:1012A00006D0144A936823F4E053E1680B4393603B
:1012B000236813F0080F07D00E4A936823F46043A5
:1012C000216943EAC103936000F040F8094B9B6831
:1012D000C3F30313084AD35CD840084B18600020BE
:1012E000FFF766F9002073E70120704701206FE7E0
:1012F000003C0240003802408C3A00080800002000
:10130000014B1868704700BF0800002008B5FFF7C0
:10131000F7FF044B9B68C3F38223034AD35CD84096
:1013200008BD00BF003802409C3A000808B5FFF72E
:10133000E7FF044B9B68C3F34233034AD35CD840B6
:1013400008BD00BF003802409C3A00082DE9F04B70
:10135000444B9B6803F00C03082B06D00C2B42D0A7
:10136000042B7CD04048BDE8F08B3E4B5A6802F01D
:101370003F025B6813F4800F12D03A4B5968C1F3F7
:10138000881100233948A1FB0001FEF741FF354BCE
:101390005B68C3F3014301335B00B0FBF3F0E2E7AA
:1013A000304B5B68C3F388131E4600275C010025A1
:1013B000E41A65EB0705A90141EA9461A001001B4D
:1013C00061EB0501CB0043EA5073C400A01943EB65
:1013D00007018B0243EA90538402204619460023FA
:1013E000FEF716FFD3E71F4B5A6802F03F025B6817
:1013F00013F4800F10D01B4B5968C1F388110023E0
:101400001A48A1FB0001FEF703FF164B5B68C3F30C
:101410000273B0FBF3F0A6E7124B5B68C3F38813CB
:101420001E4600275C010025E41A65EB0705A901AB
:1014300041EA9461A001001B61EB0501CB0043EA86
:101440005073C400A01943EB07018B0243EA905389
:101450008402204619460023FEF7DAFED5E703484A
:1014600081E700BF003802400024F40040787D018D
:1014700070B582B00446036813F0010F41D0A64B4B
:101480009B6803F00C03042B32D0A34B9B6803F042
:101490000C03082B27D0A04B9B6803F00C030C2BEC
:1014A00059D06368B3F5803F5BD0B3F5A02F5ED011
:1014B000994B1A6822F480321A601A6822F480224A
:1014C0001A606368002B5CD0FFF7BCF80546924BAE
:1014D0001B6813F4003F14D1FFF7B4F8401B6428D5
:1014E000F5D903209DE18C4B5B6813F4800FD2D0BB
:1014F000894B1B6813F4003F03D06368002B00F096
:101500008D81236813F0020F67D0834B9B6813F023
:101510000C0F4AD0804B9B6803F00C03082B3FD084
:101520007D4B9B6803F00C030C2B48D0E368002B29
:1015300074D07A4B01221A60FFF784F80546764B87
:101540001B6813F0020F60D1FFF77CF8401B0228E4
:10155000F5D9032065E1704B5B6813F4800FA0D0D0
:10156000C6E76D4A136843F480331360A9E76A4BFA
:101570001A6842F480221A601A6842F480321A60B3
:101580009FE7FFF75FF80546634B1B6813F4003FC6
:10159000B7D0FFF757F8401B6428F5D9032040E186
:1015A0005D4B5B6813F4800FBAD15B4B1B6813F083
:1015B000020F0AD0E368012B07D0012031E1564B1E
:1015C0005B6813F4800FB1D1EFE7534A136823F03F
:1015D000F803216943EAC1031360236813F0080F7D
:1015E00040D0636963B34E4B01221A60FFF72AF8BB
:1015F0000546494B5B6F13F0020F33D1FFF722F81A
:10160000401B0228F5D903200BE1434A136823F05D
:10161000F803216943EAC1031360DEE73F4B002270
:101620001A60FFF70FF805463B4B1B6813F0020FDB
:10163000D3D0FFF707F8401B0228F5D90320F0E0CC
:10164000374B00221A60FEF7FDFF0546324B5B6FF9
:1016500013F0020F06D0FEF7F5FF401B0228F5D964
:101660000320DEE0236813F0040F79D02A4B1B6CB3
:1016700013F0805F33D100230193274B1A6C42F0A3
:1016800080521A641B6C03F080530193019B012567
:10169000244B1B6813F4807F23D0A368012B34D024
:1016A000052B41D01C4B1A6F22F001021A671A6FEA
:1016B00022F004021A67A368002B3FD0FEF7C2FF96
:1016C0000646154B1B6F13F0020F48D1FEF7BAFF09
:1016D000801B41F288339842F3D90320A1E0002512
:1016E000D6E7104A136843F480731360FEF7AAFF2D
:1016F00006460C4B1B6813F4807FCED1FEF7A2FF89
:10170000801B0228F5D903208BE0034A136F43F0B6
:1017100001031367CFE700BF0038024000004742D3
:10172000800E474200700040404B1A6F42F00402A6
:101730001A671A6F42F001021A67BCE7FEF782FFD0
:1017400006463A4B1B6F13F0020F08D0FEF77AFFE4
:10175000801B41F288339842F3D9032061E0E5B958
:10176000A369002B5CD0314A926802F00C02082A6F
:1017700059D0022B17D02E4B00221A60FEF762FFC1
:1017800004462A4B1B6813F0007F45D0FEF75AFF32
:10179000001B0228F5D9032043E0244A136C23F0F0
:1017A00080531364DCE7224B00221A60FEF74AFFE5
:1017B00005461E4B1B6813F0007F06D0FEF742FF64
:1017C000401B0228F5D903202BE0E369226A13436A
:1017D000626A43EA8213A26A5208013A43EA024368
:1017E000E26A43EA0263226B43EA02730F4A5360E0
:1017F0000F4B01221A60FEF725FF04460B4B1B68B6
:1018000013F0007F06D1FEF71DFF001B0228F5D95B
:10181000032006E0002004E0002002E0012000E0B8
:10182000002002B070BD0120FBE700BF003802407D
:101830006000474230B4036A23F001030362056A83
:101840004268846924F073040B681C4325F0020588
:101850008B682B43104DA84203D005F58065A84244
:1018600005D123F00803CD682B4323F004030A4D70
:10187000A84203D005F58065A84205D122F4407244
:101880004D6915438A692A43426084614A6842630C
:10189000036230BC704700BF0000014030B4036AEF
:1018A00023F480730362036A4268C46924F07304FA
:1018B0000D682C4323F400738D6843EA0523124D11
:1018C000A84203D005F58065A84206D123F4006341
:1018D000CD6843EA052323F480630B4DA84203D06F
:1018E00005F58065A84207D122F440524D6942EACD
:1018F00005128D6942EA05124260C4614A68C263FA
:10190000036230BC704700BF0000014030B4036A7E
:1019100023F480530362036A4468C26922F4E642F6
:101920000D6842EA052223F400538D6843EA05332B
:10193000094DA84203D005F58065A84204D124F4DE
:1019400080444D6944EA85144460C2614A68026477
:10195000036230BC704700BF0000014010B4036A4E
:10196000046A24F001040462846924F0F00444EA67
:10197000021223F00A030B43826103625DF8044BF9
:10198000704710B4036A23F0100303628469036A8A
:1019900024F4704444EA023223F0A00343EA011322
:1019A000826103625DF8044B7047836823F0700323
:1019B000194341F0070181607047022380F83D30F0
:1019C0000268936803F00703062B03D0136843F003
:1019D00001031360012380F83D30002070477047F9
:1019E0000368304A904212D0B0F1804F0FD0A2F578
:1019F0007C4290420BD002F58062904207D002F503
:101A00008062904203D002F57842904203D123F0E5
:101A100070034A681343234A90422AD0B0F1804FA2
:101A200027D0A2F57C42904223D002F580629042FA
:101A30001FD002F5806290421BD002F5784290429E
:101A400017D002F57052904213D002F58062904296
:101A50000FD002F5806290420BD0A2F598329042EE
:101A600007D002F58062904203D002F58062904276
:101A700003D123F44073CA68134323F080034A69F7
:101A8000134303608B68C3620B688362054B984203
:101A900003D003F58063984201D10B6903630123EE
:101AA0004361704700000140A8B110B5044690F8AA
:101AB0003D305BB1022384F83D30211D2068FFF7E3
:101AC0008FFF012384F83D30002010BD80F83C30AA
:101AD00000F02AFFEEE701207047A8B110B50446D8
:101AE00090F83D305BB1022384F83D30211D206821
:101AF000FFF776FF012384F83D30002010BD80F809
:101B00003C30FFF76CFFEEE70120704730B4036A0A
:101B100023F010030362036A4468826922F4E642F8
:101B20000D6842EA052223F020038D6843EA05137D
:101B3000114DA84203D005F58065A84206D123F0D7
:101B40008003CD6843EA051323F040030A4DA84201
:101B500003D005F58065A84207D124F440644D699F
:101B600044EA85048D6944EA8504446082614A68D8
:101B70008263036230BC70470000014038B590F8C2
:101B80003C30012B66D00D460446012380F83C30E2
:101B9000022380F83D300C2A1AD8DFE802F007193A
:101BA0001919201919193419191947000068FFF774
:101BB00041FE2268936943F00803936122689369A8
:101BC00023F0040393612268936929690B439361AD
:101BD000012384F83D30002084F83C0038BD0068C3
:101BE000FFF794FF2268936943F4006393612268CE
:101BF000936923F48063936122689369296943EAB6
:101C000001239361E4E70068FFF748FE2268D36987
:101C100043F00803D3612268D36923F00403D3613E
:101C20002268D36929690B43D361D1E70068FFF7C4
:101C30006DFE2268D36943F40063D3612268D369DF
:101C400023F48063D3612268D369296943EA0123BD
:101C5000D361BDE70220C1E710B4846824F47F4457
:101C600042EA03230B43234383605DF8044B704730
:101C700090F83C30012B66D010B50446012380F863
:101C80003C30022380F83D300268936823F47F43A0
:101C900023F0770393600B68402B4AD013D9602B55
:101CA0003DD01ED9702B28D0B3F5005F30D1CB6862
:101CB0004A6889680068FFF7CFFF2268936843F499
:101CC0008043936024E0102B06D004D9202B03D04E
:101CD000302B01D01CE0DBB919462068FFF765FE08
:101CE00016E0502B14D1CA6849680068FFF736FE29
:101CF00050212068FFF759FE0AE0CB684A688968DE
:101D00000068FFF7A9FF2268936843F077039360A8
:101D1000012384F83D30002084F83C0010BDCA68DF
:101D200049680068FFF72DFE60212068FFF73DFE3F
:101D3000EEE7CA6849680068FFF710FE4021206896
:101D4000FFF733FEE4E70220704710B401F01F01F3
:101D5000012303FA01F4036A23EA04030362036A1A
:101D60008A40134303625DF8044B704710B5044684
:101D700001220068FFF7E9FF23680B4A934203D072
:101D800002F58062934203D15A6C42F400425A64D5
:101D90002268936803F00703062B03D0136843F00F
:101DA00001031360002010BD0000014090F83C309A
:101DB000012B1CD070B4012680F83C60022380F80F
:101DC0003D3002685568936825F070050C682C4317
:101DD00023F080054B682B4354600268936080F8C1
:101DE0003D60002380F83C30184670BC70470220EC
:101DF000704700002DE9F84304460268136923F494
:101E00004053C1680B4313618368026913434269FD
:101E10001343C2691A430168CB6823F4164323F0C5
:101E20000C031343CB600268536923F44073816948
:101E30000B435361C369B3F5004F60D00368B84AE0
:101E4000934200F0148102F58062934200F00F810A
:101E5000FFF75CFA00EB800000EB80006568AD00E6
:101E6000B0FBF5F5AF4FA7FB05356D092E01FFF768
:101E70004DFA00EB800000EB80006568AD00B0FB20
:101E8000F5F9FFF743FA00EB800000EB800065688E
:101E9000AD00B0FBF5F5A7FB05356D094FF0640803
:101EA00008FB15952D013235A7FB05356D0905F0A9
:101EB000F0053544FFF72AFA00EB800000EB8000C4
:101EC0006668B600B0FBF6F6FFF720FA00EB80007C
:101ED00000EB800063689B00B0FBF3F0A7FB0030D1
:101EE000400908FB10684FEA081808F13208A7FB00
:101EF0000837C7F3431723682F449F600DE1036839
:101F0000874A93425BD002F58062934257D0FFF735
:101F1000FDF900EB800000EB800065686D00B0FB10
:101F2000F5F5804FA7FB05356D092E01FFF7EEF99A
:101F300000EB800000EB800065686D00B0FBF5F9F8
:101F4000FFF7E4F900EB800000EB800065686D00AE
:101F5000B0FBF5F5A7FB05356D094FF0640808FBEC
:101F60001595ED003235A7FB05356D096D0005F4BB
:101F7000F8753544FFF7CAF900EB800000EB8000EC
:101F800066687600B0FBF6F6FFF7C0F900EB80005C
:101F900000EB800063685B00B0FBF3F3A7FB032357
:101FA0005B0908FB13684FEAC80808F13208A7FB71
:101FB0000837C7F3421723682F449F60ADE0FFF74F
:101FC000B5F900EB800000EB800065686D00B0FBA8
:101FD000F5F5544FA7FB05356D092E01FFF7A6F95E
:101FE00000EB800000EB800065686D00B0FBF5F948
:101FF000FFF79CF900EB800000EB800065686D0046
:10200000B0FBF5F5A7FB05356D094FF0640808FB3B
:102010001595ED003235A7FB05356D096D0005F40A
:10202000F8753544FFF782F900EB800000EB800083
:1020300066687600B0FBF6F6FFF778F900EB8000F3
:1020400000EB800063685B00B0FBF3F3A7FB0323A6
:102050005B0908FB13684FEAC80808F13208A7FBC0
:102060000837C7F3421723682F449F6055E0FFF7F6
:102070005DF900EB800000EB80006568AD00B0FB0F
:10208000F5F5284FA7FB05356D092E01FFF74EF931
:1020900000EB800000EB80006568AD00B0FBF5F957
:1020A000FFF744F900EB800000EB80006568AD00AD
:1020B000B0FBF5F5A7FB05356D094FF0640808FB8B
:1020C00015952D013235A7FB05356D0905F0F00595
:1020D0003544FFF72BF900EB800000EB80006668C9
:1020E000B600B0FBF6F6FFF721F900EB800000EB3D
:1020F000800063689B00B0FBF3F0A7FB0030400951
:1021000008FB10684FEA081808F13208A7FB0837E7
:10211000C7F3431723682F449F60BDE8F88300BFCF
:10212000001001401F85EB512DE9F04105460F4697
:1021300016469846069C2B681B6837EA03030CBFBB
:1021400001230023B3421DD1B4F1FF3FF3D02CB1E2
:10215000FEF778FAA0EB0800A042ECD92A68D36811
:1021600023F4D073D3602A68536923F001035361C9
:10217000202385F8393085F83A30002385F8383047
:10218000032000E00020BDE8F08158B310B50446FC
:1021900090F839300BB3242384F839302268D3689F
:1021A00023F40053D3602046FFF724FE226813690E
:1021B00023F4904313612268536923F02A03536187
:1021C0002268D36843F40053D3600020E0632023E7
:1021D00084F8393084F83A3010BD80F8383000F097
:1021E000E5FBD8E7012070472DE9F04182B01E469B
:1021F00090F83930DBB2202B55D104460D4690467D
:10220000002955D0002A55D090F83830012B53D0F2
:10221000012380F838300023C363212380F839304C
:10222000FEF710FA0746A4F82480A4F8268010E0F0
:1022300000963B46002280212046FFF775FF0028CC
:102240003CD12B882268C3F3080353602369C3B9C8
:102250000235E38C9BB2B3B1E38C013B9BB2E384C8
:10226000A368B3F5805FE3D000963B46002280214F
:102270002046FFF759FF18BB2A7823685A600135BA
:10228000E7E70135E5E700963B460022402120467E
:10229000FFF74AFF0346A8B9202284F8392000221C
:1022A00084F8382000E00223184602B0BDE8F0812F
:1022B0000123F9E70123F7E70223F5E70323F3E717
:1022C0000323F1E70323EFE7F0B589B0002403947B
:1022D00004940594069407940094214B1A6B42F0E1
:1022E00004021A631A6B02F004020092009A01942D
:1022F0001A6B42F001021A631A6B02F0010201929A
:10230000019A02941A6B42F002021A631B6B03F0EB
:1023100002030293029B134D224620212846FEF71A
:10232000F9FC4FF400530393049405940E4F03A952
:102330003846FEF711FCFF2303930494012605960B
:1023400003A93846FEF708FC20230393049605945E
:10235000069403A92846FEF7FFFB09B0F0BD00BFB5
:1023600000380240000002400008024008B5002288
:1023700011460520FEF792F90520FEF7C3F908BDC6
:1023800000B583B002A941F8040D4FF6FF73012296
:102390000348FFF729FF019803B05DF804FB00BF75
:1023A000A000002008B5024800F08CFC08BD00BF6A
:1023B000503B000800B583B000230193184A116B0D
:1023C00041F480011163126B02F480020192019AC0
:1023D0001448154A02604360802282604FF4007204
:1023E000C2604FF48062026143618361C361036232
:1023F0000422426203228262C3620363FEF758FA38
:1024000050B9002211463920FEF748F93920FEF76D
:1024100079F903B05DF804FBFFF7C4FFF1E700BFF3
:1024200000380240E00000201064024008B50B486C
:102430000B4B03600B4B436000238360C36003615D
:102440000C22426183614FF40043C361FFF79DFE9C
:1024500000B908BDFFF7A6FFFBE700BFA000002002
:102460000044004040420F0000B58FB000230A93A3
:102470000B930C930D930893099301930293039389
:10248000049305930693079322484FF0804202601D
:102490000122426083600922C26003618361FFF709
:1024A00003FB40BB0EA94FF4805341F8103D19487F
:1024B000FFF7DEFB10BB1748FFF70FFB08BB10232D
:1024C00008930023099308A91248FFF76FFCD8B9B5
:1024D00070230193042302930022039205930DEBD2
:1024E00003010C48FFF74AFB88B90A4800F032FAAA
:1024F0000FB05DF804FBFFF755FFD3E7FFF752FF7E
:10250000D9E7FFF74FFFDAE7FFF74CFFE0E7FFF708
:1025100049FFEAE74402002008B50D480D4B03606F
:1025200000234360202282608022C26003614361F5
:10253000836103624FF4803242628362C362036349
:10254000FEF704F900B908BDFFF72CFFFBE700BF59
:10255000F40100200000055008B50E480E4B036042
:102560000E4B436000238360C3604FF480420261DE
:1025700043618361C3610362FEF7A0FC30B9084880
:1025800000F02CFB0348FEF799FC08BDFFF70AFF9B
:10259000F5E700BF4001002000580040A086010080
:1025A000583B000800B595B03422002107A800F080
:1025B0000DFB00230293039304930593069300936A
:1025C000204A116C41F080511164126C02F080526B
:1025D0000092009A01931C490A6822F4404242F496
:1025E00080420A600A6802F440420192019A022283
:1025F000079201210A9110210B910D920E9308234D
:102600000F935A23109311921292139207A8FEF778
:102610002FFF80B90F23029302210391002304931B
:102620004FF480530593069302A8FEF7BDFD28B929
:1026300015B05DF804FBFFF7B5FEEBE7FFF7B2FE60
:10264000F6E700BF003802400070004030B583B0AC
:10265000FDF7D2FFFFF7A6FFFFF736FEFFF7AAFE52
:10266000FFF7E4FEFFF700FFFFF756FFFFF774FFE9
:10267000FFF77CFE62B6234C2046FFF79EF900214F
:102680002046FFF773FB204800F01CFB1F4C23681B
:1026900019681F4B1A6889B21E4800F09FFA1E4D38
:1026A00094F83C10284600F099FA94F83C1041F058
:1026B000010184F83C10284600F090FA236859691B
:1026C000164800F08BFA2268136843F480631360A5
:1026D000FDF7B8FF019064230093012312224321E8
:1026E0002046FEF7BBFC3220FDF7B2FFFDF7AAFF44
:1026F0000190642300930123122243210348FEF733
:10270000ADFCF0E744020020683B000840010020D7
:10271000005800406C3B0008883B0008983B0008CC
:1027200082B0002100910B4B5A6C42F480425A64F3
:102730005A6C02F480420092009A01911A6C42F0A5
:1027400080521A641B6C03F080530193019B02B00A
:10275000704700BF003802402DE9F0418AB00023E5
:102760000593069307930893099302683A4B9A429C
:1027700002D00AB0BDE8F081044600250195374B30
:102780005A6B42F001025A635A6B02F00102019245
:10279000019A02951A6B42F001021A631A6B02F059
:1027A00001020292029A03951A6B42F004021A6324
:1027B0001A6B02F004020392039A04951A6B42F01A
:1027C00002021A631B6B03F002030493049B4FF491
:1027D000CA6305934FF00208CDF8188003270897C5
:1027E0000D26099605A91E48FEF7B6F94FF4306389
:1027F0000593CDF8188007950897099605A91948FB
:10280000FEF7AAF94FF470730593CDF81880079579
:102810000897099605A91448FEF79EF91348144B2A
:1028200003604FF0007343608560C5604FF48063C0
:1028300003614FF4805343614FF480438361C5616A
:1028400005624562FEF734F818B9084BA3649C632F
:102850008FE7FFF7A7FDF8E70000055000380240BA
:1028600000000240000802400004024094010020E1
:10287000286402402DE9F04389B0002303930493B8
:102880000593069307930268234B9A4202D009B03E
:10289000BDE8F08300250095204C236B43F0020334
:1028A0002363236B03F002030093009B0195236BCA
:1028B00043F004032363236B03F004030193019BA0
:1028C0004FF4806303934FF01209CDF810904FF04E
:1028D0000108CDF81480032706970426079603A95C
:1028E0000F48FEF739F94FF480530393CDF8109059
:1028F000CDF814800697079603A90A48FEF72CF92D
:102900000295236C43F480032364236C03F4800357
:102910000293029BBBE700BF005800400038024012
:1029200000040240000802400368B3F1804F00D069
:10293000704782B000230193054B1A6C42F00102EC
:102940001A641B6C03F001030193019B02B07047F2
:102950000038024000B587B000230193029303932F
:10296000049305930368B3F1804F02D007B05DF87C
:1029700004FB002300930B4B1A6B42F001021A6315
:102980001B6B03F001030093009B012301930222C0
:10299000029203220492059301A90348FEF7DCF892
:1029A000E4E700BF003802400000024000B589B0F3
:1029B0000023039304930593069307930268164B31
:1029C0009A4202D009B05DF804FB0021019103F5A1
:1029D000FA331A6C42F400321A641A6C02F40032B0
:1029E0000192019A02911A6B42F001021A631B6B69
:1029F00003F001030293029B0C230393022304932D
:102A000001230593032306930723079303A9034890
:102A1000FEF7A2F8D6E700BF0044004000000240E5
:102A20007047FEE7FEE7FEE7FEE770477047704736
:102A300008B5FDF7FBFD08BD7047000008B502486A
:102A4000FDF79CFF08BD00BF9401002070B50D4646
:102A50001646002404E0AFF30080287001340135ED
:102A6000B442F8DB304670BD70B51646002405E070
:102A70004D1C0878FFF784FC01342946B442F7DB8B
:102A8000304670BD08B503460B4A126842B10A4A87
:102A9000106803446A46934206D8074A136008BD8B
:102AA000054A06491160F2E700F066F80C2303605E
:102AB0004FF0FF30F3E700BF8C00002088020020B9
:102AC0004FF0FF3070474FF400534B6000207047C9
:102AD00001207047002070470F49D1F8883043F437
:102AE0007003C1F888300D4B1A6842F001021A6079
:102AF000002098601A6822F0847222F480321A60F2
:102B0000074A5A601A6822F480221A60D8604FF08F
:102B100000638B60704700BF00ED00E000380240AA
:102B200010300024DFF834D0002103E00C4B5B5858
:102B3000435004310B480C4B42189A42F6D30B4ACF
:102B400002E0002342F8043B094B9A42F9D3FFF715
:102B5000C3FF00F017F8FFF779FD7047000002206F
:102B6000543C00080000002070000020700000208D
:102B700088020020FEE70000014B1868704700BF84
:102B80000C00002070B50D4E0D4CA41BA4100025A8
:102B9000A54209D10B4E0C4C00F068FFA41BA410F9
:102BA0000025A54205D170BD56F82530984701355E
:102BB000EEE756F8253098470135F2E74C3C00081F
:102BC0004C3C00084C3C0008503C000802440346C2
:102BD000934200D1704703F8011BF9E70FB40A4B89
:102BE00013B51C6824B1A36913B9204600F022FA7A
:102BF00005AB049AA1680193204600F0DBFB02B00C
:102C0000BDE8104004B070470C00002070B50E46BF
:102C1000054618B183690BB900F00CFAAB69AC68D2
:102C200013B9284600F006FA234B9C4217D16C6872
:102C3000A3891B071DD52369DBB1013EA36816F8E4
:102C4000011F013BA360E9B9002B2EDA22460A21BD
:102C5000284600F03FF8013011D00A2011E0174B50
:102C60009C4201D1AC68E3E7154B9C4208BFEC687D
:102C7000DEE72146284600F07FF80028DDD04FF03F
:102C8000FF3070BD002B04DAA2699A4206DC0A29E3
:102C900004D023685A1C22601970CFE722462846C8
:102CA00000F018F80130C9D1E9E723680A205A1C5E
:102CB00022601870E5E700BFD03B0008F03B000839
:102CC000B03B0008024B01461868FFF79FBF00BFEA
:102CD0000C000020F8B50E461446054618B183696D
:102CE0000BB900F0A7F9214B9C422AD16C68A3696B
:102CF000A360A3891A072ED5236963B323692068CB
:102D0000C01A6369F6B28342374604DC214628467E
:102D100000F026F928BBA368013BA36023685A1C76
:102D200022601E7063690130834204D0A389DB07EF
:102D300019D50A2E17D12146284600F011F990B175
:102D40000FE00B4B9C4201D1AC68D0E7094B9C4291
:102D500008BFEC68CBE72146284600F00DF80028B4
:102D6000CCD04FF0FF373846F8BD00BFD03B00084D
:102D7000F03B0008B03B0008324B70B51D680646BA
:102D80000C4625B1AB6913B9284600F053F92E4B18
:102D90009C420FD16C68B4F90C309AB215072CD450
:102DA000D00611D40922326043F04003A3814FF0D2
:102DB000FF303EE0254B9C4201D1AC68EBE7244B51
:102DC0009C4208BFEC68E6E7510712D5616B41B140
:102DD00004F14403994202D0304600F019FA00236E
:102DE0006363A38923F02403A38100236360236921
:102DF0002360A38943F00803A38123694BB9A38906
:102E000003F42073B3F5007F03D02146304600F071
:102E1000BFF9A28912F001030CD00023A3606369FB
:102E20005B42A361236953B9B4F90C3013F08000FD
:102E3000BAD170BD920758BF6369A360F2E7002062
:102E4000F7E700BF0C000020D03B0008F03B000873
:102E5000B03B00088A892DE9F041054610070C4671
:102E600058D44B68002B05DC0B6C002B02DC0020D7
:102E7000BDE8F081E66A002EF9D0002312F48052FA
:102E80002F68216A2B6032D0606DA3895A0705D55F
:102E90006368C01A636B0BB1236CC01A002302462F
:102EA000E66A216A2846B047431CA38906D12968EF
:102EB0001D2948D8294ACA40D60744D50022626055
:102EC000D9042269226004D5421C01D12B6803B9C0
:102ED0006065616B2F600029C9D004F144039942F9
:102EE00002D0284600F094F900206063C0E7012377
:102EF0002846B047411CC8D12B68002BC5D01D2BDC
:102F000001D0162B01D12F60B1E7A38943F0400314
:102F1000A381ADE70F69002FA9D093070E6808BF02
:102F20004B690F6018BF0023A6EB07088B60B8F150
:102F3000000F9CDD43463A46216AA66A2846B04700
:102F4000002806DCA38943F04003A3814FF0FF3043
:102F50008EE70744A8EB0008E9E700BF0100402026
:102F600038B50B6905460C46DBB118B183690BB95E
:102F700000F060F80C4B9C4209D16C68B4F90C303D
:102F80007BB121462846BDE83840FFF763BF074BB9
:102F90009C4201D1AC68F1E7054B9C4208BFEC684C
:102FA000ECE7002038BD00BFD03B0008F03B000834
:102FB000B03B0008002310B50446C0E9003383602D
:102FC00081814366C281C0E90433836119460822C6
:102FD0005C30FFF7FBFD054B6362054BA362054BBD
:102FE000E362054B2462236310BD00BF1139000862
:102FF000333900086B3900088F390008014900F0A7
:1030000085B800BF612F000870B54A1E682555437A
:103010000E4605F1740100F049F9044640B1002163
:10302000C0E900160C30A06005F16802FFF7CEFD84
:10303000204670BD836910B5044633BBC0E9123326
:103040000365124B124A1B688262984204BF012337
:10305000836100F01FF86060204600F01BF8A0605C
:10306000204600F017F80022E06004216068FFF7B6
:10307000A1FF01220921A068FFF79CFF0222122173
:10308000E068FFF797FF0123A36110BDAC3B000888
:10309000FD2F0008F8B51B4B1E68B369074613B92E
:1030A0003046FFF7C7FF4836D6E90134013B03D568
:1030B000336833B13668F7E7B4F90C506DB1683452
:1030C000F4E704213846FFF79FFF30600028F1D174
:1030D0000C233B6004462046F8BD0B4B6566C4E9F3
:1030E0000055A560C4E90335C4E905550822294601
:1030F00004F15C00FFF76AFDC4E90D55C4E91255FF
:10310000E9E700BFAC3B00080100FFFF2DE9F843F1
:103110008046894600F14804002614B93046BDE8CF
:10312000F883D4E90175013F01D52468F5E7AB893F
:10313000012B07D9B5F90E30013303D0294640469B
:10314000C84706436835EEE770B50E46B1F90E1074
:10315000002996B014461D4607DA00232B60B38978
:103160001A0610D44FF480630EE06A4600F036FC75
:103170000028F2DB019A02F47042A2F500535A4291
:103180005A412A60EEE740230020236016B070BD4C
:103190008B8973B59D0706460C4607D504F1470396
:1031A000236023610123636102B070BD01AB6A46F5
:1031B000FFF7CAFF00990546304600F077F848B996
:1031C000B4F90C309A05EFD423F0030343F0020363
:1031D000A381E3E70D4BB362A389206043F0800332
:1031E000A381009B6361019B20615BB1B4F90E1068
:1031F000304600F005FC28B1A38923F0030343F017
:103200000103A381A3891D43A581CDE7FD2F0008FC
:1032100038B50546002945D051F8043C0C1F002B59
:10322000B8BFE41800F00EFC1F4A1368104633B90B
:10323000636014602846BDE8384000F004BCA34237
:103240000CD921686218934204BF1A685B686360F6
:1032500004BF521822600460ECE713465A680AB1B2
:10326000A242FAD919685818A0420BD1206801442B
:10327000581882421960DDD1106852685A600144C2
:103280001960D7E702D90C232B60D3E720682118F7
:103290008A4204BF11685268626004BF0918216045
:1032A0005C60C7E738BD00BF9400002070B5CD1C3E
:1032B00025F0030508350C2D38BF0C25002D0646DA
:1032C00001DBA94203D90C233360002070BD00F05C
:1032D000B9FB214A1468214691B9204C23681BB9D7
:1032E000304600F005FB20602946304600F000FB28
:1032F000431C24D10C233360304600F0A4FBE4E7E8
:103300000B685B1B18D40B2B0FD90B60CD50CC185E
:10331000304600F098FB04F10B00231D20F007005D
:10332000C31AD3D05A42E250D0E78C424B6816BF42
:10333000636013600C46EBE70C464968CCE7C41C9D
:1033400024F00304A04205D0211A304600F0D0FA40
:103350000130CFD02560DBE79400002098000020EA
:103360009368013B002B10B4936008DA9469A34280
:1033700001DB0A2903D15DF8044BFFF7ABBC1368EE
:10338000581C1060197008465DF8044B7047F8B57A
:1033900006460F461446D518AC4201D1002007E07E
:1033A0003A4614F8011B3046FFF7DAFF431CF3D10D
:1033B000F8BD00002DE9F04F0C469DB017461D46A4
:1033C000064618B183690BB9FFF734FE7C4B9C426B
:1033D00058D17468A38918075ED52369002B5BD088
:1033E0000023099320238DF8293030238DF82A30CB
:1033F00003954FF0010BB846454615F8013B0BB15C
:10340000252B54D1B8EB070A0BD053463A46214638
:103410003046FFF7BCFF013000F0C280099B5344E7
:10342000099398F80030002B00F0BA8000234FF089
:10343000FF32CDE90523049307938DF853301A9397
:10344000A846052218F8011B5E48FDF761F8049BA9
:1034500078BBD90644BF20228DF853201A0744BFF9
:103460002B228DF853202A782A2A2AD0079AA84698
:1034700000200A25414611F8013B303B092B69D950
:1034800060B324E0504B9C4201D1B468A2E74F4B9B
:103490009C4208BFF4689DE721463046FFF76CFC6C
:1034A00000289DD04FF0FF301DB0BDE8F08FA8463A
:1034B000A2E7444A801A0BFA00F0184304904546EC
:1034C000BEE7039A111D12680391002A01DB0792DF
:1034D00004E0524243F002030792049398F800304C
:1034E0002E2B0ED198F801302A2B38D1039B1A1DB0
:1034F0001B680392002BB8BF4FF0FF3308F102089E
:103500000593334D98F8001003222846FDF700F884
:1035100040B14023401B03FA00F0049B034308F131
:103520000108049398F800102A488DF82810062204
:1035300008F10107FCF7ECFF002837D0264B1BBB36
:10354000039B073323F0070308330393099B4B4482
:10355000099350E705FB0232012088468AE70023E1
:1035600008F10108059319460A25404610F8012B79
:10357000303A092A03D9002BC3D00591C1E705FBD6
:10358000012101238046F0E703AB00932246134B51
:1035900004A93046AFF30080B0F1FF3F8146D5D19A
:1035A000A3895B063FF57EAF09987DE703AB0093E7
:1035B00022460A4B04A9304600F088F8ECE700BF29
:1035C000D03B0008103C0008F03B0008B03B00086E
:1035D000163C00081A3C0008000000008F33000869
:1035E0002DE9F04791461F468A680B69DDF8208077
:1035F0009342B8BF1346C9F8003091F843200646FD
:103600000C4612B10133C9F800302368990642BF55
:10361000D9F800300233C9F80030256815F00605E6
:1036200007D104F1190AE368D9F800209B1AAB42CC
:1036300028DC94F843302268003318BF0123920637
:103640002DD404F1430239463046C047013020D022
:103650002368E568D9F8002003F00603042B08BFAF
:10366000AD1AA36822690CBF25EAE57500259342CF
:10367000C4BF9B1AED184FF000091A344D451AD1FA
:10368000002008E00123524639463046C047013049
:1036900003D14FF0FF30BDE8F0870135C3E7E118F3
:1036A0005A1C302081F84300224494F8451082F8D7
:1036B00043100233C5E70123224639463046C0474E
:1036C0000130E6D009F10109D8E700002DE9F04307
:1036D00001F1430C0C46097E85B06E29174606465B
:1036E00098460C9A00F0B38022D8632936D00AD8C5
:1036F000002900F0B980582900F0838004F14205C8
:1037000084F8421032E0642901D06929F6D120689A
:103710001368050603F104012AD51B681160002B0C
:1037200003DA2D225B4284F843206F480A2239E0F5
:10373000732900F09D8008D86F2920D07029DDD131
:10374000236843F02003236003E0752917D078290C
:10375000D4D1782384F84530644855E01368191DA6
:103760001B68116004F1420584F8423001238CE0AB
:103770001B68116010F0400F18BF1BB2CFE7136831
:103780002568181D1060280601D51B6802E0680630
:10379000FBD51B8854486F2914BF0A220822002138
:1037A00084F843106568A560002DC0F295802168FB
:1037B00021F004012160002B3DD1002D40F08E80CE
:1037C0006546082A0BD12368DB0708D523696268A0
:1037D0009A42DEBF302305F8013C05F1FF35ACEB22
:1037E00005032361CDF800803B4603AA21463046FD
:1037F000FFF7F6FE01304DD14FF0FF3005B0BDE8C8
:10380000F083394884F84510136821681D1D1B6832
:1038100015600A060BD5CA0744BF41F0200121609C
:103820001BB9226822F0200222601022B7E74D0661
:1038300048BF9BB2EFE76546B3FBF2F102FB1133E1
:10384000C35C05F8013D0B460029F5D1B9E71368C3
:1038500025686169181D106028061B6801D519606C
:1038600002E06A06FBD51980002323616546B9E7AB
:103870001368191D11601D68626800212846FCF755
:1038800047FE08B1401B606063682361002384F831
:103890004330A7E723692A4639463046C0470130FE
:1038A000AAD023689B0713D4E068039B9842B8BF53
:1038B0001846A3E701234A4639463046C04701303F
:1038C0009AD00135E368039A9B1AAB42F2DCEBE72E
:1038D000002504F11909F5E7002BACD1037884F831
:1038E000423004F142056CE7213C0008323C0008FC
:1038F00038B5064C0023054608462360FFF7C2F89A
:10390000431C02D1236803B12B6038BD8402002020
:1039100010B50C46B1F90E1000F096F80028ABBFB8
:10392000636DA3891B1823F48053ACBF6365A38127
:1039300010BD2DE9F0411F468B89DB0505460C467D
:10394000164605D502230022B1F90E1000F068F8E2
:10395000A389B4F90E1023F48053A38132463B4669
:103960002846BDE8F04100F017B810B50C46B1F993
:103970000E1000F055F8431CA38915BF606523F4B1
:10398000805343F48053A38118BFA38110BDB1F9C4
:103990000E1000F013B8000038B5074C0546084675
:1039A0001146002222601A46FFF75EF8431C02D13E
:1039B000236803B12B6038BD8402002038B5064C63
:1039C0000023054608462360FFF77AF8431C02D11E
:1039D000236803B12B6038BD8402002038B5074C42
:1039E00000230546084611462360FFF76CF8431C88
:1039F00002D1236803B12B6038BD00BF84020020D0
:103A000038B5064C0023054608462360FFF760F8EA
:103A1000431C02D1236803B12B6038BD840200200F
:103A200038B5074C054608461146002222601A4662
:103A3000FFF750F8431C02D1236803B12B6038BD57
:103A4000840200207047704738B5074C0546084689
:103A50001146002222601A46FEF7F8FF431C02D1ED
:103A6000236803B12B6038BD84020020F8B500BF85
:103A7000F8BC08BC9E467047F8B500BFF8BC08BC4F
:043A80009E467047A7
:103A840000061016000610160000000000000000DA
:103A940001020304060708090000000001020304F0
:103AA40068656C6F0D0A000042555A5A5A79200D08
:103AB4000A0000006C6F636B200D0A006E6F7420A7
:103AC400656E61626C6564200D0A000073656E6446
:103AD40020736C6176652074696D656F7574200D53
:103AE4000A0000004D656D20726561642041444404
:103AF4005220666C61672074696D6F7574200D0ABD
:103B040000000000726561645F6C6F636B200D0AD6
:103B1400000000006D656D2072656164206572723D
:103B2400200D0A002564200D0A00000043414D20A9
:103B340053544F500D0000005245472057524954EA
:103B44004520444F4E4521200D0000004552524F60
:103B540052210D0049324320696E697420737461E7
:103B6400727400000D0A0D00693263207365747568
:103B7400702030782558203D3D3D20307825780D43
:103B84000A0000006C6F636B3A2030782578200DB2
:103B94000A000000534220666C61673A20307825A1
:103BA40078200D0A00000000100000200000000032
:103BB4000000000000000000000000000000000001
:103BC40000000000000000000000000000000000F1
:103BD40000000000000000000000000000000000E1
:103BE40000000000000000000000000000000000D1
:103BF40000000000000000000000000000000000C1
:103C0400000000000000000000000000232D302B05
:103C14002000686C4C0065666745464700303132C9
:103C24003334353637383941424344454600303120
:103C3400323334353637383961626364656600007F
:083C4400FCC5FF7F0100000038
:043C4C00F501000876
:043C5000D101000896
:103C540001000000100000000024F4001000002007
:103C640000000000D03B0008F03B0008B03B000817
:103C74000000000000000000000000000000000040
:103C84000000000000000000000000000000000030
:103C94000000000000000000000000000000000020
:103CA4000000000000000000000000000000000010
:103CB4000000000000000000000000000000000000
:0400000508002B259F
:00000001FF
