:020000040800F2
:1000000000000220BD2D0008852C0008872C000868
:10001000892C00088B2C00088D2C000800000000A3
:100020000000000000000000000000008F2C00080D
:10003000912C000800000000932C0008952C00086B
:100040000D2E00080D2E00080D2E00080D2E0008A4
:100050000D2E00080D2E00080D2E00080D2E000894
:100060000D2E00080D2E00080D2E00080D2E000884
:100070000D2E00080D2E00080D2E00080D2E000874
:100080000D2E00080D2E00080D2E00080D2E000864
:100090000D2E00080D2E00080D2E00080D2E000854
:1000A0000D2E00080D2E00080D2E00080D2E000844
:1000B0000D2E00080D2E00080D2E00080D2E000834
:1000C0000D2E00080D2E00080D2E00080D2E000824
:1000D0000D2E00080D2E00080D2E00080D2E000814
:1000E0000D2E00080D2E00080D2E00080D2E000804
:1000F0000D2E00080D2E00080D2E00080D2E0008F4
:100100000D2E00080D2E00080D2E00080D2E0008E3
:100110000D2E00080D2E00080D2E00080D2E0008D3
:100120000D2E00080D2E00080D2E00080D2E0008C3
:100130000D2E000800000000000000000D2E000839
:100140000D2E00080D2E00080D2E00080D2E0008A3
:100150000D2E00080D2E00080D2E00080D2E000893
:100160000D2E00080D2E00080D2E00080D2E000883
:100170000D2E00080D2E00089D2C00080000000028
:10018000000000000D2E000800000000000000002C
:100190000D2E000800000000000000000D2E0008D9
:1001A0000000000000000000000000000D2E00080C
:1001B0000D2E00080D2E00080D2E00080D2E000833
:0401C0000D2E0008F8
:1001D00010B5054C237833B9044B13B10448AFF381
:1001E00000800123237010BD70000020000000007B
:1001F000043D000808B5034B1BB103490348AFF3A6
:10020000008008BD0000000074000020043D0008CC
:1002100053B94AB9002908BF00281CBF4FF0FF316D
:100220004FF0FF3000F072B9ADF1080C6DE904CE6B
:1002300000F006F8DDF804E0DDE9022304B07047C1
:100240002DE9F047089E04468846002B4BD18A4290
:10025000154667D9B2FA82F24AB1C2F1200701FA13
:1002600002F320FA07F7954047EA030894404FEA63
:10027000154E230CB8FBFEF71FFA85FC0EFB178802
:1002800043EA084307FB0CF1994209D9EB1807F13F
:10029000FF3080F01B81994240F21881023F2B44CD
:1002A0005B1AA4B2B3FBFEF00EFB103344EA034426
:1002B00000FB0CFCA44509D92C1900F1FF3380F098
:1002C0000781A44540F2048102382C4440EA0740EB
:1002D000A4EB0C0400271EB1D4400023C6E9004360
:1002E0003946BDE8F0878B4209D9002E00F0EB803B
:1002F0000027C6E9000138463946BDE8F087B3FA61
:1003000083F7002F47D18B4202D3824200F2FA805A
:10031000841A61EB030301209846002EE0D0C6E961
:100320000048DDE702B9FFDEB2FA82F2002A40F0AF
:100330008F80491B4FEA154E1FFA85F80127B1FB44
:10034000FEFC230C0EFB1C1143EA014308FB0CF1DD
:10035000994207D9EB180CF1FF3002D2994200F212
:10036000CD808446591AA3B2B1FBFEF00EFB1014E7
:1003700043EA044408FB00F8A04507D92C1900F112
:10038000FF3302D2A04500F2B6801846A4EB080461
:1003900040EA0C409FE7C7F1200CBB4022FA0CFE5C
:1003A0004EEA030E01FA07F420FA0CF521FA0CF3D9
:1003B0004FEA1E482543B3FBF8F92C0C08FB193310
:1003C0001FFA8EFA44EA034309FB0AF49C4202FA3C
:1003D00007F200FA07F10BD91EEB030309F1FF3016
:1003E00080F087809C4240F28480A9F10209734426
:1003F0001B1BADB2B3FBF8F008FB103345EA034416
:1004000000FB0AFAA24508D91EEB040400F1FF33F1
:100410006BD2A24569D90238744440EA0940A0FB76
:100420000289A4EB0A044C45C2464B4654D351D032
:10043000002E69D0B1EB0A0564EB030404FA0CFC4E
:10044000FD40FC404CEA0505C6E90054002747E79B
:10045000C2F1200320FA03F7954001FA02F021FAD5
:1004600003F34FEA154E3843010CB3FBFEF71FFAB6
:1004700085F80EFB173341EA034107FB08F38B4273
:1004800004FA02F407D9691807F1FF3C2FD28B4216
:100490002DD9023F2944CB1A81B2B3FBFEF00EFBEB
:1004A000103341EA034100FB08F38B4207D9691876
:1004B00000F1FF3C17D28B4215D902382944C91AE2
:1004C00040EA07473BE73746304609E70746E7E695
:1004D0001846FBE64145ABD2B8EB020A69EB0E02C7
:1004E00001381346A4E76046E9E7184695E76746F2
:1004F000D1E781467CE702382C4447E7ACF1020C97
:100500002B442FE7384608E73746E9E6704700BF37
:1005100001F0FF01102A2BDB10F0070F08D010F8B4
:10052000013B013A8B422DD010F0070F42B3F6D1B8
:10053000F0B441EA012141EA014122F007047FF0D1
:1005400000070023F0E80256083C85EA010586EA28
:10055000010685FA47F5A3FA87F586FA47F6A5FA64
:1005600087F68EB9EED1F0BC01F0FF0102F0070270
:1005700032B110F8013B013A83EA010313B1F8D11B
:100580000020704701387047002D06BF35460338FC
:10059000073815F0010F07D1013015F4807F02BF35
:1005A000013015F4C03F0130F0BC0138704700BF86
:1005B00010B504460E4B18784FF47A73B3FBF0F382
:1005C0000C4A1068B0FBF3F000F0AAF868B90F2CE1
:1005D00001D901200AE0002221464FF0FF3000F04F
:1005E0005DF8034B5C60002000E0012010BD00BFFF
:1005F000000000200800002008B50B4B1A6842F4E8
:1006000000721A601A6842F480621A601A6842F432
:1006100080721A60032000F02FF80020FFF7C8FF57
:1006200002F0CCF9002008BD003C0240034A1168EA
:10063000034B1B780B441360704700BF9C000020E5
:1006400000000020014B1868704700BF9C0000208C
:1006500038B50446FFF7F6FF0546B4F1FF3F02D078
:10066000044B1B781C44FFF7EDFF401BA042FAD35C
:1006700038BD00BF00000020074AD36823F4E063C0
:100680001B041B0C000200F4E060184340F0BF6044
:1006900040F40030D060704700ED00E030B4174BFC
:1006A000DB68C3F30223C3F10704042C28BF04242E
:1006B0001D1D062D18D9033B4FF0FF3505FA04F434
:1006C00021EA0401994005FA03F322EA03031943DE
:1006D00000280BDB0901C9B200F1604000F5614060
:1006E00080F8001330BC70470023E5E700F00F00EE
:1006F0000901C9B2024B1954F4E700BF00ED00E054
:1007000014ED00E0002807DB00F01F024009012380
:100710009340024A42F82030704700BF00E100E0F9
:100720000138B0F1807F0AD2064B5860064AF021AA
:1007300082F823100020986007221A607047012079
:10074000704700BF10E000E000ED00E0704708B522
:10075000806B836C5B6D022B02D0012380F83530F7
:10076000FFF7F4FF08BD70477047704738B504467F
:1007700003681D6915F0040F1DD115F0020F29D172
:1007800015F0100F37D115F0080F3BD115F0010F00
:1007900010D023681A6812F0020F03D0DA6822F032
:1007A0001E02DA602268D36823F00103D36020467A
:1007B000FFF7DBFF38BD04225A61C36C43F002032C
:1007C000C36480F83520836C124A1A65806C00F08F
:1007D0006FF8D2E7236802225A61E36C43F0010309
:1007E000E364042384F83530A36C0A4A1A65A06CCC
:1007F00000F05EF8C4E7236810225A612046FFF734
:10080000B2FFC0E7236808225A612046FFF7ACFF19
:10081000BCE700BF4F070008002844D010B50446CD
:1008200090F83530002B2ED0022384F83530226822
:1008300011681E4B0B401360226811686368606981
:100840000343E068034320690343A0680343A069AE
:100850000343206A0343606A0343A06A0343E06AD8
:100860000343206B03430B4313606368102B0DD0CD
:100870002268D36843F01E03D3600020E0640123A4
:1008800084F8353010BD02F0B5F8CDE7237F627FE4
:1008900043EA0223A27F43EA0243E17F226843EA5C
:1008A00001639361E4E70120704700BF07F0E0FFB8
:1008B00090F83530DBB2022B03D080234365012052
:1008C0007047052380F835300268136823F0010370
:1008D000136000207047000000230F2B00F2D1802E
:1008E000F0B482B039E0062200E00022B2403A4380
:1008F0000234644E46F82420634A1468EA4302EA4C
:1009000004064F6817F4803F01D045EA04065E4CA8
:100910002660646802EA04064F6817F4003F01D0BD
:1009200045EA0406584C6660A46802EA04064F686B
:1009300017F4801F01D045EA0406534CA660E46812
:1009400022404E6816F4001F01D045EA04024E4CC6
:10095000E26001330F2B00F2918001229A400C6873
:1009600004EA0205AA42F4D14C68022C01D0122CF0
:1009700010D1DE08083650F826C003F00704A7009F
:100980000F24BC402CEA040C0C69BC4044EA0C0463
:1009900040F8264004685F000326BE40F64306EA9E
:1009A000040C4C6804F00304BC4044EA0C040460EA
:1009B0004C6804F1FF3CBCF1010F03D9112C01D0AC
:1009C000122C10D1846806EA040CCC68BC4044EABE
:1009D0000C048460446824EA02024C68C4F30014E6
:1009E0009C4014434460C26816408A68BA4032434F
:1009F000C2604A6812F0805FABD000220192234AA5
:100A0000546C44F480445464526C02F48042019269
:100A1000019A9C08A61C1B4A52F8267003F0030298
:100A200096000F22B24027EA0207194A90423FF48B
:100A30005CAF02F58062904216D002F5806290426F
:100A400014D002F58062904212D002F5806290428A
:100A500010D002F5806290420ED002F58062904282
:100A60003FF441AF072241E701223FE702223DE781
:100A700003223BE7042239E7052237E702B0F0BC46
:100A80007047704700380140003C01400038024088
:100A90000000024012B9090481617047816170470A
:100AA00003685A6912F4806F11D06FF480625A6142
:100AB00000230363202280F83D2080F83E30026C42
:100AC00042F00402026480F83C30012070470020AC
:100AD0007047F8B506460C4617461D4622E0FFF75C
:100AE000B1FD069BC01AA84200D8DDB900233363CC
:100AF000202286F83D2086F83E30326C42F02002FB
:100B0000326486F83C3001201AE033685B6924EADD
:100B100003039BB2B3FA83F35B099F420FD1B5F194
:100B2000FF3FDCD1C4F30743012BEED033689B6950
:100B300024EA03039BB2B3FA83F35B09EDE70020D9
:100B4000F8BDF8B504460D4616461F463CE01A6847
:100B500042F400721A6023686FF480625A610023C5
:100B60002363202284F83D2084F83E30226C42F03A
:100B70000402226484F83C30012033E0FFF762FD78
:100B8000C01BB04200D8FEB900232363202284F8A2
:100B90003D2084F83E30226C42F02002226484F82A
:100BA0003C3001201EE023685B6925EA03039BB209
:100BB000003318BF0123A3B123685A6912F4806F70
:100BC000C5D1B6F1FF3FD9D1C5F30743012BEAD018
:100BD00023689B6925EA03039BB2003318BF0123F6
:100BE000E9E70020F8BD70B504460D4616462368B7
:100BF0005B6913F0800F1CD12046FFF751FFD0B97D
:100C0000B5F1FF3FF3D0FFF71DFD801BA84201D8CF
:100C1000002DECD100232363202284F83D2084F8AA
:100C20003E30226C42F02002226484F83C300120E5
:100C300000E0002070BD0120FCE700002DE9F0413C
:100C400084B00446884616461F460B9D026813680A
:100C500043F48073136000950A9B00224FF001114A
:100C6000FFF737FF20B10123184604B0BDE8F0813B
:100C7000226808F0FE0313612B460A9A2049204699
:100C8000FFF75FFF08B10123EEE70023039323681A
:100C90005A6903929B690393039B2A460A9920464B
:100CA000FFF7A1FF034658B1236C042B01D00123A9
:100CB000DAE72268136843F4007313600123D3E773
:100CC000012F0ED02368320A1A612A460A9920465B
:100CD000FFF789FF034678B1236C042B05D001236D
:100CE000C2E72268F6B21661BEE72268136843F4D1
:100CF000007313600123B7E72268F6B21661B3E709
:100D0000020001002DE9F04184B004460E4617466A
:100D100098460B9D0268136843F480631360026871
:100D2000136843F48073136000950A9B00224FF010
:100D30000111FFF7CEFE20B10123184604B0BDE833
:100D4000F081F6B2236806F0FE021A612B460A9A79
:100D500038492046FFF7F5FE08B10123EDE70023EF
:100D6000039323685A6903929B690393039B2A4662
:100D70000A992046FFF737FF58B1236C042B01D0A6
:100D80000123DAE72268136843F400731360012338
:100D9000D3E7B8F1010F0DD12368FFB21F612A46D6
:100DA0000A992046FFF71FFF20B3236C042B1AD0AB
:100DB0000123C2E723683A0A1A612A460A992046A3
:100DC000FFF711FF58B1236C042B01D00123B4E7C6
:100DD0002268136843F4007313600123ADE72368AE
:100DE000FFB21F61DBE72268136843F400731360EE
:100DF0000123A2E72268136843F48073136000950F
:100E00000A9B00224FF001112046FFF762FE08B155
:100E1000012392E7236846F001061E612B460A9AD9
:100E200004492046FFF78DFE0346002885D00123A4
:100E300083E700BF0200010070B504460D46164668
:100E400023685B6913F0040F1CD12046FFF728FECE
:100E5000D0B9B5F1FF3FF3D0FFF7F4FB801BA842F8
:100E600001D8002DECD100232363202284F83D20FB
:100E700084F83E30226C42F02002226484F83C3038
:100E8000012000E0002070BD0120FCE770B50546A0
:100E90000C4616462B685A6912F0400F29D15A6940
:100EA00012F0100F15D1FFF7CDFB801BA04201D827
:100EB000002CEFD100232B63202285F83D2085F8FC
:100EC0003E302A6C42F020022A6485F83C30012032
:100ED00070BD6FF010025A6100232B63202285F849
:100EE0003D2085F83E302A6C2A6485F83C3001208C
:100EF000EEE70020ECE70000002800F0BE80F8B527
:100F0000044690F83D30002B6BD0242384F83D300C
:100F10002268136823F00103136000F08BFB626802
:100F2000584B9A4262D8584B98428CBF00230123F9
:100F3000002B40F0A480554BA3FB00239B0C2168A1
:100F40004A6822F03F021A434A6025682A6A22F062
:100F50003F0266684B498E424ED8013313432B62E1
:100F60002568E96921F44F4121F0FF016368454A92
:100F700093424BD801385B00B0FBF3F30133C3F36A
:100F80000B03042B38BF04230B43EB6121680B6870
:100F900023F0C003E269206A024313430B60216817
:100FA0008B6823F4034323F0FF032269E0680243C4
:100FB00013438B602168CB6823F0FF036269A0694B
:100FC00002431343CB602268136843F001031360AC
:100FD00000202064202384F83D30206384F83E0004
:100FE000F8BD80F83C3001F079FD8EE7284B98423F
:100FF0008CBF002301239BE74FF4967101FB03F3A1
:101000002449A1FB03139B090133A7E7A268BAB9DE
:10101000461E03EB4307B6FBF7F60136C6F30B0695
:10102000B6FA86F6760936BBC2B9013803EB43033C
:10103000B0FBF3F30133C3F30B0242F40043A3E725
:10104000461E03EB830707EB8707B6FBF7F601366F
:10105000C6F30B06B6FA86F67609E4E7013803EB29
:10106000830303EB8303B0FBF3F20132C2F30B0201
:1010700042F4404388E7012386E7012070470120BE
:10108000AEE700BFA08601007F841E0083DE1B4305
:10109000FF083D00D34D62102DE9F04182B00446B7
:1010A0000E4617469846FFF7CDFA94F83D30DBB26E
:1010B000202B04D00223184602B0BDE8F08105467B
:1010C0000090192301224C492046FFF702FD002819
:1010D00040F08B8094F83C30012B00F08880012395
:1010E00084F83C3023681A6812F0010F03D11A68A3
:1010F00042F001021A602268136823F4006313604F
:10110000212384F83D30402384F83E3000232364BB
:10111000089B6362BDF824306385638D2385374B5C
:10112000E36201950A9B009343463A4631462046C6
:10113000FFF784FD00285CD1238D002B34D02A4694
:101140000A992046FFF74FFD10BB626A23681278A8
:101150001A61616A4B1C6362238D013B9BB223853C
:10116000628D013A92B262852268506910F0040FD4
:10117000E2D0002BE0D04B781361636A01336362E5
:10118000238D013B2385638D013B9BB26385D3E7B0
:10119000236C042B01D001238DE72268136843F4EC
:1011A00000731360012386E72A460A992046FFF759
:1011B00043FE034658B1236C042B01D001237AE788
:1011C0002268136843F400731360012373E72168F6
:1011D0000A6842F400720A60202284F83D2000224E
:1011E00084F83E2084F83C2065E7022363E702236D
:1011F00061E701235FE700BF020010000000FFFF6E
:101200002DE9F04186B004460E4617469846FFF792
:1012100019FA94F83D30DBB2202B04D00226304678
:1012200006B0BDE8F08105460090192301229E49D1
:101230002046FFF74EFC002840F0348194F83C3003
:10124000012B00F03781012384F83C3023681A68B1
:1012500012F0010F03D11A6842F001021A602268ED
:10126000136823F400631360222384F83D30402385
:1012700084F83E30002323640C9B6362BDF8343055
:101280006385638D2385894BE36201950E9B0093F3
:1012900043463A4631462046FFF734FD06460028CD
:1012A00040F00A81238D5BB9029323685A69029248
:1012B0009A690292029A1A6842F400721A6072E005
:1012C000012B0AD0022B1AD00023059323685A69F8
:1012D00005929B690593059B65E02268136823F4DA
:1012E000806313600023039323685A6903929A6909
:1012F0000392039A1A6842F400721A6053E022685B
:10130000136823F4806313602268136843F4006356
:1013100013600023049323685A6904929B69049321
:10132000049B40E02A460E992046FFF7AFFD0028B7
:1013300040F0C48023681A69636A1A70636A0133D3
:101340006362238D013B2385638D013B9BB26385E3
:1013500029E000950E9B002255492046FFF7B9FB76
:10136000002840F0AD802268136843F400731360D6
:1013700023681A69636A1A70626A531C6362238D58
:10138000013B2385638D013B9BB2638523681B6909
:101390005370636A01336362238D013B2385638D40
:1013A000013B9BB26385238D002B72D0032B49D860
:1013B000012BB7D0022BCCD000950E9B00223C49CC
:1013C0002046FFF786FB00287CD12268136823F4AF
:1013D0008063136023681A69636A1A70636A013351
:1013E0006362238D013B2385638D013B9BB2638543
:1013F00000950E9B00222E492046FFF76AFB00282D
:1014000062D12268136843F40073136023681A6979
:10141000636A1A70626A531C6362238D013B2385E1
:10142000638D013B9BB2638523681B695370636ABC
:1014300001336362238D013B2385638D013B9BB2A6
:101440006385B0E72A460E992046FFF71FFD002866
:101450003CD123681A69636A1A70626A531C63621A
:10146000238D013B2385638D013B9BB263852368FC
:10147000596911F0040F96D01B695370636A0133E8
:101480006362238D013B2385638D013B9BB26385A2
:1014900089E7202384F83D30002384F83E3084F827
:1014A0003C30BCE60226BAE6020010000000FFFF56
:1014B000040001000226B2E60126B0E60126AEE6EF
:1014C0000126ACE60126AAE60126A8E60126A6E644
:1014D000002800F09D8070B504464F4B1B6803F058
:1014E0000F038B4209D2CBB24B4A1370136803F03F
:1014F0000F038B4201D0012070BD236813F0020F4F
:1015000017D013F0040F04D0444A936843F4E05317
:101510009360236813F0080F04D0404A936843F4A3
:10152000604393603D4A936823F0F003A06803434F
:1015300093600D46236813F0010F32D06368012BCE
:1015400021D09A1E012A25D9344A126812F0020FBE
:1015500060D032498A6822F0030213438B60FFF7A0
:1015600071F806462D4B9B6803F00C036268B3EBE1
:10157000820F16D0FFF766F8801B41F2883398423D
:10158000F0D90320B8E7254A126812F4003FE0D1F1
:101590000120B1E7214A126812F0007FD9D1012061
:1015A000AAE71D4B1B6803F00F03AB4209D9EAB24F
:1015B000194B1A701B6803F00F03AB4201D00120D6
:1015C0009AE7236813F0040F06D0144A936823F4B3
:1015D000E053E1680B439360236813F0080F07D0D2
:1015E0000E4A936823F46043216943EAC103936080
:1015F00000F040F8094B9B68C3F30313084AD35C1F
:10160000D840084B18600020FEF7D2FF002073E797
:101610000120704701206FE7003C02400038024083
:10162000A83E000808000020014B1868704700BF62
:101630000800002008B5FFF7F7FF044B9B68C3F3D1
:101640008223034AD35CD84008BD00BF0038024063
:10165000B83E000808B5FFF7E7FF044B9B68C3F3EB
:101660004233034AD35CD84008BD00BF0038024073
:10167000B83E00082DE9F04B444B9B6803F00C0387
:10168000082B06D00C2B42D0042B7CD04048BDE860
:10169000F08B3E4B5A6802F03F025B6813F4800FF8
:1016A00012D03A4B5968C1F3881100233948A1FB85
:1016B0000001FEF7ADFD354B5B68C3F30143013319
:1016C0005B00B0FBF3F0E2E7304B5B68C3F38813D9
:1016D0001E4600275C010025E41A65EB0705A901F9
:1016E00041EA9461A001001B61EB0501CB0043EAD4
:1016F0005073C400A01943EB07018B0243EA9053D7
:101700008402204619460023FEF782FDD3E71F4BD3
:101710005A6802F03F025B6813F4800F10D01B4B35
:101720005968C1F3881100231A48A1FB0001FEF794
:101730006FFD164B5B68C3F30273B0FBF3F0A6E7D3
:10174000124B5B68C3F388131E4600275C0100251B
:10175000E41A65EB0705A90141EA9461A001001BA9
:1017600061EB0501CB0043EA5073C400A01943EBC1
:1017700007018B0243EA9053840220461946002356
:10178000FEF746FDD5E7034881E700BF0038024079
:101790000024F40040787D0170B582B004460368EF
:1017A00013F0010F41D0A64B9B6803F00C03042BF0
:1017B00032D0A34B9B6803F00C03082B27D0A04B1F
:1017C0009B6803F00C030C2B59D06368B3F5803F82
:1017D0005BD0B3F5A02F5ED0994B1A6822F480320B
:1017E0001A601A6822F480221A606368002B5CD0A9
:1017F000FEF728FF0546924B1B6813F4003F14D1F7
:10180000FEF720FF401B6428F5D903209DE18C4B97
:101810005B6813F4800FD2D0894B1B6813F4003F30
:1018200003D06368002B00F08D81236813F0020F52
:1018300067D0834B9B6813F00C0F4AD0804B9B689A
:1018400003F00C03082B3FD07D4B9B6803F00C0387
:101850000C2B48D0E368002B74D07A4B01221A601D
:10186000FEF7F0FE0546764B1B6813F0020F60D1C1
:10187000FEF7E8FE401B0228F5D9032065E1704B16
:101880005B6813F4800FA0D0C6E76D4A136843F479
:1018900080331360A9E76A4B1A6842F480221A6009
:1018A0001A6842F480321A609FE7FEF7CBFE0546C5
:1018B000634B1B6813F4003FB7D0FEF7C3FE401B19
:1018C0006428F5D9032040E15D4B5B6813F4800F79
:1018D000BAD15B4B1B6813F0020F0AD0E368012BEF
:1018E00007D0012031E1564B5B6813F4800FB1D172
:1018F000EFE7534A136823F0F803216943EAC10371
:101900001360236813F0080F40D0636963B34E4B34
:1019100001221A60FEF796FE0546494B5B6F13F0F5
:10192000020F33D1FEF78EFE401B0228F5D90320AB
:101930000BE1434A136823F0F803216943EAC1032A
:101940001360DEE73F4B00221A60FEF77BFE054680
:101950003B4B1B6813F0020FD3D0FEF773FE401B06
:101960000228F5D90320F0E0374B00221A60FEF779
:1019700069FE0546324B5B6F13F0020F06D0FEF78F
:1019800061FE401B0228F5D90320DEE0236813F036
:10199000040F79D02A4B1B6C13F0805F33D10023E6
:1019A0000193274B1A6C42F080521A641B6C03F0AF
:1019B00080530193019B0125244B1B6813F4807F06
:1019C00023D0A368012B34D0052B41D01C4B1A6FB8
:1019D00022F001021A671A6F22F004021A67A36844
:1019E000002B3FD0FEF72EFE0646154B1B6F13F063
:1019F000020F48D1FEF726FE801B41F28833984241
:101A0000F3D90320A1E00025D6E7104A136843F478
:101A100080731360FEF716FE06460C4B1B6813F42A
:101A2000807FCED1FEF70EFE801B0228F5D9032061
:101A30008BE0034A136F43F001031367CFE700BF46
:101A40000038024000004742800E474200700040CC
:101A5000404B1A6F42F004021A671A6F42F00102FB
:101A60001A67BCE7FEF7EEFD06463A4B1B6F13F014
:101A7000020F08D0FEF7E6FD801B41F28833984242
:101A8000F3D9032061E0E5B9A369002B5CD0314AAA
:101A9000926802F00C02082A59D0022B17D02E4B64
:101AA00000221A60FEF7CEFD04462A4B1B6813F095
:101AB000007F45D0FEF7C6FD001B0228F5D90320A4
:101AC00043E0244A136C23F080531364DCE7224B79
:101AD00000221A60FEF7B6FD05461E4B1B6813F088
:101AE000007F06D0FEF7AEFD401B0228F5D903208B
:101AF0002BE0E369226A1343626A43EA8213A26A13
:101B00005208013A43EA0243E26A43EA0263226B63
:101B100043EA02730F4A53600F4B01221A60FEF72B
:101B200091FD04460B4B1B6813F0007F06D1FEF7B6
:101B300089FD001B0228F5D9032006E0002004E0FF
:101B4000002002E0012000E0002002B070BD012072
:101B5000FBE700BF003802406000474230B4036A30
:101B600023F001030362056A4268846924F0730468
:101B70000B681C4325F002058B682B43104DA842CF
:101B800003D005F58065A84205D123F00803CD6890
:101B90002B4323F004030A4DA84203D005F58065CA
:101BA000A84205D122F440724D6915438A692A433F
:101BB000426084614A684263036230BC704700BF80
:101BC0000000014030B4036A23F480730362036AA7
:101BD0004268C46924F073040D682C4323F4007335
:101BE0008D6843EA0523124DA84203D005F58065B0
:101BF000A84206D123F40063CD6843EA052323F409
:101C000080630B4DA84203D005F58065A84207D13B
:101C100022F440524D6942EA05128D6942EA0512EA
:101C20004260C4614A68C263036230BC704700BF4F
:101C30000000014030B4036A23F480530362036A56
:101C40004468C26922F4E6420D6842EA052223F4A0
:101C500000538D6843EA0533094DA84203D005F5CA
:101C60008065A84204D124F480444D6944EA851477
:101C70004460C2614A680264036230BC704700BFBE
:101C80000000014010B4036A046A24F001040462F5
:101C9000846924F0F00444EA021223F00A030B439F
:101CA000826103625DF8044B704710B4036A23F04D
:101CB000100303628469036A24F4704444EA023224
:101CC00023F0A00343EA0113826103625DF8044B31
:101CD0007047836823F07003194341F00701816066
:101CE0007047022380F83D300268936803F00703D1
:101CF000062B03D0136843F001031360012380F81F
:101D00003D300020704770470368304A904212D03F
:101D1000B0F1804F0FD0A2F57C4290420BD002F57B
:101D20008062904207D002F58062904203D002F5B3
:101D30007842904203D123F070034A681343234A48
:101D400090422AD0B0F1804F27D0A2F57C42904239
:101D500023D002F5806290421FD002F5806290424B
:101D60001BD002F57842904217D002F57052904293
:101D700013D002F5806290420FD002F5806290424B
:101D80000BD0A2F59832904207D002F580629042C3
:101D900003D002F58062904203D123F44073CA68F5
:101DA000134323F080034A69134303608B68C362C3
:101DB0000B688362054B984203D003F58063984219
:101DC00001D10B69036301234361704700000140A7
:101DD000A8B110B5044690F83D305BB1022384F8F9
:101DE0003D30211D2068FFF78FFF012384F83D302F
:101DF000002010BD80F83C3000F0CAFEEEE7012064
:101E00007047A8B110B5044690F83D305BB102238D
:101E100084F83D30211D2068FFF776FF012384F808
:101E20003D30002010BD80F83C30FFF76CFFEEE73E
:101E30000120704730B4036A23F010030362036A81
:101E40004468826922F4E6420D6842EA052223F0E2
:101E500020038D6843EA0513114DA84203D005F510
:101E60008065A84206D123F08003CD6843EA0513BC
:101E700023F040030A4DA84203D005F58065A8422F
:101E800007D124F440644D6944EA85048D6944EA2D
:101E90008504446082614A688263036230BC704793
:101EA0000000014038B590F83C30012B66D00D465B
:101EB0000446012380F83C30022380F83D300C2A90
:101EC0001AD8DFE802F0071919192019191934195D
:101ED000191947000068FFF741FE2268936943F033
:101EE000080393612268936923F0040393612268D5
:101EF000936929690B439361012384F83D300020E5
:101F000084F83C0038BD0068FFF794FF22689369AD
:101F100043F4006393612268936923F480639361BF
:101F200022689369296943EA01239361E4E7006821
:101F3000FFF748FE2268D36943F00803D3612268A3
:101F4000D36923F00403D3612268D36929690B4361
:101F5000D361D1E70068FFF76DFE2268D36943F4CF
:101F60000063D3612268D36923F48063D36122685C
:101F7000D369296943EA0123D361BDE70220C1E7A0
:101F800010B4846824F47F4442EA03230B432343C0
:101F900083605DF8044B704790F83C30012B66D0AD
:101FA00010B50446012380F83C30022380F83D3010
:101FB0000268936823F47F4323F0770393600B68F0
:101FC000402B4AD013D9602B3DD01ED9702B28D07E
:101FD000B3F5005F30D1CB684A6889680068FFF7C5
:101FE000CFFF2268936843F48043936024E0102B72
:101FF00006D004D9202B03D0302B01D01CE0DBB954
:1020000019462068FFF765FE16E0502B14D1CA6808
:1020100049680068FFF736FE50212068FFF759FE37
:102020000AE0CB684A6889680068FFF7A9FF226860
:10203000936843F077039360012384F83D300020D8
:1020400084F83C0010BDCA6849680068FFF72DFE9F
:1020500060212068FFF73DFEEEE7CA684968006826
:10206000FFF710FE40212068FFF733FEE4E702206F
:10207000704710B401F01F01012303FA01F4036A51
:1020800023EA04030362036A8A40134303625DF890
:10209000044B704710B5044601220068FFF7E9FFC2
:1020A00023680B4A934203D002F58062934203D126
:1020B0005A6C42F400425A642268936803F00703A2
:1020C000062B03D0136843F001031360002010BDFA
:1020D0000000014090F83C30012B1CD070B4012668
:1020E00080F83C60022380F83D30026855689368B0
:1020F00025F070050C682C4323F080054B682B43BA
:1021000054600268936080F83D60002380F83C30A2
:10211000184670BC70470220704700002DE9F84354
:1021200004460268136923F44053C1680B431361EA
:1021300083680269134342691343C2691A43016801
:10214000CB6823F4164323F00C031343CB600268DF
:10215000536923F4407381690B435361C369B3F539
:10216000004F60D00368B84A934200F0148102F532
:102170008062934200F00F81FFF75CFA00EB800071
:1021800000EB80006568AD00B0FBF5F5AF4FA7FB35
:1021900005356D092E01FFF74DFA00EB800000EBCD
:1021A00080006568AD00B0FBF5F9FFF743FA00EB7E
:1021B000800000EB80006568AD00B0FBF5F5A7FB83
:1021C00005356D094FF0640808FB15952D01323572
:1021D000A7FB05356D0905F0F0053544FFF72AFA30
:1021E00000EB800000EB80006668B600B0FBF6F6FE
:1021F000FFF720FA00EB800000EB800063689B0093
:10220000B0FBF3F0A7FB0030400908FB10684FEA71
:10221000081808F13208A7FB0837C7F343172368EB
:102220002F449F600DE10368874A93425BD002F51B
:102230008062934257D0FFF7FDF900EB800000EB7E
:10224000800065686D00B0FBF5F5804FA7FB053594
:102250006D092E01FFF7EEF900EB800000EB800026
:1022600065686D00B0FBF5F9FFF7E4F900EB80005D
:1022700000EB800065686D00B0FBF5F5A7FB053548
:102280006D094FF0640808FB1595ED003235A7FB8A
:1022900005356D096D0005F4F8753544FFF7CAF989
:1022A00000EB800000EB800066687600B0FBF6F67D
:1022B000FFF7C0F900EB800000EB800063685B0073
:1022C000B0FBF3F3A7FB03235B0908FB13684FEA9A
:1022D000C80808F13208A7FB0837C7F3421723687C
:1022E0002F449F60ADE0FFF7B5F900EB800000EBF5
:1022F000800065686D00B0FBF5F5544FA7FB053510
:102300006D092E01FFF7A6F900EB800000EB8000BD
:1023100065686D00B0FBF5F9FFF79CF900EB8000F4
:1023200000EB800065686D00B0FBF5F5A7FB053597
:102330006D094FF0640808FB1595ED003235A7FBD9
:1023400005356D096D0005F4F8753544FFF782F920
:1023500000EB800000EB800066687600B0FBF6F6CC
:10236000FFF778F900EB800000EB800063685B000A
:10237000B0FBF3F3A7FB03235B0908FB13684FEAE9
:10238000C80808F13208A7FB0837C7F342172368CB
:102390002F449F6055E0FFF75DF900EB800000EBF4
:1023A00080006568AD00B0FBF5F5284FA7FB05354B
:1023B0006D092E01FFF74EF900EB800000EB800065
:1023C0006568AD00B0FBF5F9FFF744F900EB80005C
:1023D00000EB80006568AD00B0FBF5F5A7FB0535A7
:1023E0006D094FF0640808FB15952D013235A7FBE8
:1023F00005356D0905F0F0053544FFF72BF900EBC5
:10240000800000EB80006668B600B0FBF6F6FFF7D0
:1024100021F900EB800000EB800063689B00B0FBBB
:10242000F3F0A7FB0030400908FB10684FEA0818DA
:1024300008F13208A7FB0837C7F3431723682F4476
:102440009F60BDE8F88300BF001001401F85EB517D
:102450002DE9F04105460F4616469846069C2B6826
:102460001B6837EA03030CBF01230023B3421DD1CD
:10247000B4F1FF3FF3D02CB1FEF7E4F8A0EB080075
:10248000A042ECD92A68D36823F4D073D3602A68B9
:10249000536923F001035361202385F8393085F80F
:1024A0003A30002385F83830032000E00020BDE8F2
:1024B000F08158B310B5044690F839300BB324239B
:1024C00084F839302268D36823F40053D36020465F
:1024D000FFF724FE2268136923F4904313612268F6
:1024E000536923F02A0353612268D36843F40053ED
:1024F000D3600020E063202384F8393084F83A3038
:1025000010BD80F8383000F083FBD8E70120704719
:102510002DE9F04182B01E4690F83930DBB2202B15
:1025200055D104460D469046002955D0002A55D075
:1025300090F83830012B53D0012380F83830002335
:10254000C363212380F83930FEF77CF80746A4F8EE
:102550002480A4F8268010E000963B4600228021CB
:102560002046FFF775FF00283CD12B882268C3F373
:10257000080353602369C3B90235E38C9BB2B3B13E
:10258000E38C013B9BB2E384A368B3F5805FE3D0A7
:1025900000963B46002280212046FFF759FF18BBDA
:1025A0002A7823685A600135E7E70135E5E70096A8
:1025B0003B46002240212046FFF74AFF0346A8B9C8
:1025C000202284F83920002284F8382000E00223F9
:1025D000184602B0BDE8F0810123F9E70123F7E7CF
:1025E0000223F5E70323F3E70323F1E70323EFE7F0
:1025F00030B589B00024039404940594069407949C
:102600000094184B1A6B42F001021A631A6B02F025
:1026100001020092009A01941A6B42F002021A63BE
:102620001A6B02F002020192019A02941A6B42F0B4
:1026300004021A631B6B03F004030293029B0A4D0E
:10264000224620212846FEF725FA20230393012362
:1026500004930594069403A92846FEF73DF909B0B2
:1026600030BD00BF00380240000002402DE9F041BB
:1026700084B0002522E0144B13F815706A00013273
:102680001344124E4FF06408CDF8088001240194E1
:10269000009323463A4642213046FEF7FDFC204691
:1026A000FDF7D6FFCDF808800194094B009323462F
:1026B0003A4642213046FEF7A3FD2544C52DDADD1A
:1026C00004B0BDE8F08100BF1C3D0008A40000205C
:1026D0004801002000B583B002A941F8040D4FF66F
:1026E000FF7301220348FFF713FF019803B05DF861
:1026F00004FB00BF8C01002008B5024800F0BAFBC3
:1027000008BD00BFC03E000808B50B480B4B036076
:102710000B4B436000238360C3604FF4804202612F
:1027200043618361C3610362FEF7E6FB00B908BD44
:10273000FFF7E2FFFBE700BFA400002000580040C5
:10274000A086010008B50A480A4B03600A4B4360A3
:1027500000238360C36003610C2242618361C36113
:10276000FFF7A7FE00B908BDFFF7C6FFFBE700BFF4
:102770008C0100200044004040420F0000B58FB0A3
:102780002B4800F077FB00230A930B930C930D93D7
:10279000089309930193029303930493059306937B
:1027A000079324484FF08042026009224260836010
:1027B0000122C26003618361FFF70AFB40BB0EA9DF
:1027C0004FF4805341F8103D1A48FFF7E5FB10BB6A
:1027D0001848FFF716FB08BB00230893099308A9C4
:1027E0001448FFF777FCE0B97023019301230293AB
:1027F00000220392042305930DEB03010D48FFF71C
:1028000051FB88B90B4800F0D9F90FB05DF804FB13
:10281000FFF772FFD3E7FFF76FFFD9E7FFF76CFF12
:10282000DAE7FFF769FFDFE7FFF766FFEAE700BFD8
:10283000C83E00084C01002008B50B480B4B036054
:10284000002343608360C36003614361836103626B
:1028500043628362C3620363FDF7DEFF00B908BD14
:10286000FFF74AFFFBE700BFF8000020000005501B
:1028700000B595B03422002107A800F0F3FA002338
:10288000029303930493059306930093204A116CDB
:1028900041F080511164126C02F080520092009A53
:1028A00001931C490A6822F4404242F480420A60C3
:1028B0000A6802F440420192019A02220792012121
:1028C0000A9110210B910D920E9308230F935A2316
:1028D000109311921292139207A8FEF75DFF80B930
:1028E0000F23029302210391002304934FF480529B
:1028F0000592069302A8FEF7EBFD28B915B05DF826
:1029000004FBFFF7F9FEEBE7FFF7F6FEF6E700BF83
:10291000003802400070004008B5FDF76DFEFFF77B
:10292000A7FFFFF765FEFFF7EFFEFFF70BFFFFF7CF
:1029300025FFFFF781FF194C2046FFF7D2F9002150
:102940002046FFF7A7FBFFF791FE154C2168154DB8
:10295000284600F08FFA236843F0010323602368C0
:1029600043F480432360104B1A68D36823F01703A5
:10297000D3602168284600F07DFA61680B4800F0BA
:1029800079FAE1680A4800F075FA2169094800F00F
:1029900071FAA168084800F06DFAFEE74C010020CA
:1029A00000000550D43E0008F8000020E83E000872
:1029B000FC3E0008143F00082C3F000882B00021B4
:1029C00000910B4B5A6C42F480425A645A6C02F4E8
:1029D00080420092009A01911A6C42F080521A646F
:1029E0001B6C03F080530193019B02B0704700BF42
:1029F00000380240F0B58BB000230593069307938F
:102A00000893099302682F4B9A4201D00BB0F0BD96
:102A10002D4800F0A3FA002401942C4B5A6B42F08D
:102A200001025A635A6B02F001020192019A029468
:102A30001A6B42F001021A631A6B02F00102029251
:102A4000029A03941A6B42F004021A631A6B02F0A2
:102A500004020392039A04941A6B42F002021A636E
:102A60001B6B03F002030493049B5023059302277E
:102A700006970794032608960D25099505A914487D
:102A8000FDF72AFF4FF43C630593069707940896D9
:102A9000099505A90F48FDF71FFF4FF470730593C3
:102AA000069707940896099505A90B48FDF714FFAA
:102AB000224621464E20FDF7F1FD4E20FDF722FE75
:102AC000A4E700BF00000550443F00080038024062
:102AD0000000024000080240000402402DE9F043DB
:102AE00089B0002303930493059306930793026828
:102AF000234B9A4202D009B0BDE8F083002500952F
:102B0000204C236B43F002032363236B03F0020387
:102B10000093009B0195236B43F004032363236B15
:102B200003F004030193019B4FF4806303934FF080
:102B30001209CDF810904FF00108CDF8148003274A
:102B400006970426079603A90F48FDF7C5FE4FF424
:102B500080530393CDF81090CDF814800697079614
:102B600003A90A48FDF7B8FE0295236C43F48003DD
:102B70002364236C03F480030293029BBBE700BF32
:102B800000580040003802400004024000080240A3
:102B90000368B3F1804F00D0704782B000230193E7
:102BA000054B1A6C42F001021A641B6C03F001031E
:102BB0000193019B02B070470038024000B587B016
:102BC0000023019302930393049305930368B3F1E5
:102BD000804F02D007B05DF804FB002300930A4B3E
:102BE0001A6B42F001021A631B6B03F0010300939E
:102BF000009B0123019302220292059301A903483D
:102C0000FDF76AFEE6E700BF003802400000024020
:102C100000B589B0002303930493059306930793AB
:102C20000268164B9A4202D009B05DF804FB0021FD
:102C3000019103F5FA331A6C42F400321A641A6CEB
:102C400002F400320192019A02911A6B42F00102E1
:102C50001A631B6B03F001030293029B0C23039383
:102C60000223049301230593032306930723079369
:102C700003A90348FDF730FED6E700BF004400403B
:102C8000000002407047FEE7FEE7FEE7FEE7704700
:102C90007047704708B5FDF7C9FC08BD70B50E4C0C
:102CA000A168626823690D4D284600F0E3F80C4ED8
:102CB00033681F225A61A16862682369284600F0C0
:102CC000D9F83046FDF752FDA168626823692846AD
:102CD00000F0D0F870BD00BF00000550583F00085C
:102CE000F800002070B50D461646002404E0AFF34E
:102CF0000080287001340135B442F8DB304670BDE5
:102D000070B51646002405E04D1C0878FFF7E2FC7C
:102D100001342946B442F7DB304670BD08B503469E
:102D20000B4A126842B10A4A106803446A46934249
:102D300006D8074A136008BD054A06491160F2E744
:102D400000F066F80C2303604FF0FF30F3E700BF9C
:102D50008C000020D00100204FF0FF3070474FF46E
:102D600000534B60002070470120704700207047DF
:102D70000F49D1F8883043F47003C1F888300D4B07
:102D80001A6842F001021A60002098601A6822F066
:102D9000847222F480321A60074A5A601A6822F458
:102DA00080221A60D8604FF000638B60704700BFCC
:102DB00000ED00E00038024010300024DFF834D08D
:102DC000002103E00C4B5B58435004310B480C4B83
:102DD00042189A42F6D30B4A02E0002342F8043B21
:102DE000094B9A42F9D3FFF7C3FF00F017F8FFF73A
:102DF00093FD7047000002201840000800000020EA
:102E00007000002070000020D0010020FEE70000CC
:102E1000014B1868704700BF0C00002070B50D4EC4
:102E20000D4CA41BA4100025A54209D10B4E0C4C3F
:102E300000F068FFA41BA4100025A54205D170BDB9
:102E400056F8253098470135EEE756F82530984773
:102E50000135F2E71040000810400008104000085B
:102E60001440000802440346934200D1704703F81F
:102E7000011BF9E70FB40A4B13B51C6824B1A36911
:102E800013B9204600F022FA05AB049AA168019319
:102E9000204600F0DBFB02B0BDE8104004B07047F4
:102EA0000C00002070B50E46054618B183690BB9B9
:102EB00000F00CFAAB69AC6813B9284600F006FACA
:102EC000234B9C4217D16C68A3891B071DD523692E
:102ED000DBB1013EA36816F8011F013BA360E9B90D
:102EE000002B2EDA22460A21284600F03FF8013056
:102EF00011D00A2011E0174B9C4201D1AC68E3E7E6
:102F0000154B9C4208BFEC68DEE72146284600F0DE
:102F10007FF80028DDD04FF0FF3070BD002B04DAC1
:102F2000A2699A4206DC0A2904D023685A1C22604E
:102F30001970CFE72246284600F018F80130C9D1B1
:102F4000E9E723680A205A1C22601870E5E700BFF1
:102F5000943F0008B43F0008743F0008024B01464C
:102F60001868FFF79FBF00BF0C000020F8B50E46A1
:102F70001446054618B183690BB900F0A7F9214B37
:102F80009C422AD16C68A369A360A3891A072ED535
:102F9000236963B323692068C01A6369F6B2834268
:102FA000374604DC2146284600F026F928BBA368F2
:102FB000013BA36023685A1C22601E7063690130C4
:102FC000834204D0A389DB0719D50A2E17D12146E5
:102FD000284600F011F990B10FE00B4B9C4201D153
:102FE000AC68D0E7094B9C4208BFEC68CBE72146B0
:102FF000284600F00DF80028CCD04FF0FF373846B7
:10300000F8BD00BF943F0008B43F0008743F0008BB
:10301000324B70B51D6806460C4625B1AB6913B935
:10302000284600F053F92E4B9C420FD16C68B4F93E
:103030000C309AB215072CD4D00611D40922326074
:1030400043F04003A3814FF0FF303EE0254B9C420C
:1030500001D1AC68EBE7244B9C4208BFEC68E6E783
:10306000510712D5616B41B104F14403994202D07A
:10307000304600F019FA00236363A38923F0240388
:10308000A3810023636023692360A38943F00803BD
:10309000A38123694BB9A38903F42073B3F5007F9F
:1030A00003D02146304600F0BFF9A28912F0010397
:1030B0000CD00023A36063695B42A361236953B909
:1030C000B4F90C3013F08000BAD170BD920758BF2C
:1030D0006369A360F2E70020F7E700BF0C0000205F
:1030E000943F0008B43F0008743F00088A892DE926
:1030F000F041054610070C4658D44B68002B05DC00
:103100000B6C002B02DC0020BDE8F081E66A002E8B
:10311000F9D0002312F480522F68216A2B6032D03C
:10312000606DA3895A0705D56368C01A636B0BB13C
:10313000236CC01A00230246E66A216A2846B0477B
:10314000431CA38906D129681D2948D8294ACA40A9
:10315000D60744D500226260D9042269226004D5D2
:10316000421C01D12B6803B96065616B2F60002997
:10317000C9D004F14403994202D0284600F094F9E2
:1031800000206063C0E701232846B047411CC8D136
:103190002B68002BC5D01D2B01D0162B01D12F6021
:1031A000B1E7A38943F04003A381ADE70F69002F86
:1031B000A9D093070E6808BF4B690F6018BF0023A2
:1031C000A6EB07088B60B8F1000F9CDD43463A463A
:1031D000216AA66A2846B047002806DCA38943F086
:1031E0004003A3814FF0FF308EE70744A8EB0008AF
:1031F000E9E700BF0100402038B50B6905460C46E1
:10320000DBB118B183690BB900F060F80C4B9C423C
:1032100009D16C68B4F90C307BB121462846BDE871
:103220003840FFF763BF074B9C4201D1AC68F1E720
:10323000054B9C4208BFEC68ECE7002038BD00BF9E
:10324000943F0008B43F0008743F0008002310B505
:103250000446C0E90033836081814366C281C0E9CE
:1032600004338361194608225C30FFF7FBFD054BF0
:103270006362054BA362054BE362054B2462236343
:1032800010BD00BFA93B0008CB3B0008033C000871
:10329000273C0008014900F085B800BFF93100085B
:1032A00070B54A1E682555430E4605F1740100F0BD
:1032B00049F9044640B10021C0E900160C30A06075
:1032C00005F16802FFF7CEFD204670BD836910B599
:1032D000044633BBC0E912330365124B124A1B6824
:1032E0008262984204BF0123836100F01FF860608E
:1032F000204600F01BF8A060204600F017F80022DE
:10330000E06004216068FFF7A1FF01220921A068A5
:10331000FFF79CFF02221221E068FFF797FF0123CD
:10332000A36110BD703F000895320008F8B51B4B33
:103330001E68B369074613B93046FFF7C7FF483622
:10334000D6E90134013B03D5336833B13668F7E77A
:10335000B4F90C506DB16834F4E704213846FFF736
:103360009FFF30600028F1D10C233B6004462046CB
:10337000F8BD0B4B6566C4E90055A560C4E903358B
:10338000C4E905550822294604F15C00FFF76AFDEF
:10339000C4E90D55C4E91255E9E700BF703F0008C4
:1033A0000100FFFF2DE9F8438046894600F14804FB
:1033B000002614B93046BDE8F883D4E90175013F11
:1033C00001D52468F5E7AB89012B07D9B5F90E3093
:1033D000013303D029464046C84706436835EEE727
:1033E00070B50E46B1F90E10002996B014461D4670
:1033F00007DA00232B60B3891A0610D44FF48063D8
:103400000EE06A4600F036FC0028F2DB019A02F476
:103410007042A2F500535A425A412A60EEE7402317
:103420000020236016B070BD8B8973B59D070646DA
:103430000C4607D504F14703236023610123636130
:1034400002B070BD01AB6A46FFF7CAFF009905469E
:10345000304600F077F848B9B4F90C309A05EFD44B
:1034600023F0030343F00203A381E3E70D4BB362B0
:10347000A389206043F08003A381009B6361019BCB
:1034800020615BB1B4F90E10304600F005FC28B1A4
:10349000A38923F0030343F00103A381A3891D4300
:1034A000A581CDE79532000838B50546002945D0FD
:1034B00051F8043C0C1F002BB8BFE41800F00EFCC0
:1034C0001F4A1368104633B9636014602846BDE88C
:1034D000384000F004BCA3420CD921686218934222
:1034E00004BF1A685B68636004BF521822600460FE
:1034F000ECE713465A680AB1A242FAD9196858187B
:10350000A0420BD120680144581882421960DDD1D5
:10351000106852685A6001441960D7E702D90C2339
:103520002B60D3E7206821188A4204BF11685268D3
:10353000626004BF091821605C60C7E738BD00BF46
:103540009400002070B5CD1C25F0030508350C2D26
:1035500038BF0C25002D064601DBA94203D90C23F8
:103560003360002070BD00F0B9FB214A1468214689
:1035700091B9204C23681BB9304600F005FB206050
:103580002946304600F000FB431C24D10C23336055
:10359000304600F0A4FBE4E70B685B1B18D40B2B50
:1035A0000FD90B60CD50CC18304600F098FB04F1D9
:1035B0000B00231D20F00700C31AD3D05A42E2505B
:1035C000D0E78C424B6816BF636013600C46EBE794
:1035D0000C464968CCE7C41C24F00304A04205D083
:1035E000211A304600F0D0FA0130CFD02560DBE759
:1035F00094000020980000209368013B002B10B439
:10360000936008DA9469A34201DB0A2903D15DF8CB
:10361000044BFFF7ABBC1368581C106019700846C8
:103620005DF8044B7047F8B506460F461446D518AA
:10363000AC4201D1002007E03A4614F8011B3046A5
:10364000FFF7DAFF431CF3D1F8BD00002DE9F04F7E
:103650000C469DB017461D46064618B183690BB946
:10366000FFF734FE7C4B9C4258D17468A38918073D
:103670005ED52369002B5BD00023099320238DF8AE
:10368000293030238DF82A3003954FF0010BB846CE
:10369000454615F8013B0BB1252B54D1B8EB070A71
:1036A0000BD053463A4621463046FFF7BCFF013067
:1036B00000F0C280099B5344099398F80030002B16
:1036C00000F0BA8000234FF0FF32CDE905230493C8
:1036D00007938DF853301A93A846052218F8011B5A
:1036E0005E48FCF715FF049B78BBD90644BF202237
:1036F0008DF853201A0744BF2B228DF853202A78C7
:103700002A2A2AD0079AA84600200A25414611F8FD
:10371000013B303B092B69D960B324E0504B9C42FC
:1037200001D1B468A2E74F4B9C4208BFF4689DE703
:1037300021463046FFF76CFC00289DD04FF0FF304B
:103740001DB0BDE8F08FA846A2E7444A801A0BFAE4
:1037500000F0184304904546BEE7039A111D126815
:103760000391002A01DB079204E0524243F0020376
:103770000792049398F800302E2B0ED198F8013060
:103780002A2B38D1039B1A1D1B680392002BB8BF4C
:103790004FF0FF3308F102080593334D98F80010FD
:1037A00003222846FCF7B4FE40B14023401B03FA35
:1037B00000F0049B034308F10108049398F80010FB
:1037C0002A488DF82810062208F10107FCF7A0FE10
:1037D000002837D0264B1BBB039B073323F007037E
:1037E00008330393099B4B44099350E705FB0232CE
:1037F000012088468AE7002308F10108059319464D
:103800000A25404610F8012B303A092A03D9002B2B
:10381000C3D00591C1E705FB012101238046F0E7F4
:1038200003AB00932246134B04A93046AFF300804C
:10383000B0F1FF3F8146D5D1A3895B063FF57EAF4E
:1038400009987DE703AB009322460A4B04A9304652
:1038500000F088F8ECE700BF943F0008D43F000870
:10386000B43F0008743F0008DA3F0008DE3F00085C
:1038700000000000273600082DE9F04791461F465A
:103880008A680B69DDF820809342B8BF1346C9F8F7
:10389000003091F8432006460C4612B10133C9F8B6
:1038A00000302368990642BFD9F800300233C9F8C6
:1038B0000030256815F0060507D104F1190AE36800
:1038C000D9F800209B1AAB4228DC94F843302268D8
:1038D000003318BF012392062DD404F14302394668
:1038E0003046C047013020D02368E568D9F8002071
:1038F00003F00603042B08BFAD1AA36822690CBFAE
:1039000025EAE57500259342C4BF9B1AED184FF0D8
:1039100000091A344D451AD1002008E0012352460F
:1039200039463046C047013003D14FF0FF30BDE883
:10393000F0870135C3E7E1185A1C302081F84300B5
:10394000224494F8451082F843100233C5E701235E
:10395000224639463046C0470130E6D009F1010918
:10396000D8E700002DE9F04301F1430C0C46097E35
:1039700085B06E291746064698460C9A00F0B3802B
:1039800022D8632936D00AD8002900F0B9805829F6
:1039900000F0838004F1420584F8421032E064298B
:1039A00001D06929F6D120681368050603F10401E6
:1039B0002AD51B681160002B03DA2D225B4284F8A4
:1039C00043206F480A2239E0732900F09D8008D80F
:1039D0006F2920D07029DDD1236843F020032360B4
:1039E00003E0752917D07829D4D1782384F845309D
:1039F000644855E01368191D1B68116004F1420505
:103A000084F8423001238CE01B68116010F0400FF5
:103A100018BF1BB2CFE713682568181D1060280671
:103A200001D51B6802E06806FBD51B8854486F2946
:103A300014BF0A220822002184F843106568A5609B
:103A4000002DC0F29580216821F004012160002B37
:103A50003DD1002D40F08E806546082A0BD12368A9
:103A6000DB0708D5236962689A42DEBF302305F878
:103A7000013C05F1FF35ACEB05032361CDF8008077
:103A80003B4603AA21463046FFF7F6FE01304DD1F2
:103A90004FF0FF3005B0BDE8F083394884F8451099
:103AA000136821681D1D1B6815600A060BD5CA071F
:103AB00044BF41F0200121601BB9226822F020029E
:103AC00022601022B7E74D0648BF9BB2EFE765467C
:103AD000B3FBF2F102FB1133C35C05F8013D0B4669
:103AE0000029F5D1B9E7136825686169181D1060D0
:103AF00028061B6801D5196002E06A06FBD519800B
:103B0000002323616546B9E71368191D11601D681C
:103B1000626800212846FCF7FBFC08B1401B60608E
:103B200063682361002384F84330A7E723692A46AA
:103B300039463046C0470130AAD023689B0713D4CA
:103B4000E068039B9842B8BF1846A3E701234A46A2
:103B500039463046C04701309AD00135E368039AB0
:103B60009B1AAB42F2DCEBE7002504F11909F5E7FB
:103B7000002BACD1037884F8423004F142056CE7A5
:103B8000E53F0008F63F000838B5064C002305461F
:103B900008462360FFF7C2F8431C02D1236803B133
:103BA0002B6038BDCC01002010B50C46B1F90E10C9
:103BB00000F096F80028ABBF636DA3891B1823F4AF
:103BC0008053ACBF6365A38110BD2DE9F0411F4652
:103BD0008B89DB0505460C46164605D502230022D7
:103BE000B1F90E1000F068F8A389B4F90E1023F4AF
:103BF0008053A38132463B462846BDE8F04100F0A1
:103C000017B810B50C46B1F90E1000F055F8431C6A
:103C1000A38915BF606523F4805343F48053A381C7
:103C200018BFA38110BDB1F90E1000F013B8000049
:103C300038B5074C054608461146002222601A4650
:103C4000FFF75EF8431C02D1236803B12B6038BD37
:103C5000CC01002038B5064C0023054608462360F9
:103C6000FFF77AF8431C02D1236803B12B6038BDFB
:103C7000CC01002038B5074C002305460846114604
:103C80002360FFF76CF8431C02D1236803B12B605B
:103C900038BD00BFCC01002038B5064C00230546D6
:103CA00008462360FFF760F8431C02D1236803B184
:103CB0002B6038BDCC01002038B5074C05460846BE
:103CC0001146002222601A46FFF750F8431C02D129
:103CD000236803B12B6038BDCC01002070477047CA
:103CE00038B5074C054608461146002222601A46A0
:103CF000FEF7F8FF431C02D1236803B12B6038BDE7
:103D0000CC010020F8B500BFF8BC08BC9E46704747
:0C3D1000F8B500BFF8BC08BC9E46704728
:103D1C0011803A0412001713180132B6193F1A7B9E
:103D2C0003010C003E00703A7135721173F0A2025F
:103D3C0015007A187B047C097D187E387F478056E5
:103D4C0081668274837F8489859A86A987C488DB7F
:103D5C0089EE13E001500268000010000D40144879
:103D6C001507AB082460255026E39F78A068A103B3
:103D7C00A6D8A7D8A8F0A990AA1413E50E610F4BEA
:103D8C0016021E27210222912907330B350B371DF2
:103D9C003871392A3C784D404E2069004E20741001
:103DAC008D4F8E008F0090009100926696009A8045
:103DBC00B084B10CB20EB382B80A431444F045413E
:103DCC004666472A483E598D5A8E5B535C835D4F3D
:103DDC005E0E6C0A6D556E116F9E629063306411AD
:103DEC0065006605941195186A400140024013E77E
:103DFC004F80508051005222535E5480589E41088F
:103E0C003F00750376E14C0077003DC24B09C96059
:103E1C004138563A34113B0AA488960097309820C2
:103E2C0099309A849B299C039D989E3F7804790134
:103E3C00C8F0790FC8007910C87E790AC880790B50
:103E4C00C801790CC80F790DC8207909C88079028E
:103E5C00C8C07903C8407905C83079262D002E00DA
:103E6C0011406B0A2A002B002D002E00CA0092660E
:103E7C0093003B0ACF8C9D989E7FA502AB03150245
:103E8C0012148C000400401014484FB350B351006E
:103E9C00523D53A754E43DC01502FFFF0000000043
:103EAC0000000000010203040607080900000000DE
:103EBC00010203044552524F5221000074696D6592
:103ECC0072207365747570004352206234207768D9
:103EDC00696C653A20253032580D0A005352206225
:103EEC0034207768696C653A20253032580D0A0009
:103EFC00494552206234207768696C653A20253038
:103F0C0032580D0A000000004D49535220623420F3
:103F1C007768696C653A20253032580D0A0000002C
:103F2C0052495352206234207768696C653A2025D7
:103F3C003032580D0A00000064636D6920636C6BAD
:103F4C0020656E61626C6564210D00004154522045
:103F5C0025303258202530325820253032580D0A61
:103F6C000000000010000020000000000000000015
:103F7C000000000000000000000000000000000035
:103F8C000000000000000000000000000000000025
:103F9C000000000000000000000000000000000015
:103FAC000000000000000000000000000000000005
:103FBC0000000000000000000000000000000000F5
:103FCC000000000000000000232D302B2000686C46
:103FDC004C00656667454647003031323334353620
:103FEC003738394142434445460030313233343559
:0C3FFC0036373839616263646566000086
:0840080038C2FF7F0100000037
:04401000F5010008AE
:04401400D1010008CE
:1040180001000000100000000024F400100000203F
:1040280000000000943F0008B43F0008743F0008F7
:104038000000000000000000000000000000000078
:104048000000000000000000000000000000000068
:104058000000000000000000000000000000000058
:104068000000000000000000000000000000000048
:104078000000000000000000000000000000000038
:0400000508002DBD05
:00000001FF
