:020000040800F2
:1000000000000220A52700089D2600089F26000862
:10001000A1260008A3260008A5260008000000006D
:10002000000000000000000000000000A7260008FB
:10003000A926000800000000AB260008AD26000835
:10004000F5270008F5270008F5270008F527000820
:10005000F5270008B5260008F5270008F527000851
:10006000F5270008F5270008F5270008F527000800
:10007000F5270008F5270008F5270008F5270008F0
:10008000F5270008F5270008B9260008F52700081D
:10009000F5270008F5270008F5270008F5270008D0
:1000A000F5270008F5270008F5270008F5270008C0
:1000B000F5270008F5270008F5270008F5270008B0
:1000C000F5270008F5270008F5270008F5270008A0
:1000D000F5270008F5270008F5270008F527000890
:1000E000F5270008F5270008F5270008F527000880
:1000F000F5270008F5270008F5270008F527000870
:10010000F5270008F5270008F5270008F52700085F
:10011000F5270008F5270008F5270008F52700084F
:10012000F5270008F5270008F5270008F52700083F
:10013000F52700080000000000000000F527000877
:10014000F5270008F5270008F5270008F52700081F
:10015000F5270008F5270008F5270008F52700080F
:10016000F5270008F5270008F5270008F5270008FF
:10017000F5270008F5270008F52700080000000013
:1001800000000000C9260008000000000000000078
:10019000F52700080000000000000000F527000817
:1001A000000000000000000000000000F52700082B
:1001B000F5270008F5270008F5270008F5270008AF
:0401C000F527000817
:1001D00010B5054C237833B9044B13B10448AFF381
:1001E00000800123237010BDDC010020000000000E
:1001F000744F000808B5034B1BB103490348AFF324
:10020000008008BD00000000E0010020744F0008DD
:1002100081F0004102E000BF83F0004330B54FEAB7
:1002200041044FEA430594EA050F08BF90EA020F24
:100230001FBF54EA000C55EA020C7FEA645C7FEAB7
:10024000655C00F0E2804FEA5454D4EB5555B8BFDA
:100250006D420CDD2C4480EA020281EA030382EA4B
:10026000000083EA010180EA020281EA0303362DDD
:1002700088BF30BD11F0004F4FEA01314FF4801CB0
:100280004CEA113102D0404261EB410113F0004FC2
:100290004FEA03334CEA133302D0524263EB430379
:1002A00094EA050F00F0A780A4F10104D5F1200E17
:1002B0000DDB02FA0EFC22FA05F2801841F1000172
:1002C00003FA0EF2801843FA05F359410EE0A5F146
:1002D00020050EF1200E012A03FA0EFC28BF4CF077
:1002E000020C43FA05F3C01851EBE37101F000452D
:1002F00007D54FF0000EDCF1000C7EEB00006EEB3A
:100300000101B1F5801F1BD3B1F5001F0CD34908C3
:100310005FEA30004FEA3C0C04F101044FEA44521A
:1003200012F5800F80F09A80BCF1004F08BF5FEAA1
:10033000500C50F1000041EB045141EA050130BD81
:100340005FEA4C0C404141EB010111F4801FA4F124
:100350000104E9D191F0000F04BF01460020B1FA79
:1003600081F308BF2033A3F10B03B3F120020CDAB1
:100370000C3208DD02F1140CC2F10C0201FA0CF08F
:1003800021FA02F10CE002F11402D8BFC2F1200CF4
:1003900001FA02F120FA0CFCDCBF41EA0C019040AA
:1003A000E41AA2BF01EB0451294330BD6FEA0404F3
:1003B0001F3C1CDA0C340EDC04F11404C4F12002DE
:1003C00020FA04F001FA02F340EA030021FA04F3F0
:1003D00045EA030130BDC4F10C04C4F1200220FA47
:1003E00002F001FA04F340EA0300294630BD21FA85
:1003F00004F0294630BD94F0000F83F4801306BF4B
:1004000081F480110134013D4EE77FEA645C18BF3E
:100410007FEA655C29D094EA050F08BF90EA020FD5
:1004200005D054EA000C04BF1946104630BD91EACD
:10043000030F1EBF0021002030BD5FEA545C05D1D0
:100440004000494128BF41F0004130BD14F580040F
:100450003CBF01F5801130BD01F0004545F0FE4183
:1004600041F470014FF0000030BD7FEA645C1ABFB8
:10047000194610467FEA655C1CBF0B46024650EAEF
:10048000013406BF52EA033591EA030F41F400211B
:1004900030BD00BF90F0000F04BF0021704730B5A1
:1004A0004FF4806404F132044FF000054FF0000176
:1004B00050E700BF90F0000F04BF0021704730B537
:1004C0004FF4806404F1320410F0004548BF40420C
:1004D0004FF000013EE700BF42004FEAE2014FEA61
:1004E00031014FEA02701FBF12F07F4393F07F4F3C
:1004F00081F06051704732F07F4208BF704793F03F
:100500007F4F04BF41F40021704730B54FF4607451
:1005100001F0004521F000411CE700BF50EA010254
:1005200008BF704730B54FF000050AE050EA0102FD
:1005300008BF704730B511F0004502D5404261EB6D
:1005400041014FF4806404F132045FEA915C3FF4AE
:10055000D8AE4FF003025FEADC0C18BF03325FEA4B
:10056000DC0C18BF033202EBDC02C2F1200300FAFC
:1005700003FC20FA02F001FA03FE40EA0E0021FA21
:1005800002F11444BDE600BF53B94AB9002908BFBF
:1005900000281CBF4FF0FF314FF0FF3000F072B960
:1005A000ADF1080C6DE904CE00F006F8DDF804E0CA
:1005B000DDE9022304B070472DE9F047089E0446A8
:1005C0008846002B4BD18A42154667D9B2FA82F28F
:1005D0004AB1C2F1200701FA02F320FA07F7954069
:1005E00047EA030894404FEA154E230CB8FBFEF788
:1005F0001FFA85FC0EFB178843EA084307FB0CF142
:10060000994209D9EB1807F1FF3080F01B8199421C
:1006100040F21881023F2B445B1AA4B2B3FBFEF0F8
:100620000EFB103344EA034400FB0CFCA44509D93B
:100630002C1900F1FF3380F00781A44540F20481BA
:1006400002382C4440EA0740A4EB0C0400271EB1FA
:10065000D4400023C6E900433946BDE8F0878B4209
:1006600009D9002E00F0EB800027C6E900013846CA
:100670003946BDE8F087B3FA83F7002F47D18B42A4
:1006800002D3824200F2FA80841A61EB0303012054
:100690009846002EE0D0C6E90048DDE702B9FFDE4B
:1006A000B2FA82F2002A40F08F80491B4FEA154EC1
:1006B0001FFA85F80127B1FBFEFC230C0EFB1C1171
:1006C00043EA014308FB0CF1994207D9EB180CF1FE
:1006D000FF3002D2994200F2CD808446591AA3B26B
:1006E000B1FBFEF00EFB101443EA044408FB00F8D3
:1006F000A04507D92C1900F1FF3302D2A04500F222
:10070000B6801846A4EB080440EA0C409FE7C7F106
:10071000200CBB4022FA0CFE4EEA030E01FA07F44D
:1007200020FA0CF521FA0CF34FEA1E482543B3FBDF
:10073000F8F92C0C08FB19331FFA8EFA44EA03432C
:1007400009FB0AF49C4202FA07F200FA07F10BD9FE
:100750001EEB030309F1FF3080F087809C4240F2DA
:100760008480A9F1020973441B1BADB2B3FBF8F0FE
:1007700008FB103345EA034400FB0AFAA24508D9F6
:100780001EEB040400F1FF336BD2A24569D9023895
:10079000744440EA0940A0FB0289A4EB0A044C45DA
:1007A000C2464B4654D351D0002E69D0B1EB0A0556
:1007B00064EB030404FA0CFCFD40FC404CEA050524
:1007C000C6E90054002747E7C2F1200320FA03F7E7
:1007D000954001FA02F021FA03F34FEA154E38432F
:1007E000010CB3FBFEF71FFA85F80EFB173341EA45
:1007F000034107FB08F38B4204FA02F407D9691896
:1008000007F1FF3C2FD28B422DD9023F2944CB1A4E
:1008100081B2B3FBFEF00EFB103341EA034100FB53
:1008200008F38B4207D9691800F1FF3C17D28B42BD
:1008300015D902382944C91A40EA07473BE7374629
:10084000304609E70746E7E61846FBE64145ABD2E6
:10085000B8EB020A69EB0E0201381346A4E76046C2
:10086000E9E7184695E76746D1E781467CE7023815
:100870002C4447E7ACF1020C2B442FE7384608E73D
:100880003746E9E6704700BF034613F8012B002AFC
:10089000FBD1181A0138704700000000000000006A
:1008A00001F0FF01102A2BDB10F0070F08D010F821
:1008B000013B013A8B422DD010F0070F42B3F6D125
:1008C000F0B441EA012141EA014122F007047FF03E
:1008D00000070023F0E80256083C85EA010586EA95
:1008E000010685FA47F5A3FA87F586FA47F6A5FAD1
:1008F00087F68EB9EED1F0BC01F0FF0102F00702DD
:1009000032B110F8013B013A83EA010313B1F8D187
:100910000020704701387047002D06BF3546033868
:10092000073815F0010F07D1013015F4807F02BFA1
:10093000013015F4C03F0130F0BC0138704700BFF2
:1009400070B54FF0FF0C4CF4E06C1CEA11541DBF65
:100950001CEA135594EA0C0F95EA0C0F00F0DEF830
:100960002C4481EA030621EA4C5123EA4C5350EA15
:10097000013518BF52EA033541F4801143F4801366
:1009800038D0A0FB02CE4FF00005E1FB02E506F0F7
:100990000042E0FB03E54FF00006E1FB03569CF04C
:1009A000000F18BF4EF0010EA4F1FF04B6F5007F52
:1009B00064F5407404D25FEA4E0E6D4146EB0606C4
:1009C00042EAC62141EA55514FEAC52040EA5E504D
:1009D0004FEACE2EB4F1FD0C88BFBCF5E06F1ED8F7
:1009E000BEF1004F08BF5FEA500E50F1000041EB2E
:1009F000045170BD06F0004646EA010140EA0200DB
:100A000081EA0301B4EB5C04C2BFD4EB0C0541EAFC
:100A1000045170BD41F480114FF0000E013C00F311
:100A2000AB8014F1360FDEBF002001F0004170BD35
:100A3000C4F10004203C35DA0C341BDC04F114044E
:100A4000C4F1200500FA05F320FA04F001FA05F2DA
:100A500040EA020001F0004221F0004110EBD370A7
:100A600021FA04F642EB06015EEA430E08BF20EAD3
:100A7000D37070BDC4F10C04C4F1200500FA04F376
:100A800020FA05F001FA04F240EA020001F0004108
:100A900010EBD37041F100015EEA430E08BF20EA7B
:100AA000D37070BDC4F1200500FA05F24EEA020EC3
:100AB00020FA04F301FA05F243EA020321FA04F0F2
:100AC00001F0004121FA04F220EA020000EBD370A9
:100AD0005EEA430E08BF20EAD37070BD94F0000FA9
:100AE0000FD101F00046400041EB010111F4801FDD
:100AF00008BF013CF7D041EA060195F0000F18BF8E
:100B0000704703F00046520043EB030313F4801FC9
:100B100008BF013DF7D043EA0603704794EA0C0F83
:100B20000CEA135518BF95EA0C0F0CD050EA410699
:100B300018BF52EA4306D1D181EA030101F0004116
:100B40004FF0000070BD50EA410606BF104619463E
:100B500052EA430619D094EA0C0F02D150EA01364A
:100B600013D195EA0C0F05D152EA03361CBF10468B
:100B700019460AD181EA030101F0004141F0FE412A
:100B800041F470014FF0000070BD41F0FE4141F4AE
:100B9000780170BD70B54FF0FF0C4CF4E06C1CEAAE
:100BA00011541DBF1CEA135594EA0C0F95EA0C0F63
:100BB00000F0A7F8A4EB050481EA030E52EA03351E
:100BC0004FEA013100F088804FEA03334FF080553F
:100BD00045EA131343EA12634FEA022245EA11156C
:100BE00045EA10654FEA00260EF000419D4208BF1D
:100BF000964244F1FD0404F5407402D25B084FEACA
:100C00003202B61A65EB03055B084FEA32024FF475
:100C100080104FF4002CB6EB020E75EB030E22BFD2
:100C2000B61A754640EA0C005B084FEA3202B6EB92
:100C3000020E75EB030E22BFB61A754640EA5C0041
:100C40005B084FEA3202B6EB020E75EB030E22BFD1
:100C5000B61A754640EA9C005B084FEA3202B6EBD2
:100C6000020E75EB030E22BFB61A754640EADC0091
:100C700055EA060E18D04FEA051545EA16754FEAF3
:100C800006164FEAC30343EA52734FEAC2025FEA11
:100C90001C1CC0D111F4801F0BD141EA00014FF0A0
:100CA00000004FF0004CB6E711F4801F04BF014371
:100CB0000020B4F1FD0C88BFBCF5E06F3FF6AFAE8D
:100CC000B5EB030C04BFB6EB020C5FEA500C50F11D
:100CD000000041EB045170BD0EF0004E4EEA1131A0
:100CE00014EB5C04C2BFD4EB0C0541EA045170BDA7
:100CF00041F480114FF0000E013C90E645EA060EEB
:100D00008DE60CEA135594EA0C0F08BF95EA0C0F18
:100D10003FF43BAF94EA0C0F0AD150EA01347FF460
:100D200034AF95EA0C0F7FF425AF104619462CE737
:100D300095EA0C0F06D152EA03353FF4FDAE10469A
:100D4000194622E750EA410618BF52EA43067FF4EB
:100D5000C5AE50EA41047FF40DAF52EA43057FF47B
:100D6000EBAE12E74FF0FF3C06E000BF4FF0010C86
:100D700002E000BF4FF0010C4DF804CD4FEA410CEA
:100D80007FEA6C5C4FEA430C18BF7FEA6C5C1BD0B7
:100D900001B050EA410C0CBF52EA430C91EA030F38
:100DA00002BF90EA020F0020704710F1000F91EA95
:100DB000030F58BF994208BF90422CBFD8176FEA63
:100DC000E37040F0010070474FEA410C7FEA6C5C31
:100DD00002D150EA013C07D14FEA430C7FEA6C5C38
:100DE000D6D152EA033CD3D05DF8040B704700BF64
:100DF0008446104662468C461946634600E000BFB2
:100E000001B5FFF7B7FF002848BF10F1000F01BD83
:100E10004DF808EDFFF7F4FF0CBF012000205DF84E
:100E200008FB00BF4DF808EDFFF7EAFF34BF0120D3
:100E300000205DF808FB00BF4DF808EDFFF7E0FF6C
:100E400094BF012000205DF808FB00BF4DF808EDBD
:100E5000FFF7CEFF94BF012000205DF808FB00BF24
:100E60004DF808EDFFF7C4FF34BF012000205DF806
:100E700008FB00BF4FEA410C7FEA6C5C02D150EAEC
:100E8000013C0AD14FEA430C7FEA6C5C02D152EA82
:100E9000033C02D14FF0000070474FF00100704753
:100EA0004FEA410212F5001215D211D56FF4787392
:100EB000B3EB625212D94FEAC12343F0004343EA35
:100EC000505311F0004F23FA02F018BF4042704710
:100ED0004FF00000704750EA013005D111F000409A
:100EE00008BF6FF0004070474FF00000704700BF30
:100EF00010B504460E4B18784FF47A73B3FBF0F339
:100F00000C4A1068B0FBF3F000F07EFB68B90F2CC0
:100F100001D901200AE0002221464FF0FF3000F005
:100F200031FB034B5C60002000E0012010BD00BFDE
:100F3000000000200800002008B50B4B1A6842F49E
:100F400000721A601A6842F480621A601A6842F4E9
:100F500080721A60032000F003FB0020FFF7C8FF37
:100F600001F016FB002008BD003C0240034A116856
:100F7000034B1B780B441360704700BF080200202E
:100F800000000020014B1868704700BF08020020D5
:100F90004A4B5A6822F440325A605A6841680A4300
:100FA0005A600268536823F4807353600268536880
:100FB000016943EA012353600268536823F04073D8
:100FC00053600268536881680B43536002689368FA
:100FD00023F40063936002689368C1680B439360D5
:100FE000826A374B9A424BD00268936823F0706351
:100FF000936002689368816A0B4393600268936808
:1010000023F04053936002689368C16A0B43936076
:101010000268936823F00203936002689368017E7C
:1010200043EA4103936090F82030002B33D10268EB
:10103000536823F4006353600268D36A23F4700397
:10104000D3620168CB6AC269013A43EA0253CB62B8
:101050000268936823F4007393600268936890F8C1
:10106000301043EA412393600268936823F480635D
:10107000936002689368416943EA812393607047F3
:101080000268936823F0706393600268936823F0AA
:1010900040539360BCE70268536843F400635360B5
:1010A0000268536823F46043536001684B68426AE6
:1010B000013A43EA42334B60BEE700BF00230140E0
:1010C0000100000F38B310B50446036C43B1236C24
:1010D00013F0100F0BD00120002384F83C3010BD1A
:1010E00001F082FA0023636484F83C30EFE7236C5C
:1010F00023F4885323F0020343F0020323642046C1
:10110000FFF746FF00206064236C23F0030343F0E5
:1011100001032364E0E701207047000082B0002350
:10112000019390F83C30012B00F08580012380F87A
:101130003C3003689A6812F0010F13D19A6842F0AC
:1011400001029A60414B1B68414AA2FB03239B0C9E
:1011500003EB4303019302E0019B013B0193019BDD
:10116000002BF9D10268936813F0010F65D0036C6E
:1011700023F4E06323F0010343F4807303645368B2
:1011800013F4806F05D0036C23F4405343F4805371
:101190000364036C13F4805F22D0436C23F00603D6
:1011A0004364002380F83C306FF022031360026830
:1011B000536843F0806343F020035360254B5B6822
:1011C00013F01F0F27D10368234A934219D002F569
:1011D0008072934207D0214A93420BD000202DE029
:1011E00000234364DDE702F50072526812F01F0F1E
:1011F00007D0F0E702F58072526802F01F020F2A52
:101200001ED89A6812F0405F1CD19A6842F0804262
:101210009A60002012E003680F4A934201D0002038
:101220000CE09A6812F0405F0ED19A6842F080425A
:101230009A60002002E0022000E0002002B0704727
:101240000020FBE70020F9E70020F7E70800002076
:1012500083DE1B43002301400020014000220140A7
:101260000368D86C70477047704738B50446026809
:101270001168536811F0020F2FD003F0200363B3FD
:10128000036C13F0100F03D1036C43F40073036479
:10129000936813F0405F19D1237EBBB9D36A13F46E
:1012A000700F03D0936813F4806F0FD1536823F04D
:1012B00020035360236C23F480732364236C13F4A2
:1012C000805F03D1236C43F001032364204601F0C7
:1012D00011F923686FF012021A60236819685A68BE
:1012E00002F0800211F0040F36D0002A34D0226CB4
:1012F00012F0100F03D1226C42F4005222649A685B
:1013000012F4401F21D19A6B12F4401F03D09A6847
:1013100012F4806F19D15A6812F4806F15D19A684F
:1013200012F0405F11D1227E7AB95A6822F0800211
:101330005A60236C23F480532364236C13F4807F5E
:1013400003D1236C43F001032364204600F006F927
:1013500023686FF00C021A6022681168536803F06A
:10136000400311F0010F04D01BB1136813F0010FFB
:1013700009D122681168536803F0806311F0200FCF
:1013800000D063B938BD236C43F480332364204616
:10139000FFF769FF23686FF001021A60E9E7636CE9
:1013A00043F0020363646FF0200515602046FFF7E9
:1013B0005BFF23681D60E5E730B482B00023019332
:1013C00090F83C30012B00F0BD80012380F83C30C8
:1013D0000B68092B3ED90568EA689BB203EB43030F
:1013E0001E3B072404FA03F322EA0303EB600568BB
:1013F000EA688C680B8803EB43031E3B04FA03F393
:101400001343EB604B68062B3AD805686A6B03EB15
:101410008303053B1F2404FA03F322EA03036B63EF
:1014200005686A6B4B6803EB8303053B0C8804FA81
:1014300003F313436B630268434B9A4250D0026834
:10144000414B9A4259D0002380F83C30184602B0F4
:1014500030BC704705682A699BB203EB430307243D
:1014600004FA03F322EA03032B6105682A698C68F6
:101470000B8803EB430304FA03F313432B61C1E727
:101480000C2B16D805682A6B03EB8303233B1F2420
:1014900004FA03F322EA03032B6305682A6B4B6803
:1014A00003EB8303233B0C8804FA03F313432B63FE
:1014B000C1E70568EA6A03EB8303413B1F2404FA92
:1014C00003F322EA0303EB620568EA6A4B6803EB65
:1014D0008303413B0C8804FA03F31343EB62AAE74E
:1014E0000B68122BABD1194B5A6822F400025A60D8
:1014F0005A6842F480025A60A1E70B68144A93428A
:1015000001D0112B9FD1114B5A6822F480025A60EE
:101510005A6842F400025A600A680D4B9A4292D10E
:101520000C4B1B680C4AA2FB03239B0C03EB8303AD
:101530005A00019202E0019B013B0193019B002BA9
:10154000F9D180E7022082E700200140002301401A
:10155000120000100800002083DE1B4370470000CB
:10156000074AD36823F4E0631B041B0C000200F459
:10157000E060184340F0BF6040F40030D060704736
:1015800000ED00E030B4174BDB68C3F30223C3F176
:101590000704042C28BF04241D1D062D18D9033B65
:1015A0004FF0FF3505FA04F421EA0401994005FAE9
:1015B00003F322EA0303194300280BDB0901C9B234
:1015C00000F1604000F5614080F8001330BC7047C6
:1015D0000023E5E700F00F000901C9B2024B1954DE
:1015E000F4E700BF00ED00E014ED00E0002807DBA9
:1015F00000F01F02400901239340024A42F82030C4
:10160000704700BF00E100E00138B0F1807F0AD2EE
:10161000064B5860064AF02182F82310002098609B
:1016200007221A6070470120704700BF10E000E0F9
:1016300000ED00E000230F2B00F2D180F0B482B067
:1016400039E0062200E00022B2403A430234644E00
:1016500046F82420634A1468EA4302EA04064F6805
:1016600017F4803F01D045EA04065E4C26606468AA
:1016700002EA04064F6817F4003F01D045EA040669
:10168000584C6660A46802EA04064F6817F4801F8D
:1016900001D045EA0406534CA660E46822404E6837
:1016A00016F4001F01D045EA04024E4CE2600133FB
:1016B0000F2B00F2918001229A400C6804EA020587
:1016C000AA42F4D14C68022C01D0122C10D1DE08B1
:1016D000083650F826C003F00704A7000F24BC40CA
:1016E0002CEA040C0C69BC4044EA0C0440F8264087
:1016F00004685F000326BE40F64306EA040C4C680B
:1017000004F00304BC4044EA0C0404604C6804F197
:10171000FF3CBCF1010F03D9112C01D0122C10D1C8
:10172000846806EA040CCC68BC4044EA0C0484607B
:10173000446824EA02024C68C4F300149C40144339
:101740004460C26816408A68BA403243C2604A6840
:1017500012F0805FABD000220192234A546C44F413
:1017600080445464526C02F480420192019A9C08B5
:10177000A61C1B4A52F8267003F0030296000F22A3
:10178000B24027EA0207194A90423FF45CAF02F5E3
:101790008062904216D002F58062904214D002F529
:1017A0008062904212D002F58062904210D002F521
:1017B000806290420ED002F5806290423FF441AFC9
:1017C000072241E701223FE702223DE703223BE7F0
:1017D000042239E7052237E702B0F0BC70477047B2
:1017E00000380140003C0140003802400000024047
:1017F000002800F09D8070B504464F4B1B6803F035
:101800000F038B4209D2CBB24B4A1370136803F01B
:101810000F038B4201D0012070BD236813F0020F2B
:1018200017D013F0040F04D0444A936843F4E053F4
:101830009360236813F0080F04D0404A936843F480
:10184000604393603D4A936823F0F003A06803432C
:1018500093600D46236813F0010F32D06368012BAB
:1018600021D09A1E012A25D9344A126812F0020F9B
:1018700060D032498A6822F0030213438B60FFF77D
:1018800081FB06462D4B9B6803F00C036268B3EBAB
:10189000820F16D0FFF776FB801B41F28833984207
:1018A000F0D90320B8E7254A126812F4003FE0D1CE
:1018B0000120B1E7214A126812F0007FD9D101203E
:1018C000AAE71D4B1B6803F00F03AB4209D9EAB22C
:1018D000194B1A701B6803F00F03AB4201D00120B3
:1018E0009AE7236813F0040F06D0144A936823F490
:1018F000E053E1680B439360236813F0080F07D0AF
:101900000E4A936823F46043216943EAC10393605C
:1019100000F040F8094B9B68C3F30313084AD35CFB
:10192000D840084B18600020FFF7E2FA002073E768
:101930000120704701206FE7003C02400038024060
:10194000904F000808000020014B1868704700BF46
:101950000800002008B5FFF7F7FF044B9B68C3F3AE
:101960008223034AD35CD84008BD00BF0038024040
:10197000A04F000808B5FFF7E7FF044B9B68C3F3CF
:101980004233034AD35CD84008BD00BF0038024050
:10199000A04F00082DE9F04B444B9B6803F00C036B
:1019A000082B06D00C2B42D0042B7CD04048BDE83D
:1019B000F08B3E4B5A6802F03F025B6813F4800FD5
:1019C00012D03A4B5968C1F3881100233948A1FB62
:1019D0000001FEF7D9FD354B5B68C3F301430133CA
:1019E0005B00B0FBF3F0E2E7304B5B68C3F38813B6
:1019F0001E4600275C010025E41A65EB0705A901D6
:101A000041EA9461A001001B61EB0501CB0043EAB0
:101A10005073C400A01943EB07018B0243EA9053B3
:101A20008402204619460023FEF7AEFDD3E71F4B84
:101A30005A6802F03F025B6813F4800F10D01B4B12
:101A40005968C1F3881100231A48A1FB0001FEF771
:101A50009BFD164B5B68C3F30273B0FBF3F0A6E784
:101A6000124B5B68C3F388131E4600275C010025F8
:101A7000E41A65EB0705A90141EA9461A001001B86
:101A800061EB0501CB0043EA5073C400A01943EB9E
:101A900007018B0243EA9053840220461946002333
:101AA000FEF772FDD5E7034881E700BF003802402A
:101AB0000024F40040787D0170B582B004460368CC
:101AC00013F0010F41D0A64B9B6803F00C03042BCD
:101AD00032D0A34B9B6803F00C03082B27D0A04BFC
:101AE0009B6803F00C030C2B59D06368B3F5803F5F
:101AF0005BD0B3F5A02F5ED0994B1A6822F48032E8
:101B00001A601A6822F480221A606368002B5CD085
:101B1000FFF738FA0546924B1B6813F4003F14D1C7
:101B2000FFF730FA401B6428F5D903209DE18C4B68
:101B30005B6813F4800FD2D0894B1B6813F4003F0D
:101B400003D06368002B00F08D81236813F0020F2F
:101B500067D0834B9B6813F00C0F4AD0804B9B6877
:101B600003F00C03082B3FD07D4B9B6803F00C0364
:101B70000C2B48D0E368002B74D07A4B01221A60FA
:101B8000FFF700FA0546764B1B6813F0020F60D191
:101B9000FFF7F8F9401B0228F5D9032065E1704BE7
:101BA0005B6813F4800FA0D0C6E76D4A136843F456
:101BB00080331360A9E76A4B1A6842F480221A60E6
:101BC0001A6842F480321A609FE7FFF7DBF9054696
:101BD000634B1B6813F4003FB7D0FFF7D3F9401BEA
:101BE0006428F5D9032040E15D4B5B6813F4800F56
:101BF000BAD15B4B1B6813F0020F0AD0E368012BCC
:101C000007D0012031E1564B5B6813F4800FB1D14E
:101C1000EFE7534A136823F0F803216943EAC1034D
:101C20001360236813F0080F40D0636963B34E4B11
:101C300001221A60FFF7A6F90546494B5B6F13F0C6
:101C4000020F33D1FFF79EF9401B0228F5D903207C
:101C50000BE1434A136823F0F803216943EAC10307
:101C60001360DEE73F4B00221A60FFF78BF9054651
:101C70003B4B1B6813F0020FD3D0FFF783F9401BD7
:101C80000228F5D90320F0E0374B00221A60FFF755
:101C900079F90546324B5B6F13F0020F06D0FFF760
:101CA00071F9401B0228F5D90320DEE0236813F008
:101CB000040F79D02A4B1B6C13F0805F33D10023C3
:101CC0000193274B1A6C42F080521A641B6C03F08C
:101CD00080530193019B0125244B1B6813F4807FE3
:101CE00023D0A368012B34D0052B41D01C4B1A6F95
:101CF00022F001021A671A6F22F004021A67A36821
:101D0000002B3FD0FFF73EF90646154B1B6F13F033
:101D1000020F48D1FFF736F9801B41F28833984211
:101D2000F3D90320A1E00025D6E7104A136843F455
:101D300080731360FFF726F906460C4B1B6813F4FB
:101D4000807FCED1FFF71EF9801B0228F5D9032032
:101D50008BE0034A136F43F001031367CFE700BF23
:101D60000038024000004742800E474200700040A9
:101D7000404B1A6F42F004021A671A6F42F00102D8
:101D80001A67BCE7FFF7FEF806463A4B1B6F13F0E5
:101D9000020F08D0FFF7F6F8801B41F28833984213
:101DA000F3D9032061E0E5B9A369002B5CD0314A87
:101DB000926802F00C02082A59D0022B17D02E4B41
:101DC00000221A60FFF7DEF804462A4B1B6813F066
:101DD000007F45D0FFF7D6F8001B0228F5D9032075
:101DE00043E0244A136C23F080531364DCE7224B56
:101DF00000221A60FFF7C6F805461E4B1B6813F059
:101E0000007F06D0FFF7BEF8401B0228F5D903205B
:101E10002BE0E369226A1343626A43EA8213A26AEF
:101E20005208013A43EA0243E26A43EA0263226B40
:101E300043EA02730F4A53600F4B01221A60FFF707
:101E4000A1F804460B4B1B6813F0007F06D1FFF787
:101E500099F8001B0228F5D9032006E0002004E0D1
:101E6000002002E0012000E0002002B070BD01204F
:101E7000FBE700BF00380240600047422DE9F8430D
:101E800004460268136923F44053C1680B4313618D
:101E900083680269134342691343C2691A430168A4
:101EA000CB6823F4164323F00C031343CB60026882
:101EB000536923F4407381690B435361C369B3F5DC
:101EC000004F60D00368B84A934200F0148102F5D5
:101ED0008062934200F00F81FFF73CFD00EB800031
:101EE00000EB80006568AD00B0FBF5F5AF4FA7FBD8
:101EF00005356D092E01FFF72DFD00EB800000EB8D
:101F000080006568AD00B0FBF5F9FFF723FD00EB3D
:101F1000800000EB80006568AD00B0FBF5F5A7FB25
:101F200005356D094FF0640808FB15952D01323514
:101F3000A7FB05356D0905F0F0053544FFF70AFDEF
:101F400000EB800000EB80006668B600B0FBF6F6A0
:101F5000FFF700FD00EB800000EB800063689B0052
:101F6000B0FBF3F0A7FB0030400908FB10684FEA14
:101F7000081808F13208A7FB0837C7F3431723688E
:101F80002F449F600DE10368874A93425BD002F5BE
:101F90008062934257D0FFF7DDFC00EB800000EB3E
:101FA000800065686D00B0FBF5F5804FA7FB053537
:101FB0006D092E01FFF7CEFC00EB800000EB8000E6
:101FC00065686D00B0FBF5F9FFF7C4FC00EB80001D
:101FD00000EB800065686D00B0FBF5F5A7FB0535EB
:101FE0006D094FF0640808FB1595ED003235A7FB2D
:101FF00005356D096D0005F4F8753544FFF7AAFC49
:1020000000EB800000EB800066687600B0FBF6F61F
:10201000FFF7A0FC00EB800000EB800063685B0032
:10202000B0FBF3F3A7FB03235B0908FB13684FEA3C
:10203000C80808F13208A7FB0837C7F3421723681E
:102040002F449F60ADE0FFF795FC00EB800000EBB4
:10205000800065686D00B0FBF5F5544FA7FB0535B2
:102060006D092E01FFF786FC00EB800000EB80007D
:1020700065686D00B0FBF5F9FFF77CFC00EB8000B4
:1020800000EB800065686D00B0FBF5F5A7FB05353A
:102090006D094FF0640808FB1595ED003235A7FB7C
:1020A00005356D096D0005F4F8753544FFF762FCE0
:1020B00000EB800000EB800066687600B0FBF6F66F
:1020C000FFF758FC00EB800000EB800063685B00CA
:1020D000B0FBF3F3A7FB03235B0908FB13684FEA8C
:1020E000C80808F13208A7FB0837C7F3421723686E
:1020F0002F449F6055E0FFF73DFC00EB800000EBB4
:1021000080006568AD00B0FBF5F5284FA7FB0535ED
:102110006D092E01FFF72EFC00EB800000EB800024
:102120006568AD00B0FBF5F9FFF724FC00EB80001B
:1021300000EB80006568AD00B0FBF5F5A7FB053549
:102140006D094FF0640808FB15952D013235A7FB8A
:1021500005356D0905F0F0053544FFF70BFC00EB84
:10216000800000EB80006668B600B0FBF6F6FFF773
:1021700001FC00EB800000EB800063689B00B0FB7B
:10218000F3F0A7FB0030400908FB10684FEA08187D
:1021900008F13208A7FB0837C7F3431723682F4419
:1021A0009F60BDE8F88300BF001001401F85EB5120
:1021B0002DE9F04105460F4616469846069C2B68C9
:1021C0001B6837EA03030CBF01230023B3421DD170
:1021D000B4F1FF3FF3D02CB1FEF7D4FEA0EB080022
:1021E000A042ECD92A68D36823F4D073D3602A685C
:1021F000536923F001035361202385F8393085F8B2
:102200003A30002385F83830032000E00020BDE894
:10221000F08158B310B5044690F839300BB324233D
:1022200084F839302268D36823F40053D360204601
:10223000FFF724FE2268136923F490431361226898
:10224000536923F02A0353612268D36843F400538F
:10225000D3600020E063202384F8393084F83A30DA
:1022600010BD80F8383000F0DFF9D8E70120704762
:102270002DE9F04182B01E4690F83930DBB2202BB8
:1022800055D104460D469046002955D0002A55D018
:1022900090F83830012B53D0012380F838300023D8
:1022A000C363212380F83930FEF76CFE0746A4F89B
:1022B0002480A4F8268010E000963B46002280216E
:1022C0002046FFF775FF00283CD12B882268C3F316
:1022D000080353602369C3B90235E38C9BB2B3B1E1
:1022E000E38C013B9BB2E384A368B3F5805FE3D04A
:1022F00000963B46002280212046FFF759FF18BB7D
:102300002A7823685A600135E7E70135E5E700964A
:102310003B46002240212046FFF74AFF0346A8B96A
:10232000202284F83920002284F8382000E002239B
:10233000184602B0BDE8F0810123F9E70123F7E771
:102340000223F5E70323F3E70323F1E70323EFE792
:1023500082B000230193064B1A6B42F001021A630C
:102360001B6B03F001030193019B02B0704700BF98
:102370000038024030B585B00023009301930293EA
:102380000393124C124A22604FF4803262604FF085
:102390000072A26023610125257684F82030E36273
:1023A0000C4AA262E360E56184F830306361204644
:1023B000FEF788FE084B00930195072302936946B8
:1023C0002046FEF7F9FF05B030BD00BF1402002023
:1023D000002001400100000F1200001008B509485C
:1023E000094B03604FF4E133436000238360C36013
:1023F00003610822426183614FF40043C361FFF728
:1024000008FF08BD600200200044004030B595B0D0
:102410003422002107A800F019FA00240294039442
:1024200004940594069400941B4B1A6C42F080525D
:102430001A641B6C03F080530093009B0194174AAD
:10244000136823F4404343F480431360136803F498
:1024500040430193019B0225079501230A93102312
:102460000B930D950E9408230F935A2310931195F7
:102470001295139507A8FFF71FFB0F2302930395EF
:1024800004944FF4805305930694294602A8FFF75D
:10249000AFF915B030BD00BF0038024000700040F9
:1024A00008B5FEF749FDFFF7B1FFFFF751FFFFF752
:1024B00061FFFFF793FF62B6034800F09FFE0348F9
:1024C000FEF72CFEFEE700BFA84F00081402002014
:1024D00000B583B002A941F8040D4FF6FF73012245
:1024E0000348FFF7C5FE019803B05DF804FB00BF89
:1024F00060020020D0B52DED028B82B01C48FEF7A3
:10250000AFFE84B21B4B1C8007EE904AB8EEE77A10
:10251000F0EE087A27EE277ADFED176AC7EE267A03
:10252000164BC3ED007A9FED167A37EEC77ADFEDD2
:10253000156A87EE268AB3EE097A38EE078A124BBF
:1025400083ED008A17EE900AFDF7C6FF06460F4698
:1025500018EE100AFDF7C0FFCDE9000132463B46F8
:1025600021460A4800F0D6FD02B0BDEC028BD0BD7A
:10257000140200200C02002000007E435C020020B8
:102580005C8F423F0AD7233B10020020B04F000867
:1025900010B582B000240094124B5A6C42F4804271
:1025A0005A645A6C02F480420092009A01941A6CA8
:1025B00042F080521A641B6C03F080530193019B1C
:1025C000224621460520FEF7DDFF0520FFF70EF825
:1025D000224621465120FEF7D5FF5120FFF706F88D
:1025E00002B010BD0038024002680E4B9A4200D083
:1025F000704700B583B00021019103F58C335A6C0C
:1026000042F480725A645B6C03F480730193019B03
:102610000A461220FEF7B6FF1220FEF7E7FF03B0CE
:102620005DF804FB0020014000B589B0002303934E
:1026300004930593069307930268164B9A4202D0BF
:1026400009B05DF804FB0021019103F5FA331A6C1F
:1026500042F400321A641A6C02F400320192019AB8
:1026600002911A6B42F001021A631B6B03F0010323
:102670000293029B0C2303930223049301230593EB
:10268000032306930723079303A90348FEF7D2FF0A
:10269000D6E700BF00440040000002407047FEE75C
:1026A000FEE7FEE7FEE770477047704708B5FEF7A4
:1026B0005DFC08BD7047000008B50248FEF7D5FD77
:1026C00008BD00BF14020020704770B50D461646C5
:1026D000002404E0AFF30080287001340135B442D7
:1026E000F8DB304670BD70B51646002405E04D1C81
:1026F0000878FFF7EDFE01342946B442F7DB304697
:1027000070BD000008B503460B4A126842B10A4A80
:10271000106803446A46934206D8074A136008BD0E
:10272000054A06491160F2E700F066F80C230360E1
:102730004FF0FF30F3E700BFF8010020A8020020AF
:102740004FF0FF3070474FF400534B60002070474C
:1027500001207047002070470F49D1F8883043F4BA
:102760007003C1F888300D4B1A6842F001021A60FC
:10277000002098601A6822F0847222F480321A6075
:10278000074A5A601A6822F480221A60D8604FF013
:1027900000638B60704700BF00ED00E0003802402E
:1027A00010300024DFF834D0002103E00C4B5B58DC
:1027B000435004310B480C4B42189A42F6D30B4A53
:1027C00002E0002342F8043B094B9A42F9D3FFF799
:1027D000C3FF00F017F8FFF763FE70470000022008
:1027E000A052000800000020DC010020DC010020D5
:1027F000A4020020FEE70000014B1868704700BFEC
:102800000C00002070B50D4E0D4CA41BA41000252B
:10281000A54209D10B4E0C4C02F0ACFBA41BA4103A
:102820000025A54205D170BD56F8253098470135E1
:10283000EEE756F8253098470135F2E79852000840
:1028400098520008985200089C520008024403461F
:10285000934200D1704703F8011BF9E72DE9FF47C8
:1028600055EC104B0D9FDDF830A0002D0E46914623
:102870001946B8BF22462B4627F02007BBBF05F1FB
:1028800000431D4600232D23B8BF1446462F0B706E
:1028900004D0452F00D10136022100E0032103AB13
:1028A000019302AB00933246534645EC104B00F0C7
:1028B000FBFD472F804602D119F0010F26D0462F8D
:1028C00008EB060911D198F80030302B0AD100220C
:1028D000002320462946FEF79BFA18B9C6F10106E7
:1028E000CAF80060DAF8003099440022002320463C
:1028F0002946FEF78DFA38B93022039B4B4505D2A5
:10290000591C03911A70F8E7CDF80C90039B0E9AAE
:10291000A3EB08034046136004B0BDE8F087F7B5A9
:1029200000290446BABF49422D232B23092904F864
:10293000022B437020DD0DF107031F460A2691FB91
:10294000F6F506FB15113031092D03F8011C03F1D2
:10295000FF32294609DC3031023B02F8011CBB4240
:10296000224604D3101A03B0F0BD1346E7E713F86C
:10297000012B04F8012BF2E7302319448370021D68
:10298000C170EFE72DE9F04F8DB00C46DDF85880AF
:1029900016461F46054601F0B9FC03680493184625
:1029A000FDF772FF00230A93D8F800300590073333
:1029B00023F0070303F1080294F818A0D4F800B03C
:1029C000C8F80020D3E90023C4E91223D4E912890E
:1029D00029F000430793CDF818804FF0FF32A74B42
:1029E000DDE90601FEF746FA70BB4FF0FF32A34B5C
:1029F000DDE90601FEF720FA30BB00220023404645
:102A00004946FEF70FFA10B12D2384F843309C4A53
:102A10009C4BBAF1470F8CBF9046984603232BF08E
:102A20000402236122604FF00009009733460BAA8D
:102A30002146284600F0E6F9013040F08D804FF045
:102A4000FF300DB0BDE8F08F42464B464046494648
:102A5000FEF710FA10B18C4A8C4BDAE761684B1C18
:102A60004BF480620AA83ED1062363600023CDE9BF
:102A7000020309AB009349EC108B0DF12303226094
:102A8000CDF804A061682846FFF7E8FE0AF0DF03EE
:102A9000472B804609D1099BD81C02DB6268934210
:102AA00047DDAAF1020A5FFA8AFABAF1650F0999BD
:102AB00024D80139524604F150000991FFF72FFF45
:102AC0000A9A1318012A8146236102DC2268D10781
:102AD00001D5013323619DF82330002BA5D02D2390
:102AE00084F84330A1E7BAF1670F00F07781BAF1BB
:102AF000470FBBD10029B9D10123B6E7BAF1660F60
:102B000019D1002963680CDD216113B92268D2074D
:102B100002D501330B442361099BA3654FF00009E3
:102B2000D9E713B92268D00701D50233F3E70123AF
:102B3000F1E74FF0670ADDE90932934205DB2268CD
:102B40002361D107E8D50133E5E7002BD4BFC3F1FA
:102B5000020301231344DEE723685A0507D42369DF
:102B6000424631462846B84701302BD167E7BAF1D3
:102B7000650F40F2DC8000220023D4E91201FEF749
:102B800047F9002833D00123414A31462846B84747
:102B900001303FF454AFDDE909239A4202DB236898
:102BA000D8070FD5DDE9042331462846B847013060
:102BB0003FF445AF4FF0000804F11A090A9B013BAE
:102BC000434509DC23689B0700F10381E0680B9B08
:102BD0009842B8BF184634E701234A463146284692
:102BE000B84701303FF42BAF08F10108E6E7099B35
:102BF000002B2BDC0123264A31462846B8470130FA
:102C00003FF41DAF099B23B90A9B13B92368D90769
:102C1000D8D5DDE9042331462846B84701303FF4D2
:102C20000EAF4FF0000904F11A0A099B5B424B45B5
:102C300001DC0A9B94E70123524631462846B847F7
:102C400001303FF4FCAE09F10109EEE70A9AA36DE9
:102C50009A42A8BF1A46002A914607DD134631461C
:102C600042462846B84701303FF4E9AE04F11A0362
:102C70004FF0000B29EAE979069315E0FFFFEF7F9B
:102C8000D84F0008D44F0008E04F0008DC4F000880
:102C9000E44F00080123069A31462846B847013020
:102CA0003FF4CDAE0BF1010BD4F858A0AAEB090309
:102CB0005B45EFDCDDE909239A42D04415DB23684C
:102CC000DA0712D40A9B0999A3EB0A02A3EB010AC3
:102CD0009245A8BF9246BAF1000F0EDC4FF00008F3
:102CE0002AEAEA7A04F11A0919E0DDE904233146F7
:102CF0002846B8470130E5D1A1E653464246314661
:102D00002846B8470130E9D199E601234A463146C1
:102D10002846B84701303FF492AE08F10108DDE9DA
:102D200009239B1AA3EB0A034345EEDC4AE70A9A00
:102D3000012A01DCDB073AD5012342463146284609
:102D4000B84701303FF47BAEDDE904233146284625
:102D5000B847013008F101083FF471AE0A9B002228
:102D600003F1FF3AD4E912010023FEF751F8C8B984
:102D70005346424631462846B84701300ED15EE6FA
:102D80000123524631462846B84701303FF457AE3A
:102D900008F101080A9B013B4345F1DC4B4604F175
:102DA0005002DEE64FF0000804F11A0AF2E70123B0
:102DB000DFE701234A4631462846B84701303FF451
:102DC0003EAE08F10108E3680B9A9B1A4345F0DC1C
:102DD000FCE64FF0000804F11909F4E700293FF47C
:102DE0008BAE0023CDE9020309AB009349EC108BB5
:102DF0002260CDF804A00DF123032846FFF72EFD35
:102E0000804648E62DE9F04791461F468A680B69DF
:102E1000DDF820809342B8BF1346C9F8003091F81E
:102E2000432006460C4612B10133C9F8003023682E
:102E3000990642BFD9F800300233C9F8003025683E
:102E400015F0060507D104F1190AE368D9F8002046
:102E50009B1AAB4228DC94F843302268003318BF39
:102E6000012392062DD404F1430239463046C0476F
:102E7000013020D02368E568D9F8002003F006036C
:102E8000042B08BFAD1AA36822690CBF25EAE575BB
:102E900000259342C4BF9B1AED184FF000091A3465
:102EA0004D451AD1002008E00123524639463046EC
:102EB000C047013003D14FF0FF30BDE8F087013546
:102EC000C3E7E1185A1C302081F84300224494F8EB
:102ED000451082F843100233C5E7012322463946E4
:102EE0003046C0470130E6D009F10109D8E70000BB
:102EF0002DE9F04301F1430C0C46097E85B06E29A3
:102F00001746064698460C9A00F0B38022D86329EB
:102F100036D00AD8002900F0B980582900F0838003
:102F200004F1420584F8421032E0642901D0692995
:102F3000F6D120681368050603F104012AD51B6841
:102F40001160002B03DA2D225B4284F843206F4886
:102F50000A2239E0732900F09D8008D86F2920D01B
:102F60007029DDD1236843F02003236003E0752935
:102F700017D07829D4D1782384F84530644855E0B7
:102F80001368191D1B68116004F1420584F8423072
:102F900001238CE01B68116010F0400F18BF1BB2BA
:102FA000CFE713682568181D1060280601D51B6837
:102FB00002E06806FBD51B8854486F2914BF0A221B
:102FC0000822002184F843106568A560002DC0F236
:102FD0009580216821F004012160002B3DD1002D56
:102FE00040F08E806546082A0BD12368DB0708D5A0
:102FF000236962689A42DEBF302305F8013C05F17F
:10300000FF35ACEB05032361CDF800803B4603AAF6
:1030100021463046FFF7F6FE01304DD14FF0FF302C
:1030200005B0BDE8F083394884F84510136821687D
:103030001D1D1B6815600A060BD5CA0744BF41F069
:10304000200121601BB9226822F020022260102298
:10305000B7E74D0648BF9BB2EFE76546B3FBF2F119
:1030600002FB1133C35C05F8013D0B460029F5D185
:10307000B9E7136825686169181D106028061B6888
:1030800001D5196002E06A06FBD51980002323618F
:103090006546B9E71368191D11601D686268002153
:1030A0002846FDF7FDFB08B1401B606063682361A3
:1030B000002384F84330A7E723692A46394630467F
:1030C000C0470130AAD023689B0713D4E068039B54
:1030D0009842B8BF1846A3E701234A46394630460E
:1030E000C04701309AD00135E368039A9B1AAB427E
:1030F000F2DCEBE7002504F11909F5E7002BACD170
:10310000037884F8423004F142056CE7E64F00088A
:10311000F74F00080FB40A4B13B51C6824B1A3691C
:1031200013B9204601F068F805AB049AA168019331
:10313000204601F02BFD02B0BDE8104004B07047FE
:103140000C00002070B50E46054618B183690BB916
:1031500001F052F8AB69AC6813B9284601F04CF89D
:10316000234B9C4217D16C68A3891B071DD523698B
:10317000DBB1013EA36816F8011F013BA360E9B96A
:10318000002B2EDA22460A21284600F03FF80130B3
:1031900011D00A2011E0174B9C4201D1AC68E3E743
:1031A000154B9C4208BFEC68DEE72146284600F03C
:1031B0007FF80028DDD04FF0FF3070BD002B04DA1F
:1031C000A2699A4206DC0A2904D023685A1C2260AC
:1031D0001970CFE72246284600F018F80130C9D10F
:1031E000E9E723680A205A1C22601870E5E700BF4F
:1031F000385000085850000818500008024B01468B
:103200001868FFF79FBF00BF0C000020F8B50E46FE
:103210001446054618B183690BB900F0EDFF214B48
:103220009C422AD16C68A369A360A3891A072ED592
:10323000236963B323692068C01A6369F6B28342C5
:10324000374604DC2146284600F06CFF28BBA36803
:10325000013BA36023685A1C22601E706369013021
:10326000834204D0A389DB0719D50A2E17D1214642
:10327000284600F057FF90B10FE00B4B9C4201D164
:10328000AC68D0E7094B9C4208BFEC68CBE721460D
:10329000284600F00DF80028CCD04FF0FF37384614
:1032A000F8BD00BF385000085850000818500008FA
:1032B000324B70B51D6806460C4625B1AB6913B993
:1032C000284600F099FF2E4B9C420FD16C68B4F950
:1032D0000C309AB215072CD4D00611D409223260D2
:1032E00043F04003A3814FF0FF303EE0254B9C426A
:1032F00001D1AC68EBE7244B9C4208BFEC68E6E7E1
:10330000510712D5616B41B104F14403994202D0D7
:10331000304601F069FB00236363A38923F0240393
:10332000A3810023636023692360A38943F008031A
:10333000A38123694BB9A38903F42073B3F5007FFC
:1033400003D02146304601F013F8A28912F00103A0
:103350000CD00023A36063695B42A361236953B966
:10336000B4F90C3013F08000BAD170BD920758BF89
:103370006369A360F2E70020F7E700BF0C000020BC
:103380003850000858500008185000082DE9F74F31
:1033900003690C69A3428046C0F28280013C01F1BE
:1033A00014074FEA840C00F1140657F8245056F81D
:1033B000240006EB0C03013507EB0C090193B0FB6D
:1033C000F5F595B34FF0000A3846B646D34650F8A7
:1033D000042B93B205FB03A34FEA134A9BB2ABEB5A
:1033E0000303120CDEF800B005FB02A213FA8BF304
:1033F0004FEA124A1FFA82FBDEF80020CBEB1242A2
:1034000002EB23429BB243EA024381454FEA224B3F
:103410004EF8043BDBD256F80C3033B9019B043B29
:103420009E421A4630D3C8F81040404601F008FAD0
:10343000002825DB013530464FF0000C57F8042BEF
:10344000D0F800E093B2ACEB0303120C13FA8EF346
:10345000C2EB1E4202EB23429BB243EA0243B94550
:103460004FEA224C40F8043BE8D256F8242006EB01
:1034700084032AB9043B9E421A460BD3C8F8104075
:10348000284603B0BDE8F08F1268043B002ACAD179
:10349000013CC5E71268043B002AEFD1013CEAE792
:1034A0000020EEE7000000002DE9F04F57EC106B14
:1034B00097B0456A069104460B921293DDF880801E
:1034C000CDE900673DB9102000F092FF6062C0E9CD
:1034D00001550560C560636A196851B15A684A6050
:1034E000012393408B60204600F0C9FF636A0022ED
:1034F0001A603B1EBBBF23F000430193002301224F
:10350000ACBFC8F80030C8F80020AF4BDDF804802D
:1035100033EA080314D1129A42F20F731360009B2E
:1035200023B9C8F31300002800F04285219BDFF87F
:10353000ACB2002B00F044850BF1030300F03EBD5C
:10354000DDE900670022002330463946FDF760FCC4
:10355000814668B1129A01231360219B002B00F071
:1035600024859A4B219A03F1FF3B136000F028BD9C
:1035700014AA15A947EC106B204601F0D8F9C8F33E
:103580000A550490002D7CD0C7F3130343F07F5BF2
:10359000B2464BF4401BA5F2FF35CDF84C9000220B
:1035A0008B4B50465946FCF737FE81A3D3E90023E5
:1035B000FDF7C6F980A3D3E90023FCF72FFE0646EA
:1035C00028460F46FCF776FF7DA3D3E90023FDF7DD
:1035D000B7F902460B4630463946FCF71FFE064651
:1035E0000F46FDF75DFC0022824600233046394637
:1035F000FDF718FC48B15046FCF75CFF32463B46ED
:10360000FDF706FC08B90AF1FF3ABAF1160F59D8CE
:10361000704901EBCA01DDE90023D1E90001FDF7A2
:103620001FFC002850D00AF1FF3A00230F93149B8F
:103630005D1BB5F1010849BFC5F1010300230593E6
:103640004FF0000858BF0593BAF1000F3EDB00238E
:10365000D044CDF838A00793069B092B00F2908048
:10366000052BC4BF043B0693069BA3F10203CCBF0A
:1036700000250125032B00F28F80DFE803F07D7F1A
:103680003171DDE914531D4405F23240202813DD69
:10369000C0F14000009B08FA00F805F2124023FA3E
:1036A00000F048EA0000FCF7F5FE01238246A1F194
:1036B000F87B013D139372E7009BC0F1200003FAF1
:1036C00000F0F0E70123B1E70F90B0E7059BA3EB13
:1036D0000A030593CAF10003079300230E93BBE787
:1036E00001230A930B9B002B59DD02939946666ACE
:1036F00000227260042202F114009842716853D9CA
:10370000204600F088FE636A3060B9F10E0FD3F8EE
:1037100000B000F2E680002D00F0E3809DED007B1C
:10372000BAF1000F8DED107B74DD2A4A0AF00F0309
:1037300002EBC30393ED007B4FEA2A16F0068DEDF2
:10374000087B65D5244BDDE91001D3E90823FDF79B
:1037500021FACDE9000106F00F0603251E4F4CE0CB
:1037600001230A930B9B534403F1010902934B4637
:10377000012BB8BF0123BAE70023B2E70023F0E72B
:103780000125002306930A954FF0FF3302939946D3
:10379000002212230B92AAE701230A93F4E70123E4
:1037A000029399461A46F5E7013171605200A2E78B
:1037B00061436F63A787D23FB3C8608B288AC63F37
:1037C000FB799F501344D33F0000F07FE54F000882
:1037D0000000F83FA0500008785000081150000881
:1037E000F10708D5DDE90801D7E90023FDF7A8F8BE
:1037F000CDE90801013576100837002EF0D1DDE95A
:103800000823DDE90001FDF7C5F9CDE900011AE063
:103810000225A3E700F0A080CAF100069F4BA04F4D
:1038200006F00F0203EBC203D3E90023DDE9100128
:10383000FDF786F8CDE90001361100230225002EA0
:103840007FD1002BE1D10F9B002B00F08780DDE9B9
:1038500000670022934B30463946FDF7E3FA002813
:103860007CD0B9F1000F79D0029B002B35DD0AF135
:10387000FF330893394600228B4B3046FDF760F842
:10388000CDE90001029F01352846FCF713FEDDE972
:103890000023FDF755F80022844BFCF7BFFC0546DA
:1038A000A1F15076002F5DD10022814BDDE90001AE
:1038B000FCF7B2FC2A463346CDE90001FDF7D0FA09
:1038C000002840F088822A4606F10043DDE9000125
:1038D000FDF7A8FA002840F07C82DDE91023CDE94D
:1038E0000023159B002BC0F25081BAF10E0F00F39C
:1038F0004C816A4B03EBCA0393ED007B0B9B002BBF
:103900008DED027B80F2D880B9F1000F00F3D480F6
:1039100040F05E820022664B51EC170BFDF710F869
:10392000DDE90023FDF792FA4F464E46002840F0AD
:10393000348231230BF101058BF800300AF1010AC2
:103940002FE2F20705D5D7E90023FCF7F9FF01358F
:1039500001237610083772E7022574E7CDF820A01E
:103960004F4691E74D4B03EBC70353E902010A9B16
:10397000002B47D002460B4600204E49FDF70AF9BE
:103980002A463346FCF748FCCDE90C015D46DDE9EB
:103990000001FDF785FA0646FCF78CFD02460B4652
:1039A000DDE90001FCF738FC303605F8016BDDE994
:1039B0000C23CDE90001FDF735FA002863D1DDE9DC
:1039C000002300203749FCF727FCDDE90C23FDF735
:1039D00029FA002840F0B780A5EB0B039F427FF740
:1039E0007CAF0022304BDDE90C01FCF7A9FF00227F
:1039F000CDE90C012C4BDDE90001FCF7A1FFCDE97D
:103A00000001C4E72A463346FCF79AFFCDE90C01D2
:103A10000BEB07055E46DDE90001FDF741FA0746BD
:103A2000FCF748FD303702460B46DDE90001FCF7A4
:103A3000F3FB06F8017BAE42CDE900014FF0000236
:103A400026D11C4BDDE90C01FCF7E8FB02460B46D6
:103A5000DDE90001FDF704FA002874D1DDE90C234B
:103A600000201449FCF7D8FB02460B46DDE90001B3
:103A7000FDF7D8F900283FF430AF15F8013C302BA2
:103A800005F1FF3202D0DDF820A04AE01546F4E748
:103A9000054BFCF755FFCDE90001BCE7A05000083D
:103AA000785000080000F03F0000244000001C4057
:103AB000000014400000E03FDDE900675D46DDE9FD
:103AC000022330463946FDF765F8FDF7E9F98046EF
:103AD000FCF7F0FCDDE90223FCF732FF02460B465F
:103AE0003046394608F13006FCF796FB05F8016BC5
:103AF000A5EB0B06B14502460B4639D1FCF78EFB10
:103B0000DDE9022306460F46FDF7AAF9C8B9DDE94B
:103B1000022330463946FDF77BF910B118F0010F4A
:103B20000FD10499204600F0AAFC0023129A2B70B2
:103B30000AF101031360219B002B00F041821D60FC
:103B40003EE2CDF820A015F8012C392A05F1FF330B
:103B500008D19B450AD1089B0133089330238BF889
:103B600000305B461A7801321A708CE71D46EAE78E
:103B700000229B4BFCF7E4FE0022002306460F4682
:103B8000FDF746F900289AD0CBE70A9A002A00F000
:103B90008B80069A012A6EDC139A002A67D003F202
:103BA0003343079F059D059A01211A44204605923B
:103BB000984400F004FD0646002D0CDDB8F1000F1E
:103BC00009DD4545059A2B46A8BF4346D21A059202
:103BD000ED1AA8EB0308079BEBB10A9B002B67D0FB
:103BE0008FB131463A46204600F088FD049A0146DE
:103BF0000646204600F0ECFC04990890204600F0B0
:103C00003EFC089B0493079BDA1B04D004992046D2
:103C100000F074FD04900121204600F0D0FC0E9BC2
:103C20000746002B00F0D0811A460146204600F0DE
:103C300065FD069B012B074640DC009B002B39D11C
:103C4000019BC3F31303002B36D1019B23F00043E8
:103C50001B0D1B052BB1059B0133059308F10108D2
:103C6000012307930E9B002B2AD1012030E0149BE7
:103C7000C3F1360395E7079B09F1FF37BB42BFBF8E
:103C8000079B0797FA1A0E9BBBBF9B180E93DF1B6F
:103C90000027B9F1000FB5BF059B059DA3EB0905F2
:103CA0004B46B8BF00237EE7079F059D0A9E83E72A
:103CB000079AABE70023D4E7009BD2E700230793E2
:103CC0003B6907EB8303186900F02BFCC0F120006F
:103CD000404410F01F0047D0C0F12003042B3BDD0F
:103CE000059BC0F11C000344059305448044059BDB
:103CF000002B05DD1A460499204600F04DFD049086
:103D0000B8F1000F05DD39464246204600F044FD7B
:103D100007460F9B53B33946049800F091FD0028E5
:103D200024DA00230A220499204600F0BFFB0A9BF4
:103D300004900AF1FF3A002B00F04D810023314638
:103D40000A22204600F0B2FB029B002B06464FDC05
:103D5000069B022B4CDD11E0C9D0059A1C331A4496
:103D600005921D449844C2E70346F6E7B9F1000FF7
:103D700038DC069B022B35DDCDF80890029B63B939
:103D800039460522204600F091FB0146074604987B
:103D900000F056FD00283FF7CCAD0B9B5D466FEA67
:103DA000030A4FF000093946204600F068FB002E58
:103DB0003FF4B7AEB9F1000F05D0B14503D0494685
:103DC000204600F05CFB3146204600F058FBA8E698
:103DD00000273E46E1E7DDF820A03E46A9E500BF0A
:103DE000000024400A9BCDF80890002B00F0FA80D8
:103DF000002D05DD31462A46204600F0CDFC064662
:103E0000079B002B4CD07168204600F004FB326900
:103E100002320546920006F10C010C3000F0F0FA77
:103E200001222946204600F0B7FC009BCDF814B0D3
:103E300003F00103B1460793064639460498FFF79D
:103E4000A5FA4946054600F13008049800F0F8FC50
:103E5000324600903946204600F00CFDC368024609
:103E600003BB01460890049800F0EAFC089A034658
:103E700011462046089300F002FB089BA3B9069A5E
:103E800092B9079A82B9B8F1390F29D0009B002B5B
:103E900001DD05F13108059B5D1C83F8008082E798
:103EA0003046C2E70123E3E7009A002A04DB25D16C
:103EB000069A1ABB079A0ABB002BECDD0122049973
:103EC000204600F069FC3946049000F0B9FC002857
:103ED00003DCE0D118F0010FDDD0B8F1390FD8D1F3
:103EE000059B059A5D1C3923137015F8013C392B8D
:103EF00005F1FF324FD00133137054E7059A002BC0
:103F000002F1010506DDB8F1390FE9D008F1010829
:103F1000059BC2E7029A05F8018CA5EB0B039342BF
:103F200021D000230A220499204600F0BFFAB145AF
:103F300004904FF000034FF00A024946204605D195
:103F400000F0B4FA81460646059576E700F0AEFA31
:103F50003146814600230A22204600F0A7FA064691
:103F6000F2E74FF0000901220499204600F014FC0A
:103F70003946049000F064FC0028B6DC02D118F049
:103F8000010FB2D115F8013C302B05F1FF327FF45F
:103F90000AAF1546F6E7934505D131230AF1010A28
:103FA0008BF80030FFE615469FE7DFF864B007E0C6
:103FB000219BDFF860B01BB10BF10803219A13605D
:103FC000584617B0BDE8F08F069B012B7FF735AE42
:103FD0000E9B079349E6029B002B03DC069B022BFA
:103FE0003FF7CCAE5D4639460498FFF7CFF900F1B4
:103FF000300805F8018B029AA5EB0B039A42B0DD5D
:1040000000230A220499204600F050FA0490EAE7BF
:10401000E44F0008085000088A892DE9F041054660
:1040200010070C4658D44B68002B05DC0B6C002B9A
:1040300002DC0020BDE8F081E66A002EF9D0002302
:1040400012F480522F68216A2B6032D0606DA389F0
:104050005A0705D56368C01A636B0BB1236CC01A8D
:1040600000230246E66A216A2846B047431CA3891A
:1040700006D129681D2948D8294ACA40D60744D5FF
:1040800000226260D9042269226004D5421C01D159
:104090002B6803B96065616B2F600029C9D004F1FA
:1040A0004403994202D0284600F09EFC0020606341
:1040B000C0E701232846B047411CC8D12B68002B1C
:1040C000C5D01D2B01D0162B01D12F60B1E7A389DC
:1040D00043F04003A381ADE70F69002FA9D09307F8
:1040E0000E6808BF4B690F6018BF0023A6EB0708D6
:1040F0008B60B8F1000F9CDD43463A46216AA66A00
:104100002846B047002806DCA38943F04003A3817A
:104110004FF0FF308EE70744A8EB0008E9E700BF47
:104120000100402038B50B6905460C46DBB118B1DB
:1041300083690BB900F060F80C4B9C4209D16C68A4
:10414000B4F90C307BB121462846BDE83840FFF772
:1041500063BF074B9C4201D1AC68F1E7054B9C4221
:1041600008BFEC68ECE7002038BD00BF38500008FD
:104170005850000818500008002310B50446C0E944
:104180000033836081814366C281C0E90433836167
:10419000194608225C30FEF759FB054B6362054B5C
:1041A000A362054BE362054B2462236310BD00BF8D
:1041B000D94D0008FB4D0008334E0008574E00084B
:1041C000014900F085B800BF2541000870B54A1EBE
:1041D000682555430E4605F1740100F053FC044672
:1041E00040B10021C0E900160C30A06005F1680262
:1041F000FEF72CFB204670BD836910B5044633BB27
:10420000C0E912330365124B124A1B68826298425E
:1042100004BF0123836100F01FF86060204600F0B6
:104220001BF8A060204600F017F80022E06004218F
:104230006068FFF7A1FF01220921A068FFF79CFF3A
:1042400002221221E068FFF797FF0123A36110BD4E
:10425000D04F0008C1410008F8B51B4B1E68B36978
:10426000074613B93046FFF7C7FF4836D6E9013491
:10427000013B03D5336833B13668F7E7B4F90C5026
:104280006DB16834F4E704213846FFF79FFF3060D2
:104290000028F1D10C233B6004462046F8BD0B4BAF
:1042A0006566C4E90055A560C4E90335C4E9055550
:1042B0000822294604F15C00FEF7C8FAC4E90D554E
:1042C000C4E91255E9E700BFD04F00080100FFFF25
:1042D0002DE9F8438046894600F14804002614B9C8
:1042E0003046BDE8F883D4E90175013F01D5246863
:1042F000F5E7AB89012B07D9B5F90E30013303D0AF
:1043000029464046C84706436835EEE7044B1B681C
:10431000186A044B002808BF1846F030704700BFE9
:104320000C0000207000002070B50E46B1F90E1090
:10433000002996B014461D4607DA00232B60B38986
:104340001A0610D44FF480630EE06A4600F0AAFD0E
:104350000028F2DB019A02F47042A2F500535A429F
:104360005A412A60EEE740230020236016B070BD5A
:104370008B8973B59D0706460C4607D504F14703A4
:10438000236023610123636102B070BD01AB6A4603
:10439000FFF7CAFF00990546304600F073FB48B9A5
:1043A000B4F90C309A05EFD423F0030343F0020371
:1043B000A381E3E70D4BB362A389206043F0800340
:1043C000A381009B6361019B20615BB1B4F90E1076
:1043D000304600F079FD28B1A38923F0030343F0B0
:1043E0000103A381A3891D43A581CDE7C141000835
:1043F000024B0146186800F045BB00BF0C000020CE
:1044000010B5431E0A44914200D110BD11F8014B72
:1044100003F8014FF7E770B5456A04460E463DB90B
:104420001020FFF7E5FF6062C0E901550560C56037
:10443000656AEB6883B1636ADB6853F82600B8B934
:10444000012101FA06F56A1D9200204600F0BEFA2D
:1044500060B1C0E901650EE021220421204600F090
:10446000B5FA636AE860DB68002BE4D1002070BD18
:10447000026843F826200023C0E90333F7E770B54C
:10448000446A06460D463CB91020FFF7B1FF706242
:10449000C0E901440460C4603DB1736A6A68DB68C6
:1044A00053F82210296043F8225070BD2DE9F041E5
:1044B0000D691F4606460C4601F1140C0023DCF87A
:1044C000000081B202FB01710F0C000C02FB0070B6
:1044D00089B2013301EB00419D424FEA10474CF88D
:1044E000041BECDCD7B1A368AB4212DC6168304638
:1044F0000131FFF790FF2269023204F10C0180467E
:1045000092000C30FFF77CFF21463046FFF7B7FFE3
:10451000444604EB850301355F6125612046BDE813
:10452000F081020C12040346B2B90304102013F008
:104530007F4F04BF1B02083013F0704F04BF1B01F4
:10454000043013F0404F04BF9B000230002B06DB09
:104550005B0003D5013070470020E8E7202070475A
:10456000036813F0070201460BD0DA0723D498073B
:1045700049BF5B089B0801200B605CBF0B600220F9
:10458000704798B2A8B91B0C102013F0FF0F04BF9E
:104590001B0A08301A0704BF1B0904309A0704BF1E
:1045A0009B080230DA0702D45B0806D001300B60AA
:1045B00070471046E9E7002070472020704710B58B
:1045C0000C460121FFF727FF01224461026110BD63
:1045D0002DE9F74F14460A6923699A42B8BF0B4682
:1045E0008846BCBFA0461C46D8F81070D4F810907E
:1045F000D8F80830D8F8041007EB0906B342B8BF62
:104600000131FFF708FF00F1140505EB860E2B467C
:104610000022734516D304F1140208F1140102EBD1
:10462000890301EB87070093009B019293420CD80A
:10463000002E03DD5EF8043D002B5DD0066103B063
:10464000BDE8F08F43F8042BE3E7B2F800B0BBF10C
:10465000000F23D08946AC464FF0000859F8044BB0
:10466000DCF800A0A3B21FFA8AFA0BFB03A34FEAFF
:10467000144ADCF8004043444FEA14480BFB0A8418
:1046800004EB1344E2469BB243EA04434F454FEA2E
:1046900014484AF8043B2BD8CCF80480019BB3F8AB
:1046A00002A00432BAF1000F20D02B688946A84638
:1046B0004FF0000BB9F800C0B8F802400AFB0C44F8
:1046C0005C44C4469BB243EA04434CF8043B59F8AB
:1046D000043BB8F804B01B0C0AFB03B303EB144310
:1046E0004F454FEA134B05D8C8F8043004359BE713
:1046F000D446B3E7E046DDE7013E99E72DE9F8430C
:10470000154612F0030206460F4607D0013A214C27
:10471000002354F82220FFF7C9FE0746AD1035D01C
:10472000746A3CB91020FFF763FE7062C0E901446F
:104730000460C460D6F82480D8F808404CB940F230
:1047400071213046FFF73BFF0023C8F808000446FC
:1047500003604FF00008EB070AD539462246304681
:10476000FFF736FF394681463046FFF788FE4F4651
:104770006D100BD0206838B9224621463046FFF72D
:1047800027FF2060C0F800800446E4E73846BDE813
:10479000F88300BF685100082DE9F0470C464FEA46
:1047A000621A236949680AEB0309A368074616469B
:1047B00009F10105AB4232DB3846FFF72CFE00233E
:1047C000804600F114011A4653452BDB20692AEA82
:1047D000EA7A04F1140316F01F0201EB8A0103EBDD
:1047E000800C25D0C2F1200E00201E688A4696401B
:1047F00030434AF8040B53F8040B9C4520FA0EF0A2
:1048000014D8486008B109F10205013D3846C8F8DE
:1048100010502146FFF733FE4046BDE8F0870131D6
:104820005B00C7E741F823200133CDE75146DCE7C1
:10483000043953F8042B41F8042F9C45F9D8E4E7D8
:1048400003690A699B1A30B50CD1920014301431F7
:104850008418114454F8045D51F8042D954203D096
:1048600005D30123184630BDA042F3D3FAE74FF039
:10487000FF33F7E72DE9F0470D4607461146284676
:104880001446FFF7DDFF061E08D131463846FFF714
:10489000C2FD0123C0E90436BDE8F087A4BF23466A
:1048A0002C4638466168A6BF1D4600260126FFF744
:1048B000B2FD2B69C660266905F1140904F11402E2
:1048C00002EB860709EB830800F114054FF0000E98
:1048D00052F804AB59F8044B1EFA8AF1A3B2C91A74
:1048E000230CC3EB1A4303EB214389B24FEA234E57
:1048F000C84541EA0343944645F8043BE8D8BC4523
:1049000004D355F8043D83B10661C5E75CF8041B88
:104910001EFA81F31A1402EB11429BB243EA0243DE
:104920004FEA224E45F8043BE9E7013EE9E72DE96D
:10493000F7430E46012159EC108B1546FFF76BFD2E
:10494000C9F30A540746C9F3130334BB0193B8F102
:10495000000327D002A840F8083DFFF701FE0099A8
:10496000F0B1019AC0F1200302FA03F30B43C240F5
:104970007B610192019BBB61002B14BF02210121CD
:104980003961C4B1A4F2334404443460C0F1350049
:104990002860384603B0BDE8F08343F48013D5E7C0
:1049A0007961E7E701A8FFF7DBFD019B7B6101214E
:1049B00039612030E5E707EB8103A0F23240306037
:1049C0001869FFF7AEFDC0EB4110E1E738B502FB17
:1049D00001F4214600F056F8054618B122460021A0
:1049E000FDF734FF284638BD38B50546002945D0C7
:1049F00051F8043C0C1F002BB8BFE41800F098FAE3
:104A00001F4A1368104633B9636014602846BDE836
:104A1000384000F08EBAA3420CD921686218934244
:104A200004BF1A685B68636004BF521822600460A8
:104A3000ECE713465A680AB1A242FAD91968581825
:104A4000A0420BD120680144581882421960DDD180
:104A5000106852685A6001441960D7E702D90C23E4
:104A60002B60D3E7206821188A4204BF116852687E
:104A7000626004BF091821605C60C7E738BD00BFF1
:104A80000002002070B5CD1C25F0030508350C2D63
:104A900038BF0C25002D064601DBA94203D90C23A3
:104AA0003360002070BD00F043FA214A14682146AB
:104AB00091B9204C23681BB9304600F07DF9206085
:104AC0002946304600F078F9431C24D10C2333608A
:104AD000304600F02EFAE4E70B685B1B18D40B2B72
:104AE0000FD90B60CD50CC18304600F022FA04F1FB
:104AF0000B00231D20F00700C31AD3D05A42E25006
:104B0000D0E78C424B6816BF636013600C46EBE73E
:104B10000C464968CCE7C41C24F00304A04205D02D
:104B2000211A304600F048F90130CFD02560DBE78C
:104B300000020020040200209368013B002B10B407
:104B4000936008DA9469A34201DB0A2903D15DF876
:104B5000044BFEF75BBB1368581C106019700846C5
:104B60005DF8044B7047F8B506460F461446D51855
:104B7000AC4201D1002007E03A4614F8011B304650
:104B8000FFF7DAFF431CF3D1F8BD00002DE9F04F29
:104B90000C469DB017461D46064618B183690BB9F1
:104BA000FFF72AFB7C4B9C4258D17468A3891807F5
:104BB0005ED52369002B5BD00023099320238DF859
:104BC000293030238DF82A3003954FF0010BB84679
:104BD000454615F8013B0BB1252B54D1B8EB070A1C
:104BE0000BD053463A4621463046FFF7BCFF013012
:104BF00000F0C280099B5344099398F80030002BC1
:104C000000F0BA8000234FF0FF32CDE90523049372
:104C100007938DF853301A93A846052218F8011B04
:104C20005E48FBF73DFE049B78BBD90644BF2022BB
:104C30008DF853201A0744BF2B228DF853202A7871
:104C40002A2A2AD0079AA84600200A25414611F8A8
:104C5000013B303B092B69D960B324E0504B9C42A7
:104C600001D1B468A2E74F4B9C4208BFF4689DE7AE
:104C700021463046FEF71CFB00289DD04FF0FF3048
:104C80001DB0BDE8F08FA846A2E7444A801A0BFA8F
:104C900000F0184304904546BEE7039A111D1268C0
:104CA0000391002A01DB079204E0524243F0020321
:104CB0000792049398F800302E2B0ED198F801300B
:104CC0002A2B38D1039B1A1D1B680392002BB8BFF7
:104CD0004FF0FF3308F102080593334D98F80010A8
:104CE00003222846FBF7DCFD40B14023401B03FABA
:104CF00000F0049B034308F10108049398F80010A6
:104D00002A488DF82810062208F10107FBF7C8FD94
:104D1000002837D0264B1BBB039B073323F0070328
:104D200008330393099B4B44099350E705FB023278
:104D3000012088468AE7002308F1010805931946F7
:104D40000A25404610F8012B303A092A03D9002BD6
:104D5000C3D00591C1E705FB012101238046F0E79F
:104D600003AB00932246134B04A93046FDF70AFE1D
:104D7000B0F1FF3F8146D5D1A3895B063FF57EAFF9
:104D800009987DE703AB009322460A4B04A93046FD
:104D9000FEF7AEF8ECE700BF385000087451000889
:104DA00058500008185000087A5100087E51000839
:104DB00085290008674B000838B5064C00230546D6
:104DC00008462360FDF79EFC431C02D1236803B113
:104DD0002B6038BDA002002010B50C46B1F90E10B2
:104DE00000F0A8F80028ABBF636DA3891B1823F45B
:104DF0008053ACBF6365A38110BD2DE9F0411F4610
:104E00008B89DB0505460C46164605D50223002294
:104E1000B1F90E1000F068F8A389B4F90E1023F46C
:104E20008053A38132463B462846BDE8F04100F05E
:104E300017B810B50C46B1F90E1000F055F8431C28
:104E4000A38915BF606523F4805343F48053A38185
:104E500018BFA38110BDB1F90E1000F013B8000007
:104E600038B5074C054608461146002222601A460E
:104E7000FDF739FC431C02D1236803B12B6038BD18
:104E8000A002002038B5064C0023054608462360E2
:104E9000FDF756FC431C02D1236803B12B6038BDDB
:104EA000A002002038B5074C0023054608461146ED
:104EB0002360FDF748FC431C02D1236803B12B603B
:104EC00038BD00BFA002002038B5064C00230546BF
:104ED00008462360FDF73CFC431C02D1236803B164
:104EE0002B6038BDA002002038B5074C05460846A7
:104EF0001146002222601A46FDF72CFC431C02D109
:104F0000236803B12B6038BDA002002082B001B934
:104F100001A942B14BB113780B601278101C18BF75
:104F2000012002B070471046FBE76FF00100F8E780
:104F30007047704738B5074C0546084611460022B1
:104F400022601A46FDF7C1FB431C02D1236803B15E
:104F50002B6038BDA002002049B1FF2A85BF8A23FB
:104F600003600A704FF0FF3098BF01207047084679
:104F700070470000F8B500BFF8BC08BC9E467047FB
:0C4F8000F8B500BFF8BC08BC9E467047A6
:104F900000000000000000000102030406070809E9
:104FA000000000000102030468656C6C6F210D00B5
:104FB0004D6561733A202564203D3D2025342E3611
:104FC00066203D3D2025342E36660D0A0000000087
:104FD00010000020494E4600696E66004E414E00AA
:104FE0006E616E0030003031323334353637383947
:104FF0004142434445460030313233343536373848
:105000003961626364656600496E66696E697479C8
:10501000004E614E00000000000000000000000093
:105020000000000000000000000000000000000080
:105030000000000000000000000000000000000070
:105040000000000000000000000000000000000060
:105050000000000000000000000000000000000050
:105060000000000000000000000000000000000040
:1050700000000000000000000080E03779C34143D9
:10508000176E05B5B5B89346F5F93FE9034F384DAE
:10509000321D30F94877825A3CBF737FDD4F15755A
:1050A000000000000000F03F00000000000024406D
:1050B00000000000000059400000000000408F4048
:1050C000000000000088C34000000000006AF840B3
:1050D0000000000080842E4100000000D0126341D7
:1050E0000000000084D797410000000065CDCD414D
:1050F000000000205FA00242000000E8764837422E
:10510000000000A2941A6D42000040E59C30A242CB
:105110000000901EC4BCD64200003426F56B0C4340
:105120000080E03779C3414300A0D88557347643E7
:1051300000C84E676DC1AB43003D9160E458E14348
:10514000408CB5781DAF154450EFE2D6E41A4B44BD
:1051500092D54D06CFF08044F64AE1C7022DB54402
:10516000B49DD9794378EA44050000001900000095
:105170007D000000232D302B2000686C4C006566FC
:1051800067454647004300504F534958002E0000E2
:1051900020202020202020202028282828282020E7
:1051A00020202020202020202020202020202020FF
:1051B0008810101010101010101010101010101077
:1051C0000404040404040404040410101010101057
:1051D0001041414141414101010101010101010130
:1051E0000101010101010101010101101010101064
:1051F0001042424242424202020202020202020201
:105200000202020202020202020202101010102028
:10521000000000000000000000000000000000008E
:10522000000000000000000000000000000000007E
:10523000000000000000000000000000000000006E
:10524000000000000000000000000000000000005E
:10525000000000000000000000000000000000004E
:10526000000000000000000000000000000000003E
:10527000000000000000000000000000000000002E
:10528000000000000000000000000000000000001E
:0852900028B3FF7F01000000BC
:04529800F501000814
:04529C00D101000834
:1052A00001000000100000000024F40010000020A5
:1052B000000000003850000858500008185000083E
:1052C00000000000000000000000000000000000DE
:1052D00000000000000000000000000000000000CE
:1052E00000000000000000000000000000000000BE
:1052F00000000000000000000000000000000000AE
:10530000000000000000000000000000000000009D
:10531000430000000000000000000000000000004A
:10532000000000000000000000000000000000007D
:10533000430000000000000000000000000000002A
:10534000000000000000000000000000000000005D
:10535000430000000000000000000000000000000A
:10536000000000000000000000000000000000003D
:1053700043000000000000000000000000000000EA
:10538000000000000000000000000000000000001D
:1053900043000000000000000000000000000000CA
:1053A00000000000000000000000000000000000FD
:1053B00043000000000000000000000000000000AA
:1053C00000000000000000000000000000000000DD
:1053D000430000000000000000000000000000008A
:1053E00000000000000000000000000000000000BD
:1053F000594F00080D4F0008000000008F510008B1
:105400008D51000879510008795100087951000840
:105410007951000879510008795100087951000844
:105420007951000879510008FFFFFFFFFFFFFFFFE0
:10543000FFFFFFFFFFFF0000010041534349490008
:10544000000000000000000000000000000000005C
:1054500000000000000000000000415343494900E3
:10546000000000000000000000000000000000003C
:0C54700000000000000000000000000030
:04000005080027A523
:00000001FF
